{
  "contractName": "Counter",
  "abi": [
    {
      "constant": true,
      "inputs": [],
      "name": "counter",
      "outputs": [
        {
          "name": "",
          "type": "uint256"
        }
      ],
      "payable": false,
      "stateMutability": "view",
      "type": "function"
    },
    {
      "constant": false,
      "inputs": [],
      "name": "incCounter",
      "outputs": [],
      "payable": false,
      "stateMutability": "nonpayable",
      "type": "function"
    }
  ],
  "bytecode": "0x6060604052341561000f57600080fd5b60be8061001d6000396000f30060606040526004361060485763ffffffff7c010000000000000000000000000000000000000000000000000000000060003504166322aacad58114604d57806361bc221a14605f575b600080fd5b3415605757600080fd5b605d6081565b005b3415606957600080fd5b606f608c565b60405190815260200160405180910390f35b600080546001019055565b600054815600a165627a7a72305820ca0edbe68fa352a79984325bc814cf0abbd859d8b3cd5f81bab3cb401fb9dd6e0029",
  "source": "pragma solidity ^0.4.18;\n\n\ncontract Counter {\n\n  uint public counter;\n\n  function incCounter()\n  public\n  {\n    // we use this to mine a new block during tests\n    counter++;\n  }\n\n}\n",
  "sourcePath": "/Users/sullof/Projects/tweedentity-dapp/store/contracts/helpers/Counter.sol",
  "compiler": {
    "name": "solc",
    "version": "0.4.19+commit.c4cbbb05.Emscripten.clang"
  },
  "schemaVersion": "2.0.0",
  "updatedAt": "2018-06-27T18:49:26.079Z"
}