{
  "contractName": "DatastoreCaller",
  "abi": [
    {
      "constant": true,
      "inputs": [],
      "name": "store",
      "outputs": [
        {
          "name": "",
          "type": "address"
        }
      ],
      "payable": false,
      "stateMutability": "view",
      "type": "function"
    },
    {
      "constant": false,
      "inputs": [
        {
          "name": "_storeAddress",
          "type": "address"
        }
      ],
      "name": "setStore",
      "outputs": [],
      "payable": false,
      "stateMutability": "nonpayable",
      "type": "function"
    },
    {
      "constant": true,
      "inputs": [
        {
          "name": "_uid",
          "type": "string"
        }
      ],
      "name": "getAddress",
      "outputs": [
        {
          "name": "",
          "type": "address"
        }
      ],
      "payable": false,
      "stateMutability": "view",
      "type": "function"
    },
    {
      "constant": true,
      "inputs": [
        {
          "name": "_address",
          "type": "address"
        }
      ],
      "name": "getAddressLastUpdate",
      "outputs": [
        {
          "name": "",
          "type": "uint256"
        }
      ],
      "payable": false,
      "stateMutability": "view",
      "type": "function"
    },
    {
      "constant": true,
      "inputs": [
        {
          "name": "_uid",
          "type": "string"
        }
      ],
      "name": "getUidLastUpdate",
      "outputs": [
        {
          "name": "",
          "type": "uint256"
        }
      ],
      "payable": false,
      "stateMutability": "view",
      "type": "function"
    },
    {
      "constant": true,
      "inputs": [
        {
          "name": "_address",
          "type": "address"
        },
        {
          "name": "_uid",
          "type": "string"
        }
      ],
      "name": "isUpgradable",
      "outputs": [
        {
          "name": "",
          "type": "bool"
        }
      ],
      "payable": false,
      "stateMutability": "view",
      "type": "function"
    }
  ],
  "bytecode": "0x6060604052341561000f57600080fd5b6104ea8061001e6000396000f30060606040526004361061005e5763ffffffff60e060020a600035041663087cbd408114610063578063502fe25114610084578063686e177b146100e7578063975057e71461015a578063bf40fac114610189578063ed186571146101da575b600080fd5b341561006e57600080fd5b610082600160a060020a03600435166101f9565b005b341561008f57600080fd5b6100d560046024813581810190830135806020601f8201819004810201604051908101604052818152929190602084018383808284375094965061022895505050505050565b60405190815260200160405180910390f35b34156100f257600080fd5b61014660048035600160a060020a03169060446024803590810190830135806020601f820181900481020160405190810160405281815292919060208401838380828437509496506102fd95505050505050565b604051901515815260200160405180910390f35b341561016557600080fd5b61016d6103ed565b604051600160a060020a03909116815260200160405180910390f35b341561019457600080fd5b61016d60046024813581810190830135806020601f820181900481020160405190810160405281815292919060208401838380828437509496506103fc95505050505050565b34156101e557600080fd5b6100d5600160a060020a0360043516610465565b6000805473ffffffffffffffffffffffffffffffffffffffff1916600160a060020a0392909216919091179055565b60008054600160a060020a031663502fe2518383604051602001526040518263ffffffff1660e060020a0281526004018080602001828103825283818151815260200191508051906020019080838360005b8381101561029257808201518382015260200161027a565b50505050905090810190601f1680156102bf5780820380516001836020036101000a031916815260200191505b5092505050602060405180830381600087803b15156102dd57600080fd5b6102c65a03f115156102ee57600080fd5b50505060405180519392505050565b60008054600160a060020a031663686e177b848484604051602001526040518363ffffffff1660e060020a0281526004018083600160a060020a0316600160a060020a0316815260200180602001828103825283818151815260200191508051906020019080838360005b83811015610380578082015183820152602001610368565b50505050905090810190601f1680156103ad5780820380516001836020036101000a031916815260200191505b509350505050602060405180830381600087803b15156103cc57600080fd5b6102c65a03f115156103dd57600080fd5b5050506040518051949350505050565b600054600160a060020a031681565b60008054600160a060020a031663bf40fac18383604051602001526040518263ffffffff1660e060020a0281526004018080602001828103825283818151815260200191508051906020019080838360008381101561029257808201518382015260200161027a565b60008054600160a060020a031663ed18657183836040516020015260405160e060020a63ffffffff8416028152600160a060020a039091166004820152602401602060405180830381600087803b15156102dd57600080fd00a165627a7a723058208eac457eb6ce5783d5b36204f954cb0774ae95fba98684b67e3e1e7fd33ce6c20029",
  "source": "pragma solidity ^0.4.18;\n\n\nimport '../Datastore.sol';\n\n\n// This contract is for testing the Store's methods\n// which are callable from other contracts\n\ncontract DatastoreCaller {\n\n  Datastore public store;\n\n  function setStore(address _storeAddress) public {\n    store = Datastore(_storeAddress);\n  }\n\n  // callable methods\n  // There is no need to test them because the\n  // compiler with produce an error when calling any getter that\n  // returns not-allowed dynamic data\n\n  function getAddress(string _uid) public constant returns (address){\n    return store.getAddress(_uid);\n  }\n\n  function getAddressLastUpdate(address _address) public constant returns (uint) {\n    return store.getAddressLastUpdate(_address);\n  }\n\n  function getUidLastUpdate(string _uid) public constant returns (uint) {\n    return store.getUidLastUpdate(_uid);\n  }\n\n  function isUpgradable(address _address, string _uid) public constant returns (bool) {\n    return store.isUpgradable(_address, _uid);\n  }\n\n\n}\n",
  "sourcePath": "/Users/sullof/Projects/tweedentity-dapp/store/contracts/helpers/DatastoreCaller.sol",
  "compiler": {
    "name": "solc",
    "version": "0.4.19+commit.c4cbbb05.Emscripten.clang"
  },
  "schemaVersion": "2.0.0",
  "updatedAt": "2018-06-28T05:08:54.912Z"
}