{
  "contractName": "Datastore",
  "abi": [
    {
      "constant": true,
      "inputs": [],
      "name": "newManager",
      "outputs": [
        {
          "name": "",
          "type": "address"
        }
      ],
      "payable": false,
      "stateMutability": "view",
      "type": "function"
    },
    {
      "constant": true,
      "inputs": [],
      "name": "manager",
      "outputs": [
        {
          "name": "",
          "type": "address"
        }
      ],
      "payable": false,
      "stateMutability": "view",
      "type": "function"
    },
    {
      "constant": true,
      "inputs": [],
      "name": "fromVersion",
      "outputs": [
        {
          "name": "",
          "type": "string"
        }
      ],
      "payable": false,
      "stateMutability": "view",
      "type": "function"
    },
    {
      "constant": true,
      "inputs": [],
      "name": "appSet",
      "outputs": [
        {
          "name": "",
          "type": "bool"
        }
      ],
      "payable": false,
      "stateMutability": "view",
      "type": "function"
    },
    {
      "constant": false,
      "inputs": [],
      "name": "renounceOwnership",
      "outputs": [],
      "payable": false,
      "stateMutability": "nonpayable",
      "type": "function"
    },
    {
      "constant": true,
      "inputs": [],
      "name": "appId",
      "outputs": [
        {
          "name": "",
          "type": "uint256"
        }
      ],
      "payable": false,
      "stateMutability": "view",
      "type": "function"
    },
    {
      "constant": true,
      "inputs": [],
      "name": "owner",
      "outputs": [
        {
          "name": "",
          "type": "address"
        }
      ],
      "payable": false,
      "stateMutability": "view",
      "type": "function"
    },
    {
      "constant": false,
      "inputs": [],
      "name": "reclaimEther",
      "outputs": [],
      "payable": false,
      "stateMutability": "nonpayable",
      "type": "function"
    },
    {
      "constant": true,
      "inputs": [],
      "name": "appNickname",
      "outputs": [
        {
          "name": "",
          "type": "string"
        }
      ],
      "payable": false,
      "stateMutability": "view",
      "type": "function"
    },
    {
      "constant": true,
      "inputs": [],
      "name": "checker",
      "outputs": [
        {
          "name": "",
          "type": "address"
        }
      ],
      "payable": false,
      "stateMutability": "view",
      "type": "function"
    },
    {
      "constant": true,
      "inputs": [],
      "name": "identities",
      "outputs": [
        {
          "name": "",
          "type": "uint256"
        }
      ],
      "payable": false,
      "stateMutability": "view",
      "type": "function"
    },
    {
      "constant": false,
      "inputs": [
        {
          "name": "_newOwner",
          "type": "address"
        }
      ],
      "name": "transferOwnership",
      "outputs": [],
      "payable": false,
      "stateMutability": "nonpayable",
      "type": "function"
    },
    {
      "payable": false,
      "stateMutability": "nonpayable",
      "type": "fallback"
    },
    {
      "anonymous": false,
      "inputs": [
        {
          "indexed": false,
          "name": "appNickname",
          "type": "string"
        },
        {
          "indexed": false,
          "name": "appId",
          "type": "uint256"
        },
        {
          "indexed": false,
          "name": "checker",
          "type": "address"
        }
      ],
      "name": "AppSet",
      "type": "event"
    },
    {
      "anonymous": false,
      "inputs": [
        {
          "indexed": true,
          "name": "manager",
          "type": "address"
        },
        {
          "indexed": false,
          "name": "isNew",
          "type": "bool"
        }
      ],
      "name": "ManagerSet",
      "type": "event"
    },
    {
      "anonymous": false,
      "inputs": [
        {
          "indexed": true,
          "name": "oldManager",
          "type": "address"
        },
        {
          "indexed": true,
          "name": "newManager",
          "type": "address"
        }
      ],
      "name": "ManagerSwitch",
      "type": "event"
    },
    {
      "anonymous": false,
      "inputs": [
        {
          "indexed": true,
          "name": "addr",
          "type": "address"
        },
        {
          "indexed": false,
          "name": "uid",
          "type": "string"
        }
      ],
      "name": "IdentitySet",
      "type": "event"
    },
    {
      "anonymous": false,
      "inputs": [
        {
          "indexed": true,
          "name": "addr",
          "type": "address"
        },
        {
          "indexed": false,
          "name": "uid",
          "type": "string"
        }
      ],
      "name": "IdentityUnset",
      "type": "event"
    },
    {
      "anonymous": false,
      "inputs": [
        {
          "indexed": true,
          "name": "previousOwner",
          "type": "address"
        }
      ],
      "name": "OwnershipRenounced",
      "type": "event"
    },
    {
      "anonymous": false,
      "inputs": [
        {
          "indexed": true,
          "name": "previousOwner",
          "type": "address"
        },
        {
          "indexed": true,
          "name": "newOwner",
          "type": "address"
        }
      ],
      "name": "OwnershipTransferred",
      "type": "event"
    },
    {
      "constant": false,
      "inputs": [
        {
          "name": "_address",
          "type": "address"
        }
      ],
      "name": "setNewChecker",
      "outputs": [],
      "payable": false,
      "stateMutability": "nonpayable",
      "type": "function"
    },
    {
      "constant": false,
      "inputs": [
        {
          "name": "_address",
          "type": "address"
        }
      ],
      "name": "setManager",
      "outputs": [],
      "payable": false,
      "stateMutability": "nonpayable",
      "type": "function"
    },
    {
      "constant": false,
      "inputs": [
        {
          "name": "_address",
          "type": "address"
        }
      ],
      "name": "setNewManager",
      "outputs": [],
      "payable": false,
      "stateMutability": "nonpayable",
      "type": "function"
    },
    {
      "constant": false,
      "inputs": [],
      "name": "switchManagerAndRemoveOldOne",
      "outputs": [],
      "payable": false,
      "stateMutability": "nonpayable",
      "type": "function"
    },
    {
      "constant": false,
      "inputs": [
        {
          "name": "_appNickname",
          "type": "string"
        },
        {
          "name": "_appId",
          "type": "uint256"
        },
        {
          "name": "_checker",
          "type": "address"
        }
      ],
      "name": "setApp",
      "outputs": [],
      "payable": false,
      "stateMutability": "nonpayable",
      "type": "function"
    },
    {
      "constant": true,
      "inputs": [
        {
          "name": "_address",
          "type": "address"
        },
        {
          "name": "_uid",
          "type": "string"
        }
      ],
      "name": "isUpgradable",
      "outputs": [
        {
          "name": "",
          "type": "bool"
        }
      ],
      "payable": false,
      "stateMutability": "view",
      "type": "function"
    },
    {
      "constant": false,
      "inputs": [
        {
          "name": "_address",
          "type": "address"
        },
        {
          "name": "_uid",
          "type": "string"
        }
      ],
      "name": "setIdentity",
      "outputs": [],
      "payable": false,
      "stateMutability": "nonpayable",
      "type": "function"
    },
    {
      "constant": false,
      "inputs": [
        {
          "name": "_address",
          "type": "address"
        }
      ],
      "name": "unsetIdentity",
      "outputs": [],
      "payable": false,
      "stateMutability": "nonpayable",
      "type": "function"
    },
    {
      "constant": true,
      "inputs": [],
      "name": "getAppNickname",
      "outputs": [
        {
          "name": "",
          "type": "bytes32"
        }
      ],
      "payable": false,
      "stateMutability": "view",
      "type": "function"
    },
    {
      "constant": true,
      "inputs": [],
      "name": "getAppId",
      "outputs": [
        {
          "name": "",
          "type": "uint256"
        }
      ],
      "payable": false,
      "stateMutability": "view",
      "type": "function"
    },
    {
      "constant": true,
      "inputs": [
        {
          "name": "_address",
          "type": "address"
        }
      ],
      "name": "getUid",
      "outputs": [
        {
          "name": "",
          "type": "string"
        }
      ],
      "payable": false,
      "stateMutability": "view",
      "type": "function"
    },
    {
      "constant": true,
      "inputs": [
        {
          "name": "_uid",
          "type": "string"
        }
      ],
      "name": "getAddress",
      "outputs": [
        {
          "name": "",
          "type": "address"
        }
      ],
      "payable": false,
      "stateMutability": "view",
      "type": "function"
    },
    {
      "constant": true,
      "inputs": [
        {
          "name": "_address",
          "type": "address"
        }
      ],
      "name": "getAddressLastUpdate",
      "outputs": [
        {
          "name": "",
          "type": "uint256"
        }
      ],
      "payable": false,
      "stateMutability": "view",
      "type": "function"
    },
    {
      "constant": true,
      "inputs": [
        {
          "name": "_uid",
          "type": "string"
        }
      ],
      "name": "getUidLastUpdate",
      "outputs": [
        {
          "name": "",
          "type": "uint256"
        }
      ],
      "payable": false,
      "stateMutability": "view",
      "type": "function"
    },
    {
      "constant": true,
      "inputs": [
        {
          "name": "_uid",
          "type": "string"
        }
      ],
      "name": "isUid",
      "outputs": [
        {
          "name": "",
          "type": "bool"
        }
      ],
      "payable": false,
      "stateMutability": "view",
      "type": "function"
    }
  ],
  "bytecode": "0x60c0604052600560808190527f312e312e3000000000000000000000000000000000000000000000000000000060a090815262000040916001919062000065565b5060008054600160a060020a0319163317905534156200005f57600080fd5b6200010a565b828054600181600116156101000203166002900490600052602060002090601f016020900481019282601f10620000a857805160ff1916838001178555620000d8565b82800160010185558215620000d8579182015b82811115620000d8578251825591602001919060010190620000bb565b50620000e6929150620000ea565b5090565b6200010791905b80821115620000e65760008155600101620000f1565b90565b6118cd806200011a6000396000f30060806040526004361061015e5763ffffffff7c01000000000000000000000000000000000000000000000000000000006000350416631c3b1e5d811461016d57806328faf2171461019057806342906029146101b157806344ae2c03146101e2578063481c6a75146102095780634ef8086a1461021e578063502fe2511461023357806355869af114610253578063686e177b146102dd578063693dde5c1461035857806369bdd5dd1461036d578063715018a61461038257806380afdea814610397578063897cab17146103ac5780638da5cb5b146103d95780638ec5ff41146103ee5780639f727c2714610447578063bf40fac11461045c578063bf749b6a1461047c578063bff5fb641461049d578063cf5303cf146104b2578063d0ebdbe7146104c7578063d30f945a146104e8578063de9f424814610509578063ded5bd141461051e578063ed1865711461054e578063f2fde38b1461056f575b34801561016a57600080fd5b50005b34801561017957600080fd5b5061018e600160a060020a0360043516610590565b005b34801561019c57600080fd5b5061018e600160a060020a03600435166105de565b3480156101bd57600080fd5b506101c6610938565b60408051600160a060020a039092168252519081900360200190f35b3480156101ee57600080fd5b506101f7610947565b60408051918252519081900360200190f35b34801561021557600080fd5b506101c6610a31565b34801561022a57600080fd5b5061018e610a40565b34801561023f57600080fd5b506101f76004803560248101910135610ad4565b34801561025f57600080fd5b50610268610b08565b6040805160208082528351818301528351919283929083019185019080838360005b838110156102a257818101518382015260200161028a565b50505050905090810190601f1680156102cf5780820380516001836020036101000a031916815260200191505b509250505060405180910390f35b3480156102e957600080fd5b5060408051602060046024803582810135601f8101859004850286018501909652858552610344958335600160a060020a0316953695604494919390910191908190840183828082843750949750610b959650505050505050565b604080519115158252519081900360200190f35b34801561036457600080fd5b506101f7610dbb565b34801561037957600080fd5b50610344610dd6565b34801561038e57600080fd5b5061018e610ddf565b3480156103a357600080fd5b506101f7610e3e565b3480156103b857600080fd5b5061018e60048035600160a060020a03169060248035908101910135610e44565b3480156103e557600080fd5b506101c661122c565b3480156103fa57600080fd5b506040805160206004803580820135601f810184900484028501840190955284845261034494369492936024939284019190819084018382808284375094975061123b9650505050505050565b34801561045357600080fd5b5061018e611330565b34801561046857600080fd5b506101c66004803560248101910135611385565b34801561048857600080fd5b50610268600160a060020a03600435166113be565b3480156104a957600080fd5b50610268611469565b3480156104be57600080fd5b506101c66114c4565b3480156104d357600080fd5b5061018e600160a060020a03600435166114d3565b3480156104f457600080fd5b5061018e600160a060020a0360043516611555565b34801561051557600080fd5b506101f76115ef565b34801561052a57600080fd5b5061018e602460048035828101929101359035600160a060020a03604435166115f5565b34801561055a57600080fd5b506101f7600160a060020a03600435166116f2565b34801561057b57600080fd5b5061018e600160a060020a0360043516611710565b600054600160a060020a031633146105a757600080fd5b600160a060020a03811615156105bc57600080fd5b60078054600160a060020a031916600160a060020a0392909216919091179055565b600554606090600160a060020a03163314806106195750600654600160a060020a0316158015906106195750600654600160a060020a031633145b151561062457600080fd5b600a5460ff16151561063557600080fd5b600160a060020a038216151561064a57600080fd5b600160a060020a038216600090815260096020526040812054600260001961010060018416150201909116041161068057600080fd5b600160a060020a03821660009081526009602090815260409182902080548351601f60026000196101006001861615020190931692909204918201849004840281018401909452808452909183018282801561071d5780601f106106f25761010080835404028352916020019161071d565b820191906000526020600020905b81548152906001019060200180831161070057829003601f168201915b50506040805160608101825260008183018181528252600160a060020a0389168082526009602081815294832060018101548686015291909252908352815180519798509196909550610776945085935091019061179b565b506020820151816001015590505060408051908101604052806000600160a060020a031681526020016008836040518082805190602001908083835b602083106107d15780518252601f1990920191602091820191016107b2565b51815160209384036101000a60001901801990921691161790529201948552506040805194859003820190942060010154909452505051835160089285929182918401908083835b602083106108385780518252601f199092019160209182019101610819565b51815160001960209485036101000a8101918216911992909216179091529390910195865260408051968790038201872088518154600160a060020a03918216600160a060020a03199091161782559883015160019190910155600480549094019093558086528751868201528751968916967fbcf27d646501987f37d06dde232c521019931de1dc82a429d07e6a5f8b13c4529689965094508493840192509085019080838360005b838110156108fa5781810151838201526020016108e2565b50505050905090810190601f1680156109275780820380516001836020036101000a031916815260200191505b509250505060405180910390a25050565b600654600160a060020a031681565b600a5460009060ff16151561095b57600080fd5b600360405160200180828054600181600116156101000203166002900480156109bb5780601f106109995761010080835404028352918201916109bb565b820191906000526020600020905b8154815290600101906020018083116109a7575b50509150506040516020818303038152906040526040518082805190602001908083835b602083106109fe5780518252601f1990920191602091820191016109df565b6001836020036101000a038019825116818451168082178552505050505050905001915050604051809103902090505b90565b600554600160a060020a031681565b600054600160a060020a03163314610a5757600080fd5b600654600160a060020a03161515610a6e57600080fd5b600654600554604051600160a060020a0392831692909116907f3d00b1f043b815570ac542816c1223d95fabb650bd00aad65c90a33b293b40d890600090a36006805460058054600160a060020a0319908116600160a060020a03841617909155169055565b6000600883836040518083838082843782019150509250505090815260200160405180910390206001015490505b92915050565b60018054604080516020600284861615610100026000190190941693909304601f81018490048402820184019092528181529291830182828015610b8d5780601f10610b6257610100808354040283529160200191610b8d565b820191906000526020600020905b815481529060010190602001808311610b7057829003601f168201915b505050505081565b600080600160a060020a03166008836040518082805190602001908083835b60208310610bd35780518252601f199092019160209182019101610bb4565b51815160209384036101000a6000190180199092169116179052920194855250604051938490030190922054600160a060020a0316929092149150610db2905057816040516020018082805190602001908083835b60208310610c475780518252601f199092019160209182019101610c28565b6001836020036101000a0380198251168184511680821785525050505050509050019150506040516020818303038152906040526040518082805190602001908083835b60208310610caa5780518252601f199092019160209182019101610c8b565b6001836020036101000a038019825116818451168082178552505050505050905001915050604051809103902060001916610ce4846113be565b6040516020018082805190602001908083835b60208310610d165780518252601f199092019160209182019101610cf7565b6001836020036101000a0380198251168184511680821785525050505050509050019150506040516020818303038152906040526040518082805190602001908083835b60208310610d795780518252601f199092019160209182019101610d5a565b6001836020036101000a038019825116818451168082178552505050505050905001915050604051809103902060001916149050610b02565b50600192915050565b600a5460009060ff161515610dcf57600080fd5b5060025490565b600a5460ff1681565b600054600160a060020a03163314610df657600080fd5b60008054604051600160a060020a03909116917ff8df31144d9c2f0f6b59d69b8b98abd5459d07f2742c4df920b25aae33c6482091a260008054600160a060020a0319169055565b60025481565b600554600160a060020a0316331480610e7c5750600654600160a060020a031615801590610e7c5750600654600160a060020a031633145b1515610e8757600080fd5b600a5460ff161515610e9857600080fd5b600160a060020a0383161515610ead57600080fd5b610ee682828080601f0160208091040260200160405190810160405280939291908181526020018383808284375061123b945050505050565b1515610ef157600080fd5b610f2b8383838080601f01602080910402602001604051908101604052809392919081815260200183838082843750610b95945050505050565b1515610f3657600080fd5b600160a060020a0383166000908152600960205260408120546002600019610100600184161502019091160411156110eb5760408051908101604052806000600160a060020a0316815260200160086009600087600160a060020a0316600160a060020a0316815260200190815260200160002060000160405180828054600181600116156101000203166002900480156110085780601f10610fe6576101008083540402835291820191611008565b820191906000526020600020905b815481529060010190602001808311610ff4575b505091505090815260200160405180910390206001015481525060086009600086600160a060020a0316600160a060020a0316815260200190815260200160002060000160405180828054600181600116156101000203166002900480156110a75780601f106110855761010080835404028352918201916110a7565b820191906000526020600020905b815481529060010190602001808311611093575b505092835250506040516020918190038201902082518154600160a060020a031916600160a060020a03909116178155910151600190910155600480546000190190555b6040805160606020601f8501819004028201810183529181018381529091829190859085908190850183828082843750505092845250504260209283015250600160a060020a038516600090815260098252604090208251805191926111569284929091019061179b565b5060208201518160010155905050604080519081016040528084600160a060020a03168152602001428152506008838360405180838380828437919091019485525050604080516020948190038501812086518154600160a060020a031916600160a060020a0391821617825596860151600191820155600480549091019055848152938401869052938716937f94e5d971bd7bf5b224803c026e42d9c1e3f7082f7f82a118fd306d8a8496350c93879350869250908190810184848082843760405192018290039550909350505050a2505050565b600054600160a060020a031681565b6007546040517f8ec5ff41000000000000000000000000000000000000000000000000000000008152602060048201818152845160248401528451600094600160a060020a031693638ec5ff41938793928392604401918501908083838b5b838110156112b257818101518382015260200161129a565b50505050905090810190601f1680156112df5780820380516001836020036101000a031916815260200191505b5092505050602060405180830381600087803b1580156112fe57600080fd5b505af1158015611312573d6000803e3d6000fd5b505050506040513d602081101561132857600080fd5b505192915050565b600054600160a060020a0316331461134757600080fd5b60008054604051600160a060020a0390911691303180156108fc02929091818181858888f19350505050158015611382573d6000803e3d6000fd5b50565b6000600883836040518083838082843790910194855250506040519283900360200190922054600160a060020a03169250505092915050565b600160a060020a03811660009081526009602090815260409182902080548351601f600260001961010060018616150201909316929092049182018490048402810184019094528084526060939283018282801561145d5780601f106114325761010080835404028352916020019161145d565b820191906000526020600020905b81548152906001019060200180831161144057829003601f168201915b50505050509050919050565b6003805460408051602060026001851615610100026000190190941693909304601f81018490048402820184019092528181529291830182828015610b8d5780601f10610b6257610100808354040283529160200191610b8d565b600754600160a060020a031681565b600054600160a060020a031633146114ea57600080fd5b600160a060020a03811615156114ff57600080fd5b60058054600160a060020a038316600160a060020a03199091168117909155604080516000815290517fff83ce179bad4fbdb0e98074011487cde624295a52d8189d92d5d8b06c914eda9181900360200190a250565b600054600160a060020a0316331461156c57600080fd5b600160a060020a0381161580159061158e5750600554600160a060020a031615155b151561159957600080fd5b60068054600160a060020a038316600160a060020a03199091168117909155604080516001815290517fff83ce179bad4fbdb0e98074011487cde624295a52d8189d92d5d8b06c914eda9181900360200190a250565b60045481565b600054600160a060020a0316331461160c57600080fd5b600a5460ff161561161c57600080fd5b6000821161162957600080fd5b600160a060020a038116151561163e57600080fd5b6000831161164b57600080fd5b600282905561165c60038585611819565b5060078054600160a060020a031916600160a060020a038316908117909155600a805460ff19166001179055604080516020810185905290810191909152606080825281018490527f63caa0cbeda4738898e5573cebced95ad5b20f5c4d478d588e110d5445eebfcc9085908590859085908060808101868680828437604051920182900397509095505050505050a150505050565b600160a060020a031660009081526009602052604090206001015490565b600054600160a060020a0316331461172757600080fd5b61138281600160a060020a038116151561174057600080fd5b60008054604051600160a060020a03808516939216917f8be0079c531659141344cd1fd0a4f28419497f9722a3daafe3b4186f6b6457e091a360008054600160a060020a031916600160a060020a0392909216919091179055565b828054600181600116156101000203166002900490600052602060002090601f016020900481019282601f106117dc57805160ff1916838001178555611809565b82800160010185558215611809579182015b828111156118095782518255916020019190600101906117ee565b50611815929150611887565b5090565b828054600181600116156101000203166002900490600052602060002090601f016020900481019282601f1061185a5782800160ff19823516178555611809565b82800160010185558215611809579182015b8281111561180957823582559160200191906001019061186c565b610a2e91905b80821115611815576000815560010161188d5600a165627a7a72305820694fa0dd0625822e24492427289f1288e56db7bebde5dfdebedacc0102ab7a4b0029",
  "source": "pragma solidity ^0.4.18;\n\n\nimport 'openzeppelin-solidity/contracts/ownership/HasNoEther.sol';\n\nimport './UidCheckerInterface.sol';\n\n/**\n * @title Store\n * @author Francesco Sullo <francesco@sullo.co>\n * @dev It store the tweedentities related to the app\n */\n\n\n\ncontract Datastore\nis HasNoEther\n{\n\n  string public fromVersion = \"1.1.0\";\n\n  uint public appId;\n  string public appNickname;\n\n  uint public identities;\n\n  address public manager;\n  address public newManager;\n\n  UidCheckerInterface public checker;\n\n  struct Uid {\n    string lastUid;\n    uint lastUpdate;\n  }\n\n  struct Address {\n    address lastAddress;\n    uint lastUpdate;\n  }\n\n  mapping(string => Address) internal __addressByUid;\n  mapping(address => Uid) internal __uidByAddress;\n\n  bool public appSet;\n\n\n\n  // events\n\n\n  event AppSet(\n    string appNickname,\n    uint appId,\n    address checker\n  );\n\n\n  event ManagerSet(\n    address indexed manager,\n    bool isNew\n  );\n\n  event ManagerSwitch(\n    address indexed oldManager,\n    address indexed newManager\n  );\n\n\n  event IdentitySet(\n    address indexed addr,\n    string uid\n  );\n\n\n  event IdentityUnset(\n    address indexed addr,\n    string uid\n  );\n\n\n\n  // modifiers\n\n\n  modifier onlyManager() {\n    require(msg.sender == manager || (newManager != address(0) && msg.sender == newManager));\n    _;\n  }\n\n\n  modifier whenAppSet() {\n    require(appSet);\n    _;\n  }\n\n\n\n  // config\n\n\n  /**\n  * @dev Updates the checker for the store\n  * @param _address Checker's address\n  */\n  function setNewChecker(\n    address _address\n  )\n  external\n  onlyOwner\n  {\n    require(_address != address(0));\n    checker = UidCheckerInterface(_address);\n  }\n\n\n  /**\n  * @dev Sets the manager\n  * @param _address Manager's address\n  */\n  function setManager(\n    address _address\n  )\n  external\n  onlyOwner\n  {\n    require(_address != address(0));\n    manager = _address;\n    emit ManagerSet(_address, false);\n  }\n\n\n  /**\n  * @dev Sets new manager\n  * @param _address New manager's address\n  */\n  function setNewManager(\n    address _address\n  )\n  external\n  onlyOwner\n  {\n    require(_address != address(0) && manager != address(0));\n    newManager = _address;\n    emit ManagerSet(_address, true);\n  }\n\n\n  /**\n  * @dev Sets new manager\n  */\n  function switchManagerAndRemoveOldOne()\n  external\n  onlyOwner\n  {\n    require(newManager != address(0));\n    emit ManagerSwitch(manager, newManager);\n    manager = newManager;\n    newManager = address(0);\n  }\n\n\n  /**\n  * @dev Sets the app\n  * @param _appNickname Nickname (e.g. twitter)\n  * @param _appId ID (e.g. 1)\n  */\n  function setApp(\n    string _appNickname,\n    uint _appId,\n    address _checker\n  )\n  external\n  onlyOwner\n  {\n    require(!appSet);\n    require(_appId > 0);\n    require(_checker != address(0));\n    require(bytes(_appNickname).length > 0);\n    appId = _appId;\n    appNickname = _appNickname;\n    checker = UidCheckerInterface(_checker);\n    appSet = true;\n    emit AppSet(_appNickname, _appId, _checker);\n  }\n\n\n\n  // helpers\n\n\n  /**\n   * @dev Checks if a tweedentity is upgradable\n   * @param _address The address\n   * @param _uid The user-id\n   */\n  function isUpgradable(\n    address _address,\n    string _uid\n  )\n  public\n  constant returns (bool)\n  {\n    if (__addressByUid[_uid].lastAddress != address(0)) {\n      return keccak256(abi.encodePacked(getUid(_address))) == keccak256(abi.encodePacked(_uid));\n    }\n    return true;\n  }\n\n\n\n  // primary methods\n\n\n  /**\n   * @dev Sets a tweedentity\n   * @param _address The address of the wallet\n   * @param _uid The user-id of the owner user account\n   */\n  function setIdentity(\n    address _address,\n    string _uid\n  )\n  external\n  onlyManager\n  whenAppSet\n  {\n    require(_address != address(0));\n    require(isUid(_uid));\n    require(isUpgradable(_address, _uid));\n\n    if (bytes(__uidByAddress[_address].lastUid).length > 0) {\n      // if _address is associated with an oldUid,\n      // this removes the association between _address and oldUid\n      __addressByUid[__uidByAddress[_address].lastUid] = Address(address(0), __addressByUid[__uidByAddress[_address].lastUid].lastUpdate);\n      identities--;\n    }\n\n    __uidByAddress[_address] = Uid(_uid, now);\n    __addressByUid[_uid] = Address(_address, now);\n    identities++;\n    emit IdentitySet(_address, _uid);\n  }\n\n\n  /**\n   * @dev Unset a tweedentity\n   * @param _address The address of the wallet\n   */\n  function unsetIdentity(\n    address _address\n  )\n  external\n  onlyManager\n  whenAppSet\n  {\n    require(_address != address(0));\n    require(bytes(__uidByAddress[_address].lastUid).length > 0);\n\n    string memory uid = __uidByAddress[_address].lastUid;\n    __uidByAddress[_address] = Uid('', __uidByAddress[_address].lastUpdate);\n    __addressByUid[uid] = Address(address(0), __addressByUid[uid].lastUpdate);\n    identities--;\n    emit IdentityUnset(_address, uid);\n  }\n\n\n\n  // getters\n\n\n  /**\n   * @dev Returns the keccak256 of the app nickname\n   */\n  function getAppNickname()\n  external\n  whenAppSet\n  constant returns (bytes32) {\n    return keccak256(abi.encodePacked(appNickname));\n  }\n\n\n  /**\n   * @dev Returns the appId\n   */\n  function getAppId()\n  external\n  whenAppSet\n  constant returns (uint) {\n    return appId;\n  }\n\n\n  /**\n   * @dev Returns the user-id associated to a wallet\n   * @param _address The address of the wallet\n   */\n  function getUid(\n    address _address\n  )\n  public\n  constant returns (string)\n  {\n    return __uidByAddress[_address].lastUid;\n  }\n\n\n  /**\n   * @dev Returns the address associated to a user-id\n   * @param _uid The user-id\n   */\n  function getAddress(\n    string _uid\n  )\n  external\n  constant returns (address)\n  {\n    return __addressByUid[_uid].lastAddress;\n  }\n\n\n  /**\n   * @dev Returns the timestamp of last update by address\n   * @param _address The address of the wallet\n   */\n  function getAddressLastUpdate(\n    address _address\n  )\n  external\n  constant returns (uint)\n  {\n    return __uidByAddress[_address].lastUpdate;\n  }\n\n\n  /**\n * @dev Returns the timestamp of last update by user-id\n * @param _uid The user-id\n */\n  function getUidLastUpdate(\n    string _uid\n  )\n  external\n  constant returns (uint)\n  {\n    return __addressByUid[_uid].lastUpdate;\n  }\n\n\n\n  // utils\n\n\n  function isUid(\n    string _uid\n  )\n  public\n  view\n  returns (bool)\n  {\n    return checker.isUid(_uid);\n  }\n\n}\n",
  "sourcePath": "/Users/sullof/Projects/tweedentity-dapp/store/contracts/Datastore.sol",
  "compiler": {
    "name": "solc",
    "version": "0.4.24+commit.e67f0147.Emscripten.clang"
  },
  "schemaVersion": "2.0.1",
  "updatedAt": "2018-07-02T23:40:22.804Z"
}