{
  "contractName": "OwnershipClaimer",
  "abi": [
    {
      "constant": true,
      "inputs": [],
      "name": "manager",
      "outputs": [
        {
          "name": "",
          "type": "address"
        }
      ],
      "payable": false,
      "stateMutability": "view",
      "type": "function"
    },
    {
      "constant": true,
      "inputs": [],
      "name": "fromVersion",
      "outputs": [
        {
          "name": "",
          "type": "string"
        }
      ],
      "payable": false,
      "stateMutability": "view",
      "type": "function"
    },
    {
      "constant": false,
      "inputs": [],
      "name": "renounceOwnership",
      "outputs": [],
      "payable": false,
      "stateMutability": "nonpayable",
      "type": "function"
    },
    {
      "constant": true,
      "inputs": [],
      "name": "apiUrl",
      "outputs": [
        {
          "name": "",
          "type": "string"
        }
      ],
      "payable": false,
      "stateMutability": "view",
      "type": "function"
    },
    {
      "constant": true,
      "inputs": [],
      "name": "owner",
      "outputs": [
        {
          "name": "",
          "type": "address"
        }
      ],
      "payable": false,
      "stateMutability": "view",
      "type": "function"
    },
    {
      "constant": false,
      "inputs": [],
      "name": "reclaimEther",
      "outputs": [],
      "payable": false,
      "stateMutability": "nonpayable",
      "type": "function"
    },
    {
      "constant": true,
      "inputs": [],
      "name": "managerAddress",
      "outputs": [
        {
          "name": "",
          "type": "address"
        }
      ],
      "payable": false,
      "stateMutability": "view",
      "type": "function"
    },
    {
      "constant": false,
      "inputs": [
        {
          "name": "_newOwner",
          "type": "address"
        }
      ],
      "name": "transferOwnership",
      "outputs": [],
      "payable": false,
      "stateMutability": "nonpayable",
      "type": "function"
    },
    {
      "payable": false,
      "stateMutability": "nonpayable",
      "type": "fallback"
    },
    {
      "anonymous": false,
      "inputs": [
        {
          "indexed": true,
          "name": "manager",
          "type": "address"
        }
      ],
      "name": "ManagerSet",
      "type": "event"
    },
    {
      "anonymous": false,
      "inputs": [
        {
          "indexed": false,
          "name": "oraclizeId",
          "type": "bytes32"
        },
        {
          "indexed": true,
          "name": "addr",
          "type": "address"
        },
        {
          "indexed": false,
          "name": "appNickname",
          "type": "string"
        },
        {
          "indexed": false,
          "name": "postId",
          "type": "string"
        }
      ],
      "name": "VerificationStarted",
      "type": "event"
    },
    {
      "anonymous": false,
      "inputs": [
        {
          "indexed": true,
          "name": "oraclizeId",
          "type": "bytes32"
        }
      ],
      "name": "VerificatioFailed",
      "type": "event"
    },
    {
      "anonymous": false,
      "inputs": [],
      "name": "RequirementPassed",
      "type": "event"
    },
    {
      "anonymous": false,
      "inputs": [],
      "name": "ApiUrlBuilt",
      "type": "event"
    },
    {
      "anonymous": false,
      "inputs": [
        {
          "indexed": true,
          "name": "previousOwner",
          "type": "address"
        }
      ],
      "name": "OwnershipRenounced",
      "type": "event"
    },
    {
      "anonymous": false,
      "inputs": [
        {
          "indexed": true,
          "name": "previousOwner",
          "type": "address"
        },
        {
          "indexed": true,
          "name": "newOwner",
          "type": "address"
        }
      ],
      "name": "OwnershipTransferred",
      "type": "event"
    },
    {
      "constant": false,
      "inputs": [
        {
          "name": "_address",
          "type": "address"
        }
      ],
      "name": "setManager",
      "outputs": [],
      "payable": false,
      "stateMutability": "nonpayable",
      "type": "function"
    },
    {
      "constant": false,
      "inputs": [
        {
          "name": "_appNickname",
          "type": "string"
        },
        {
          "name": "_postId",
          "type": "string"
        },
        {
          "name": "_gasPrice",
          "type": "uint256"
        },
        {
          "name": "_gasLimit",
          "type": "uint256"
        }
      ],
      "name": "claimAccountOwnership",
      "outputs": [],
      "payable": true,
      "stateMutability": "payable",
      "type": "function"
    },
    {
      "constant": false,
      "inputs": [
        {
          "name": "_oraclizeID",
          "type": "bytes32"
        },
        {
          "name": "_result",
          "type": "string"
        }
      ],
      "name": "__callback",
      "outputs": [],
      "payable": false,
      "stateMutability": "nonpayable",
      "type": "function"
    },
    {
      "constant": false,
      "inputs": [
        {
          "name": "myid",
          "type": "bytes32"
        },
        {
          "name": "result",
          "type": "string"
        },
        {
          "name": "proof",
          "type": "bytes"
        }
      ],
      "name": "__callback",
      "outputs": [],
      "payable": false,
      "stateMutability": "nonpayable",
      "type": "function"
    }
  ],
  "bytecode": "0x60c0604052600560808190527f312e302e3000000000000000000000000000000000000000000000000000000060a0908152620000409160069190620000ac565b5060408051808201909152601c8082527f68747470733a2f2f6170692e7477656564656e746974792e6e65742f0000000060209092019182526200008791600791620000ac565b5060058054600160a060020a031916331790553415620000a657600080fd5b62000151565b828054600181600116156101000203166002900490600052602060002090601f016020900481019282601f10620000ef57805160ff19168380011785556200011f565b828001600101855582156200011f579182015b828111156200011f57825182559160200191906001019062000102565b506200012d92915062000131565b5090565b6200014e91905b808211156200012d576000815560010162000138565b90565b611c7f80620001616000396000f3006080604052600436106100a05763ffffffff60e060020a60003504166327dc297e81146100af57806338bbfa501461010f578063481c6a75146101ab57806355869af1146101dc578063715018a6146102665780637bbf23001461027b5780638367e1201461030e5780638da5cb5b146103235780639f727c2714610338578063cf73a1bc1461034d578063d0ebdbe714610362578063f2fde38b14610383575b3480156100ac57600080fd5b50005b3480156100bb57600080fd5b5060408051602060046024803582810135601f810185900485028601850190965285855261010d9583359536956044949193909101919081908401838280828437509497506103a49650505050505050565b005b34801561011b57600080fd5b5060408051602060046024803582810135601f810185900485028601850190965285855261010d95833595369560449491939091019190819084018382808284375050604080516020601f89358b018035918201839004830284018301909452808352979a99988101979196509182019450925082915084018382808284375094975061050d9650505050505050565b3480156101b757600080fd5b506101c0610512565b60408051600160a060020a039092168252519081900360200190f35b3480156101e857600080fd5b506101f1610521565b6040805160208082528351818301528351919283929083019185019080838360005b8381101561022b578181015183820152602001610213565b50505050905090810190601f1680156102585780820380516001836020036101000a031916815260200191505b509250505060405180910390f35b34801561027257600080fd5b5061010d6105af565b6040805160206004803580820135601f810184900484028501840190955284845261010d94369492936024939284019190819084018382808284375050604080516020601f89358b018035918201839004830284018301909452808352979a9998810197919650918201945092508291508401838280828437509497505084359550505060209092013591506106109050565b34801561031a57600080fd5b506101f1610b97565b34801561032f57600080fd5b506101c0610bf2565b34801561034457600080fd5b5061010d610c01565b34801561035957600080fd5b506101c0610c55565b34801561036e57600080fd5b5061010d600160a060020a0360043516610c64565b34801561038f57600080fd5b5061010d600160a060020a0360043516610ce6565b6103ac610d06565b600160a060020a031633146103c057600080fd5b6000815111156104dd5760095460008381526008602090815260408083206001810154905491517fb2b5be0900000000000000000000000000000000000000000000000000000000815260048101828152600160a060020a0393841660248301819052606060448401908152895160648501528951959098169763b2b5be0997949691958a95939491936084909201928601918190849084905b8381101561047257818101518382015260200161045a565b50505050905090810190601f16801561049f5780820380516001836020036101000a031916815260200191505b50945050505050600060405180830381600087803b1580156104c057600080fd5b505af11580156104d4573d6000803e3d6000fd5b50505050610509565b60405182907fea3ae050e46978d1dfdae72b67e087e0358002dcd98d24be5a1235300652655f90600090a25b5050565b505050565b600954600160a060020a031681565b6006805460408051602060026001851615610100026000190190941693909304601f810184900484028201840190925281815292918301828280156105a75780601f1061057c576101008083540402835291602001916105a7565b820191906000526020600020905b81548152906001019060200180831161058a57829003601f168201915b505050505081565b600554600160a060020a031633146105c657600080fd5b600554604051600160a060020a03909116907ff8df31144d9c2f0f6b59d69b8b98abd5459d07f2742c4df920b25aae33c6482090600090a260058054600160a060020a0319169055565b610618611b93565b6009546040517fad0b38a20000000000000000000000000000000000000000000000000000000081526020600482018181528851602484015288516060946000948b948694600160a060020a039093169363ad0b38a293879390928392604490920191908501908083838b5b8381101561069c578181015183820152602001610684565b50505050905090810190601f1680156106c95780820380516001836020036101000a031916815260200191505b5092505050602060405180830381600087803b1580156106e857600080fd5b505af11580156106fc573d6000803e3d6000fd5b505050506040513d602081101561071257600080fd5b50511161071e57600080fd5b865160001061072c57600080fd5b85850234101561073b57600080fd5b6040517f880198b8792923234804fe0ba127043f47bcd2f0ebc9027a3be20fa7e59444ac90600090a161076d86610ef8565b6007805460408051602060026001851615610100026000190190941693909304601f810184900484028201840190925281815292918301828280156107f35780601f106107c8576101008083540402835291602001916107f3565b820191906000526020600020905b8154815290600101906020018083116107d657829003601f168201915b5088935060009250610803915050565b60200201528784600160200201819052506040805190810160405280600181526020017f2f0000000000000000000000000000000000000000000000000000000000000081525084600260068110151561085957fe5b60200201528684600360200201819052506040805190810160405280600381526020017f2f307800000000000000000000000000000000000000000000000000000000008152508460046006811015156108af57fe5b60200201526108bd336110e5565b60a08501526108cb8461122f565b6040519093507f0c48e6ffbb51910361d961cbca46c802eb85859fb5aa39518c1c690efe240add90600090a16109376040805190810160405280600381526020017f55524c00000000000000000000000000000000000000000000000000000000008152508487611354565b915033600160a060020a03167f32fbf8d3f90c050c8364505faa222b4c8b3e6829b596fa4ad20ecd72ec97c063838a8a6040518084600019166000191681526020018060200180602001838103835285818151815260200191508051906020019080838360005b838110156109b657818101518382015260200161099e565b50505050905090810190601f1680156109e35780820380516001836020036101000a031916815260200191505b50838103825284518152845160209182019186019080838360005b83811015610a165781810151838201526020016109fe565b50505050905090810190601f168015610a435780820380516001836020036101000a031916815260200191505b509550505050505060405180910390a260408051808201825233815260095491517fad0b38a20000000000000000000000000000000000000000000000000000000081526020600482018181528c5160248401528c51939482860194600160a060020a039091169363ad0b38a2938f939283926044019185019080838360005b83811015610adb578181015183820152602001610ac3565b50505050905090810190601f168015610b085780820380516001836020036101000a031916815260200191505b5092505050602060405180830381600087803b158015610b2757600080fd5b505af1158015610b3b573d6000803e3d6000fd5b505050506040513d6020811015610b5157600080fd5b50519052600092835260086020908152604090932081518154600160a060020a031916600160a060020a0390911617815592015160019092019190915550505050505050565b6007805460408051602060026001851615610100026000190190941693909304601f810184900484028201840190925281815292918301828280156105a75780601f1061057c576101008083540402835291602001916105a7565b600554600160a060020a031681565b600554600160a060020a03163314610c1857600080fd5b600554604051600160a060020a0390911690303180156108fc02916000818181858888f19350505050158015610c52573d6000803e3d6000fd5b50565b600a54600160a060020a031681565b600554600160a060020a03163314610c7b57600080fd5b600160a060020a0381161515610c9057600080fd5b600a8054600160a060020a038316600160a060020a0319918216811790925560098054909116821790556040517f60a0f5b9f9e81e98216071b85826681c796256fe3d1354ecb675580fba64fa6990600090a250565b600554600160a060020a03163314610cfd57600080fd5b610c5281611755565b60008054600160a060020a03161580610d315750600054610d2f90600160a060020a03166117c6565b155b15610d4257610d4060006117ca565b505b6000809054906101000a9004600160a060020a0316600160a060020a03166338cc48316040518163ffffffff1660e060020a028152600401602060405180830381600087803b158015610d9457600080fd5b505af1158015610da8573d6000803e3d6000fd5b505050506040513d6020811015610dbe57600080fd5b5051600154600160a060020a03908116911614610e73576000809054906101000a9004600160a060020a0316600160a060020a03166338cc48316040518163ffffffff1660e060020a028152600401602060405180830381600087803b158015610e2757600080fd5b505af1158015610e3b573d6000803e3d6000fd5b505050506040513d6020811015610e5157600080fd5b505160018054600160a060020a031916600160a060020a039092169190911790555b600160009054906101000a9004600160a060020a0316600160a060020a031663c281d19e6040518163ffffffff1660e060020a028152600401602060405180830381600087803b158015610ec657600080fd5b505af1158015610eda573d6000803e3d6000fd5b505050506040513d6020811015610ef057600080fd5b505190505b90565b600054600160a060020a03161580610f225750600054610f2090600160a060020a03166117c6565b155b15610f3357610f3160006117ca565b505b6000809054906101000a9004600160a060020a0316600160a060020a03166338cc48316040518163ffffffff1660e060020a028152600401602060405180830381600087803b158015610f8557600080fd5b505af1158015610f99573d6000803e3d6000fd5b505050506040513d6020811015610faf57600080fd5b5051600154600160a060020a03908116911614611064576000809054906101000a9004600160a060020a0316600160a060020a03166338cc48316040518163ffffffff1660e060020a028152600401602060405180830381600087803b15801561101857600080fd5b505af115801561102c573d6000803e3d6000fd5b505050506040513d602081101561104257600080fd5b505160018054600160a060020a031916600160a060020a039092169190911790555b600154604080517fca6ad1e4000000000000000000000000000000000000000000000000000000008152600481018490529051600160a060020a039092169163ca6ad1e49160248082019260009290919082900301818387803b1580156110ca57600080fd5b505af11580156110de573d6000803e3d6000fd5b5050505050565b60408051602880825260608083019093528291600091829182918291906020820161050080388339019050509450600093505b6014841015611224578360130360080260020a87600160a060020a031681151561113e57fe5b0460f860020a02925060108360f860020a900460ff1681151561115d57fe5b0460f860020a0291508160f860020a90046010028360f860020a90040360f860020a02905061118b826117dc565b858560020281518110151561119c57fe5b9060200101907effffffffffffffffffffffffffffffffffffffffffffffffffffffffffffff1916908160001a9053506111d5816117dc565b85856002026001018151811015156111e957fe5b9060200101907effffffffffffffffffffffffffffffffffffffffffffffffffffffffffffff1916908160001a905350600190930192611118565b509295945050505050565b606060008082808280825b60068610156112655788866006811061124f57fe5b602002015151969096019560019095019461123a565b866040519080825280601f01601f191660200182016040528015611293578160200160208202803883390190505b50945084935060009250600095505b6006861015611347578886600681106112b757fe5b60200201519050600091505b805182101561133c5780828151811015156112da57fe5b90602001015160f860020a900460f860020a02848480600101955081518110151561130157fe5b9060200101907effffffffffffffffffffffffffffffffffffffffffffffffffffffffffffff1916908160001a9053506001909101906112c3565b6001909501946112a2565b5091979650505050505050565b600080548190600160a060020a03161580611381575060005461137f90600160a060020a03166117c6565b155b156113925761139060006117ca565b505b6000809054906101000a9004600160a060020a0316600160a060020a03166338cc48316040518163ffffffff1660e060020a028152600401602060405180830381600087803b1580156113e457600080fd5b505af11580156113f8573d6000803e3d6000fd5b505050506040513d602081101561140e57600080fd5b5051600154600160a060020a039081169116146114c3576000809054906101000a9004600160a060020a0316600160a060020a03166338cc48316040518163ffffffff1660e060020a028152600401602060405180830381600087803b15801561147757600080fd5b505af115801561148b573d6000803e3d6000fd5b505050506040513d60208110156114a157600080fd5b505160018054600160a060020a031916600160a060020a039092169190911790555b600154604080517f2ef3accc0000000000000000000000000000000000000000000000000000000081526024810186905260048101918252875160448201528751600160a060020a0390931692632ef3accc9289928892829160640190602086019080838360005b8381101561154357818101518382015260200161152b565b50505050905090810190601f1680156115705780820380516001836020036101000a031916815260200191505b509350505050602060405180830381600087803b15801561159057600080fd5b505af11580156115a4573d6000803e3d6000fd5b505050506040513d60208110156115ba57600080fd5b50519050670de0b6b3a76400003a8402018111156115db576000915061174d565b6001546040517fc51be90f00000000000000000000000000000000000000000000000000000000815260006004820181815260648301879052608060248401908152895160848501528951600160a060020a039095169463c51be90f948794938c938c938c93604481019160a49091019060208801908083838c5b8381101561166e578181015183820152602001611656565b50505050905090810190601f16801561169b5780820380516001836020036101000a031916815260200191505b50838103825285518152855160209182019187019080838360005b838110156116ce5781810151838201526020016116b6565b50505050905090810190601f1680156116fb5780820380516001836020036101000a031916815260200191505b5096505050505050506020604051808303818588803b15801561171d57600080fd5b505af1158015611731573d6000803e3d6000fd5b50505050506040513d602081101561174857600080fd5b505191505b509392505050565b600160a060020a038116151561176a57600080fd5b600554604051600160a060020a038084169216907f8be0079c531659141344cd1fd0a4f28419497f9722a3daafe3b4186f6b6457e090600090a360058054600160a060020a031916600160a060020a0392909216919091179055565b3b90565b60006117d4611858565b90505b919050565b60007f0a000000000000000000000000000000000000000000000000000000000000007fff0000000000000000000000000000000000000000000000000000000000000083161015611840578160f860020a900460300160f860020a0290506117d7565b8160f860020a900460570160f860020a0290506117d7565b600080611878731d3b2638a7cc9f2cb3d298a3da7a90b67e5506ed6117c6565b11156118e95760008054600160a060020a031916731d3b2638a7cc9f2cb3d298a3da7a90b67e5506ed17905560408051808201909152600b81527f6574685f6d61696e6e657400000000000000000000000000000000000000000060208201526118e190611b80565b506001610ef5565b600061190873c03a2615d5efaf5f49f60b7bb6583eaec212fdf16117c6565b11156119715760008054600160a060020a03191673c03a2615d5efaf5f49f60b7bb6583eaec212fdf117905560408051808201909152600c81527f6574685f726f707374656e33000000000000000000000000000000000000000060208201526118e190611b80565b600061199073b7a07bcf2ba2f2703b24c0691b5278999c59ac7e6117c6565b11156119f95760008054600160a060020a03191673b7a07bcf2ba2f2703b24c0691b5278999c59ac7e17905560408051808201909152600981527f6574685f6b6f76616e000000000000000000000000000000000000000000000060208201526118e190611b80565b6000611a1873146500cfd35b22e4a392fe0adc06de1a1368ed486117c6565b1115611a815760008054600160a060020a03191673146500cfd35b22e4a392fe0adc06de1a1368ed4817905560408051808201909152600b81527f6574685f72696e6b65627900000000000000000000000000000000000000000060208201526118e190611b80565b6000611aa0736f485c8bf6fc43ea212e93bbf8ce046c7f1cb4756117c6565b1115611ad4575060008054600160a060020a031916736f485c8bf6fc43ea212e93bbf8ce046c7f1cb4751790556001610ef5565b6000611af37320e12a1f859b3feae5fb2a0a32c18f5a65555bbf6117c6565b1115611b27575060008054600160a060020a0319167320e12a1f859b3feae5fb2a0a32c18f5a65555bbf1790556001610ef5565b6000611b467351efaf4c8b3c9afbd5ab9f4bbc82784ab6ef8faa6117c6565b1115611b7a575060008054600160a060020a0319167351efaf4c8b3c9afbd5ab9f4bbc82784ab6ef8faa1790556001610ef5565b50600090565b8051610509906002906020840190611bbb565b60c0604051908101604052806006905b6060815260200190600190039081611ba35790505090565b828054600181600116156101000203166002900490600052602060002090601f016020900481019282601f10611bfc57805160ff1916838001178555611c29565b82800160010185558215611c29579182015b82811115611c29578251825591602001919060010190611c0e565b50611c35929150611c39565b5090565b610ef591905b80821115611c355760008155600101611c3f5600a165627a7a72305820a450f4babe13259a2a86f0dff0afee9721709b6c76dbc02890bccb66c32327340029",
  "source": "pragma solidity ^0.4.18;\n\n\nimport '../../ethereum-api/oraclizeAPI_0.5.sol';\nimport 'openzeppelin-solidity/contracts/ownership/HasNoEther.sol';\n\ninterface ManagerInterface {\n\n  function getAppId(\n    string _appNickname\n  )\n  external\n  constant returns (uint);\n\n\n  function setIdentity(\n    uint _appId,\n    address _address,\n    string _uid\n  )\n  external;\n\n}\n\n\n/**\n * @title OwnershipClaimer\n * @author Francesco Sullo <francesco@sullo.co>\n * @dev It allow user to self claim ownership of a supported web app account\n */\n\n\n\ncontract OwnershipClaimer\nis usingOraclize, HasNoEther\n{\n\n  string public fromVersion = \"1.0.0\";\n\n  string public apiUrl = \"https://api.tweedentity.net/\";\n\n  struct TempData {\n    address sender;\n    uint appId;\n  }\n\n  mapping(bytes32 => TempData) internal __tempData;\n\n  ManagerInterface public manager;\n  address public managerAddress;\n\n\n\n  //events\n\n\n  event ManagerSet(\n    address indexed manager\n  );\n\n\n  event VerificationStarted(\n    bytes32 oraclizeId,\n    address indexed addr,\n    string appNickname,\n    string postId\n  );\n\n\n  event VerificatioFailed(\n    bytes32 indexed oraclizeId\n  );\n\n  event RequirementPassed();\n\n  event ApiUrlBuilt();\n\n\n  // modifiers\n\n\n  modifier whenAppSet(\n    string _appNickname\n  ) {\n    require(manager.getAppId(_appNickname) > 0);\n    _;\n  }\n\n\n\n  // config\n\n\n  function setManager(\n    address _address\n  )\n  public\n  onlyOwner\n  {\n    require(_address != address(0));\n    managerAddress = _address;\n    manager = ManagerInterface(_address);\n    emit ManagerSet(_address);\n  }\n\n\n\n  // primary methods\n\n\n  /**\n   * @dev Allow a wallet to claim ownership of an account\n   * @param _appNickname Identifies the web app for the account\n   * @param _postId Id id of the post contains the signature\n   * @param _gasPrice The gas price for Oraclize\n   * @param _gasLimit The gas limit for Oraclize\n   */\n  function claimAccountOwnership(\n    string _appNickname,\n    string _postId,\n    uint _gasPrice,\n    uint _gasLimit\n  )\n  public\n  whenAppSet(_appNickname)\n  payable\n  {\n    require(bytes(_postId).length > 0);\n    require(msg.value >= _gasPrice * _gasLimit);\n\n    emit RequirementPassed();\n\n    oraclize_setCustomGasPrice(_gasPrice);\n\n    string[6] memory str;\n    str[0] = apiUrl;\n    str[1] = _appNickname;\n    str[2] = \"/\";\n    str[3] = _postId;\n    str[4] = \"/0x\";\n    str[5] = __addressToString(msg.sender);\n    string memory url = __concat(str);\n\n    emit ApiUrlBuilt();\n\n    bytes32 oraclizeID = oraclize_query(\n      \"URL\",\n      url,\n      _gasLimit\n    );\n    emit VerificationStarted(oraclizeID, msg.sender, _appNickname, _postId);\n    __tempData[oraclizeID] = TempData(msg.sender, manager.getAppId(_appNickname));\n  }\n\n\n  /**\n   * @dev Receive the call from Oraclize\n   * @param _oraclizeID The oraclize id\n   * @param _result The text resulting from requesting the url\n   */\n  function __callback(\n    bytes32 _oraclizeID,\n    string _result\n  )\n  public\n  {\n    require(msg.sender == oraclize_cbAddress());\n    if (bytes(_result).length > 0) {\n      manager.setIdentity(__tempData[_oraclizeID].appId, __tempData[_oraclizeID].sender, _result);\n    } else {\n      emit VerificatioFailed(_oraclizeID);\n    }\n  }\n\n\n\n  // private methods\n\n\n  function __addressToString(\n    address _address\n  )\n  internal\n  pure\n  returns (string)\n  {\n    bytes memory s = new bytes(40);\n    for (uint i = 0; i < 20; i++) {\n      byte b = byte(uint8(uint(_address) / (2 ** (8 * (19 - i)))));\n      byte hi = byte(uint8(b) / 16);\n      byte lo = byte(uint8(b) - 16 * uint8(hi));\n      s[2 * i] = __char(hi);\n      s[2 * i + 1] = __char(lo);\n    }\n    return string(s);\n  }\n\n\n  function __char(\n    byte b\n  )\n  internal\n  pure\n  returns (byte c)\n  {\n    if (b < 10) return byte(uint8(b) + 0x30);\n    else return byte(uint8(b) + 0x57);\n  }\n\n\n  function __concat(\n    string[6] _strings\n  )\n  internal\n  pure\n  returns (string)\n  {\n    uint len = 0;\n    uint i;\n    for (i = 0; i < _strings.length; i++) {\n      len = len + bytes(_strings[i]).length;\n    }\n    string memory str = new string(len);\n    bytes memory bstr = bytes(str);\n    uint k = 0;\n    uint j;\n    bytes memory b;\n    for (i = 0; i < _strings.length; i++) {\n      b = bytes(_strings[i]);\n      for (j = 0; j < b.length; j++) bstr[k++] = b[j];\n    }\n    return string(bstr);\n  }\n\n}\n",
  "sourcePath": "/Users/sullof/Projects/tweedentity-dapp/store/contracts/OwnershipClaimer.sol",
  "compiler": {
    "name": "solc",
    "version": "0.4.24+commit.e67f0147.Emscripten.clang"
  },
  "schemaVersion": "2.0.1",
  "updatedAt": "2018-07-02T23:40:22.808Z"
}