{
  "contractName": "OwnershipClaimer",
  "abi": [
    {
      "constant": true,
      "inputs": [],
      "name": "manager",
      "outputs": [
        {
          "name": "",
          "type": "address"
        }
      ],
      "payable": false,
      "stateMutability": "view",
      "type": "function"
    },
    {
      "constant": true,
      "inputs": [],
      "name": "fromVersion",
      "outputs": [
        {
          "name": "",
          "type": "string"
        }
      ],
      "payable": false,
      "stateMutability": "view",
      "type": "function"
    },
    {
      "constant": true,
      "inputs": [],
      "name": "apiUrl",
      "outputs": [
        {
          "name": "",
          "type": "string"
        }
      ],
      "payable": false,
      "stateMutability": "view",
      "type": "function"
    },
    {
      "constant": true,
      "inputs": [],
      "name": "owner",
      "outputs": [
        {
          "name": "",
          "type": "address"
        }
      ],
      "payable": false,
      "stateMutability": "view",
      "type": "function"
    },
    {
      "constant": false,
      "inputs": [],
      "name": "reclaimEther",
      "outputs": [],
      "payable": false,
      "stateMutability": "nonpayable",
      "type": "function"
    },
    {
      "constant": true,
      "inputs": [],
      "name": "managerAddress",
      "outputs": [
        {
          "name": "",
          "type": "address"
        }
      ],
      "payable": false,
      "stateMutability": "view",
      "type": "function"
    },
    {
      "constant": false,
      "inputs": [
        {
          "name": "newOwner",
          "type": "address"
        }
      ],
      "name": "transferOwnership",
      "outputs": [],
      "payable": false,
      "stateMutability": "nonpayable",
      "type": "function"
    },
    {
      "payable": false,
      "stateMutability": "nonpayable",
      "type": "fallback"
    },
    {
      "anonymous": false,
      "inputs": [
        {
          "indexed": true,
          "name": "manager",
          "type": "address"
        }
      ],
      "name": "ManagerSet",
      "type": "event"
    },
    {
      "anonymous": false,
      "inputs": [
        {
          "indexed": false,
          "name": "oraclizeId",
          "type": "bytes32"
        },
        {
          "indexed": true,
          "name": "addr",
          "type": "address"
        },
        {
          "indexed": false,
          "name": "appNickname",
          "type": "string"
        },
        {
          "indexed": false,
          "name": "postId",
          "type": "string"
        }
      ],
      "name": "VerificationStarted",
      "type": "event"
    },
    {
      "anonymous": false,
      "inputs": [
        {
          "indexed": true,
          "name": "oraclizeId",
          "type": "bytes32"
        }
      ],
      "name": "VerificatioFailed",
      "type": "event"
    },
    {
      "anonymous": false,
      "inputs": [
        {
          "indexed": true,
          "name": "previousOwner",
          "type": "address"
        },
        {
          "indexed": true,
          "name": "newOwner",
          "type": "address"
        }
      ],
      "name": "OwnershipTransferred",
      "type": "event"
    },
    {
      "constant": false,
      "inputs": [
        {
          "name": "_address",
          "type": "address"
        }
      ],
      "name": "setManager",
      "outputs": [],
      "payable": false,
      "stateMutability": "nonpayable",
      "type": "function"
    },
    {
      "constant": false,
      "inputs": [
        {
          "name": "_appNickname",
          "type": "string"
        },
        {
          "name": "_postId",
          "type": "string"
        },
        {
          "name": "_gasPrice",
          "type": "uint256"
        },
        {
          "name": "_gasLimit",
          "type": "uint256"
        }
      ],
      "name": "claimAccountOwnership",
      "outputs": [],
      "payable": true,
      "stateMutability": "payable",
      "type": "function"
    },
    {
      "constant": false,
      "inputs": [
        {
          "name": "_oraclizeID",
          "type": "bytes32"
        },
        {
          "name": "_result",
          "type": "string"
        }
      ],
      "name": "__callback",
      "outputs": [],
      "payable": false,
      "stateMutability": "nonpayable",
      "type": "function"
    },
    {
      "constant": false,
      "inputs": [
        {
          "name": "myid",
          "type": "bytes32"
        },
        {
          "name": "result",
          "type": "string"
        },
        {
          "name": "proof",
          "type": "bytes"
        }
      ],
      "name": "__callback",
      "outputs": [],
      "payable": false,
      "stateMutability": "nonpayable",
      "type": "function"
    }
  ],
  "bytecode": "0x606060405260408051908101604052600581527f312e302e30000000000000000000000000000000000000000000000000000000602082015260069080516200004d929160200190620000c5565b5060408051908101604052601c81527f68747470733a2f2f6170692e7477656564656e746974792e6e65742f000000006020820152600790805162000097929160200190620000c5565b5060058054600160a060020a03191633600160a060020a03161790553415620000bf57600080fd5b6200016a565b828054600181600116156101000203166002900490600052602060002090601f016020900481019282601f106200010857805160ff191683800117855562000138565b8280016001018555821562000138579182015b82811115620001385782518255916020019190600101906200011b565b50620001469291506200014a565b5090565b6200016791905b8082111562000146576000815560010162000151565b90565b611a0a806200017a6000396000f3006060604052600436106100955763ffffffff60e060020a60003504166327dc297e81146100a257806338bbfa50146100f8578063481c6a751461019057806355869af1146101bf5780637bbf2300146102495780638367e120146102d85780638da5cb5b146102eb5780639f727c27146102fe578063cf73a1bc14610311578063d0ebdbe714610324578063f2fde38b14610343575b34156100a057600080fd5b005b34156100ad57600080fd5b6100a0600480359060446024803590810190830135806020601f8201819004810201604051908101604052818152929190602084018383808284375094965061036295505050505050565b341561010357600080fd5b6100a0600480359060446024803590810190830135806020601f8201819004810201604051908101604052818152929190602084018383808284378201915050505050509190803590602001908201803590602001908080601f0160208091040260200160405190810160405281815292919060208401838380828437509496506104c095505050505050565b341561019b57600080fd5b6101a36104c5565b604051600160a060020a03909116815260200160405180910390f35b34156101ca57600080fd5b6101d26104d4565b60405160208082528190810183818151815260200191508051906020019080838360005b8381101561020e5780820151838201526020016101f6565b50505050905090810190601f16801561023b5780820380516001836020036101000a031916815260200191505b509250505060405180910390f35b6100a060046024813581810190830135806020601f8201819004810201604051908101604052818152929190602084018383808284378201915050505050509190803590602001908201803590602001908080601f0160208091040260200160405190810160405281815292919060208401838380828437509496505084359460200135935061057292505050565b34156102e357600080fd5b6101d2610a4a565b34156102f657600080fd5b6101a3610ab5565b341561030957600080fd5b6100a0610ac4565b341561031c57600080fd5b6101a3610b17565b341561032f57600080fd5b6100a0600160a060020a0360043516610b26565b341561034e57600080fd5b6100a0600160a060020a0360043516610baf565b61036a610c3d565b600160a060020a031633600160a060020a031614151561038957600080fd5b60008151111561048e576009546000838152600860205260409081902060018101549054600160a060020a039384169363b2b5be099391169085905160e060020a63ffffffff861602815260048101848152600160a060020a0384166024830152606060448301908152909160640183818151815260200191508051906020019080838360005b83811015610428578082015183820152602001610410565b50505050905090810190601f1680156104555780820380516001836020036101000a031916815260200191505b50945050505050600060405180830381600087803b151561047557600080fd5b6102c65a03f1151561048657600080fd5b5050506104bc565b817fea3ae050e46978d1dfdae72b67e087e0358002dcd98d24be5a1235300652655f60405160405180910390a25b5050565b505050565b600954600160a060020a031681565b60068054600181600116156101000203166002900480601f01602080910402602001604051908101604052809291908181526020018280546001816001161561010002031660029004801561056a5780601f1061053f5761010080835404028352916020019161056a565b820191906000526020600020905b81548152906001019060200180831161054d57829003601f168201915b505050505081565b61057a611907565b60095460009086908290600160a060020a031663ad0b38a28383604051602001526040518263ffffffff1660e060020a0281526004018080602001828103825283818151815260200191508051906020019080838360005b838110156105ea5780820151838201526020016105d2565b50505050905090810190601f1680156106175780820380516001836020036101000a031916815260200191505b5092505050602060405180830381600087803b151561063557600080fd5b6102c65a03f1151561064657600080fd5b5050506040518051905011151561065c57600080fd5b600086511161066a57600080fd5b84840234101561067957600080fd5b61068285610dde565b60078054600181600116156101000203166002900480601f0160208091040260200160405190810160405280929190818152602001828054600181600116156101000203166002900480156107185780601f106106ed57610100808354040283529160200191610718565b820191906000526020600020905b8154815290600101906020018083116106fb57829003601f168201915b5087935060009250610728915050565b602002015286836001602002015260408051908101604052600181527f2f000000000000000000000000000000000000000000000000000000000000006020820152836002602002015285836003602002015260408051908101604052600381527f2f30780000000000000000000000000000000000000000000000000000000000602082015260808401526107bd33610f75565b60a084015261080860408051908101604052600381527f55524c0000000000000000000000000000000000000000000000000000000000602082015261080285611099565b866111b8565b915033600160a060020a03167f32fbf8d3f90c050c8364505faa222b4c8b3e6829b596fa4ad20ecd72ec97c063838989604051838152606060208201818152906040830190830185818151815260200191508051906020019080838360005b8381101561087f578082015183820152602001610867565b50505050905090810190601f1680156108ac5780820380516001836020036101000a031916815260200191505b50838103825284818151815260200191508051906020019080838360005b838110156108e25780820151838201526020016108ca565b50505050905090810190601f16801561090f5780820380516001836020036101000a031916815260200191505b509550505050505060405180910390a2604080519081016040908152600160a060020a033381168352600954602084019291169063ad0b38a2908b9060009051602001526040518263ffffffff1660e060020a0281526004018080602001828103825283818151815260200191508051906020019080838360005b838110156109a257808201518382015260200161098a565b50505050905090810190601f1680156109cf5780820380516001836020036101000a031916815260200191505b5092505050602060405180830381600087803b15156109ed57600080fd5b6102c65a03f115156109fe57600080fd5b505050604051805190915250600083815260086020526040902081518154600160a060020a031916600160a060020a039190911617815560208201516001909101555050505050505050565b60078054600181600116156101000203166002900480601f01602080910402602001604051908101604052809291908181526020018280546001816001161561010002031660029004801561056a5780601f1061053f5761010080835404028352916020019161056a565b600554600160a060020a031681565b60055433600160a060020a03908116911614610adf57600080fd5b600554600160a060020a039081169030163180156108fc0290604051600060405180830381858888f193505050501515610b1557fe5b565b600a54600160a060020a031681565b60055433600160a060020a03908116911614610b4157600080fd5b600160a060020a0381161515610b5657600080fd5b600a8054600160a060020a038316600160a060020a0319918216811790925560098054909116821790557f60a0f5b9f9e81e98216071b85826681c796256fe3d1354ecb675580fba64fa6960405160405180910390a250565b60055433600160a060020a03908116911614610bca57600080fd5b600160a060020a0381161515610bdf57600080fd5b600554600160a060020a0380831691167f8be0079c531659141344cd1fd0a4f28419497f9722a3daafe3b4186f6b6457e060405160405180910390a360058054600160a060020a031916600160a060020a0392909216919091179055565b60008054600160a060020a03161580610c685750600054610c6690600160a060020a031661153e565b155b15610c7957610c776000611542565b505b60008054600160a060020a0316906338cc483190604051602001526040518163ffffffff1660e060020a028152600401602060405180830381600087803b1515610cc257600080fd5b6102c65a03f11515610cd357600080fd5b5050506040518051600154600160a060020a039081169116149050610d765760008054600160a060020a0316906338cc483190604051602001526040518163ffffffff1660e060020a028152600401602060405180830381600087803b1515610d3b57600080fd5b6102c65a03f11515610d4c57600080fd5b505050604051805160018054600160a060020a031916600160a060020a0392909216919091179055505b600154600160a060020a031663c281d19e6000604051602001526040518163ffffffff1660e060020a028152600401602060405180830381600087803b1515610dbe57600080fd5b6102c65a03f11515610dcf57600080fd5b50505060405180519150505b90565b600054600160a060020a03161580610e085750600054610e0690600160a060020a031661153e565b155b15610e1957610e176000611542565b505b60008054600160a060020a0316906338cc483190604051602001526040518163ffffffff1660e060020a028152600401602060405180830381600087803b1515610e6257600080fd5b6102c65a03f11515610e7357600080fd5b5050506040518051600154600160a060020a039081169116149050610f165760008054600160a060020a0316906338cc483190604051602001526040518163ffffffff1660e060020a028152600401602060405180830381600087803b1515610edb57600080fd5b6102c65a03f11515610eec57600080fd5b505050604051805160018054600160a060020a031916600160a060020a0392909216919091179055505b600154600160a060020a031663ca6ad1e48260405160e060020a63ffffffff84160281526004810191909152602401600060405180830381600087803b1515610f5e57600080fd5b6102c65a03f11515610f6f57600080fd5b50505050565b610f7d611934565b610f85611934565b6000806000806028604051805910610f9a5750595b818152601f19601f830116810160200160405290509450600093505b601484101561108e578360130360080260020a87600160a060020a0316811515610fdc57fe5b0460f860020a02925060108360f860020a900460ff16811515610ffb57fe5b0460f860020a0291508160f860020a90046010028360f860020a90040360f860020a02905061102982611554565b85856002028151811061103857fe5b906020010190600160f860020a031916908160001a90535061105981611554565b85856002026001018151811061106b57fe5b906020010190600160f860020a031916908160001a905350600190930192610fb6565b509295945050505050565b6110a1611934565b6000806110ac611934565b6110b4611934565b6000806110bf611934565b60009650600095505b60068610156110f2578886600681106110dd57fe5b602002015151909601956001909501946110c8565b866040518059106111005750595b818152601f19601f83011681016020016040529050945084935060009250600095505b60068610156111ab5788866006811061113857fe5b60200201519050600091505b80518210156111a05780828151811061115957fe5b016020015160f860020a900460f860020a0284848060010195508151811061117d57fe5b906020010190600160f860020a031916908160001a905350600190910190611144565b600190950194611123565b5091979650505050505050565b600080548190600160a060020a031615806111e557506000546111e390600160a060020a031661153e565b155b156111f6576111f46000611542565b505b60008054600160a060020a0316906338cc483190604051602001526040518163ffffffff1660e060020a028152600401602060405180830381600087803b151561123f57600080fd5b6102c65a03f1151561125057600080fd5b5050506040518051600154600160a060020a0390811691161490506112f35760008054600160a060020a0316906338cc483190604051602001526040518163ffffffff1660e060020a028152600401602060405180830381600087803b15156112b857600080fd5b6102c65a03f115156112c957600080fd5b505050604051805160018054600160a060020a031916600160a060020a0392909216919091179055505b600154600160a060020a0316632ef3accc86856000604051602001526040518363ffffffff1660e060020a0281526004018080602001838152602001828103825284818151815260200191508051906020019080838360005b8381101561136457808201518382015260200161134c565b50505050905090810190601f1680156113915780820380516001836020036101000a031916815260200191505b509350505050602060405180830381600087803b15156113b057600080fd5b6102c65a03f115156113c157600080fd5b5050506040518051915050670de0b6b3a76400003a8402018111156113e95760009150611536565b600154600160a060020a031663c51be90f82600088888883604051602001526040518663ffffffff1660e060020a028152600401808581526020018060200180602001848152602001838103835286818151815260200191508051906020019080838360005b8381101561146757808201518382015260200161144f565b50505050905090810190601f1680156114945780820380516001836020036101000a031916815260200191505b50838103825285818151815260200191508051906020019080838360005b838110156114ca5780820151838201526020016114b2565b50505050905090810190601f1680156114f75780820380516001836020036101000a031916815260200191505b5096505050505050506020604051808303818588803b151561151857600080fd5b6125ee5a03f1151561152957600080fd5b5050505060405180519250505b509392505050565b3b90565b600061154c6115d0565b90505b919050565b60007f0a000000000000000000000000000000000000000000000000000000000000007fff00000000000000000000000000000000000000000000000000000000000000831610156115b8578160f860020a900460300160f860020a02905061154f565b8160f860020a900460570160f860020a02905061154f565b6000806115f0731d3b2638a7cc9f2cb3d298a3da7a90b67e5506ed61153e565b11156116605760008054600160a060020a031916731d3b2638a7cc9f2cb3d298a3da7a90b67e5506ed17905561165860408051908101604052600b81527f6574685f6d61696e6e657400000000000000000000000000000000000000000060208201526118f4565b506001610ddb565b600061167f73c03a2615d5efaf5f49f60b7bb6583eaec212fdf161153e565b11156116e75760008054600160a060020a03191673c03a2615d5efaf5f49f60b7bb6583eaec212fdf117905561165860408051908101604052600c81527f6574685f726f707374656e33000000000000000000000000000000000000000060208201526118f4565b600061170673b7a07bcf2ba2f2703b24c0691b5278999c59ac7e61153e565b111561176e5760008054600160a060020a03191673b7a07bcf2ba2f2703b24c0691b5278999c59ac7e17905561165860408051908101604052600981527f6574685f6b6f76616e000000000000000000000000000000000000000000000060208201526118f4565b600061178d73146500cfd35b22e4a392fe0adc06de1a1368ed4861153e565b11156117f55760008054600160a060020a03191673146500cfd35b22e4a392fe0adc06de1a1368ed4817905561165860408051908101604052600b81527f6574685f72696e6b65627900000000000000000000000000000000000000000060208201526118f4565b6000611814736f485c8bf6fc43ea212e93bbf8ce046c7f1cb47561153e565b1115611848575060008054600160a060020a031916736f485c8bf6fc43ea212e93bbf8ce046c7f1cb4751790556001610ddb565b60006118677320e12a1f859b3feae5fb2a0a32c18f5a65555bbf61153e565b111561189b575060008054600160a060020a0319167320e12a1f859b3feae5fb2a0a32c18f5a65555bbf1790556001610ddb565b60006118ba7351efaf4c8b3c9afbd5ab9f4bbc82784ab6ef8faa61153e565b11156118ee575060008054600160a060020a0319167351efaf4c8b3c9afbd5ab9f4bbc82784ab6ef8faa1790556001610ddb565b50600090565b60028180516104bc929160200190611946565b60c06040519081016040526006815b61191e611934565b8152602001906001900390816119165790505090565b60206040519081016040526000815290565b828054600181600116156101000203166002900490600052602060002090601f016020900481019282601f1061198757805160ff19168380011785556119b4565b828001600101855582156119b4579182015b828111156119b4578251825591602001919060010190611999565b506119c09291506119c4565b5090565b610ddb91905b808211156119c057600081556001016119ca5600a165627a7a72305820c01c1fce746c2278c1017692cf1cdf7651f4dbe7469e121341386796791f7b8e0029",
  "source": "pragma solidity ^0.4.18;\n\n\nimport '../../ethereum-api/oraclizeAPI_0.5.sol';\nimport 'openzeppelin-solidity/contracts/ownership/HasNoEther.sol';\n\ninterface ManagerInterface {\n\n  function getAppId(\n    string _appNickname\n  )\n  external\n  constant returns (uint);\n\n\n  function setIdentity(\n    uint _appId,\n    address _address,\n    string _uid\n  )\n  external;\n\n}\n\n\n/**\n * @title OwnershipClaimer\n * @author Francesco Sullo <francesco@sullo.co>\n * @dev It allow user to self claim ownership of a supported web app account\n */\n\n\n\ncontract OwnershipClaimer\nis usingOraclize, HasNoEther\n{\n\n  string public fromVersion = \"1.0.0\";\n\n  string public apiUrl = \"https://api.tweedentity.net/\";\n\n  struct TempData {\n    address sender;\n    uint appId;\n  }\n\n  mapping(bytes32 => TempData) internal __tempData;\n\n  ManagerInterface public manager;\n  address public managerAddress;\n\n\n\n  //events\n\n\n  event ManagerSet(\n    address indexed manager\n  );\n\n\n  event VerificationStarted(\n    bytes32 oraclizeId,\n    address indexed addr,\n    string appNickname,\n    string postId\n  );\n\n\n  event VerificatioFailed(\n    bytes32 indexed oraclizeId\n  );\n\n\n\n  // modifiers\n\n\n  modifier whenAppSet(\n    string _appNickname\n  ) {\n    require(manager.getAppId(_appNickname) > 0);\n    _;\n  }\n\n\n\n  // config\n\n\n  function setManager(\n    address _address\n  )\n  public\n  onlyOwner\n  {\n    require(_address != address(0));\n    managerAddress = _address;\n    manager = ManagerInterface(_address);\n    ManagerSet(_address);\n  }\n\n\n\n  // primary methods\n\n\n  /**\n   * @dev Allow a wallet to claim ownership of an account\n   * @param _appNickname Identifies the web app for the account\n   * @param _postId Id id of the post contains the signature\n   * @param _gasPrice The gas price for Oraclize\n   * @param _gasLimit The gas limit for Oraclize\n   */\n  function claimAccountOwnership(\n    string _appNickname,\n    string _postId,\n    uint _gasPrice,\n    uint _gasLimit\n  )\n  public\n  whenAppSet(_appNickname)\n  payable\n  {\n    require(bytes(_postId).length > 0);\n    require(msg.value >= _gasPrice * _gasLimit);\n\n    oraclize_setCustomGasPrice(_gasPrice);\n\n    string[6] memory str;\n    str[0] = apiUrl;\n    str[1] = _appNickname;\n    str[2] = \"/\";\n    str[3] = _postId;\n    str[4] = \"/0x\";\n    str[5] = __addressToString(msg.sender);\n\n    bytes32 oraclizeID = oraclize_query(\n      \"URL\",\n      __concat(str),\n      _gasLimit\n    );\n    VerificationStarted(oraclizeID, msg.sender, _appNickname, _postId);\n    __tempData[oraclizeID] = TempData(msg.sender, manager.getAppId(_appNickname));\n  }\n\n\n  /**\n   * @dev Receive the call from Oraclize\n   * @param _oraclizeID The oraclize id\n   * @param _result The text resulting from requesting the url\n   */\n  function __callback(\n    bytes32 _oraclizeID,\n    string _result\n  )\n  public\n  {\n    require(msg.sender == oraclize_cbAddress());\n    if (bytes(_result).length > 0) {\n      manager.setIdentity(__tempData[_oraclizeID].appId, __tempData[_oraclizeID].sender, _result);\n    } else {\n      VerificatioFailed(_oraclizeID);\n    }\n  }\n\n\n\n  // private methods\n\n\n  function __addressToString(\n    address _address\n  )\n  internal\n  pure\n  returns (string)\n  {\n    bytes memory s = new bytes(40);\n    for (uint i = 0; i < 20; i++) {\n      byte b = byte(uint8(uint(_address) / (2 ** (8 * (19 - i)))));\n      byte hi = byte(uint8(b) / 16);\n      byte lo = byte(uint8(b) - 16 * uint8(hi));\n      s[2 * i] = __char(hi);\n      s[2 * i + 1] = __char(lo);\n    }\n    return string(s);\n  }\n\n\n  function __char(\n    byte b\n  )\n  internal\n  pure\n  returns (byte c)\n  {\n    if (b < 10) return byte(uint8(b) + 0x30);\n    else return byte(uint8(b) + 0x57);\n  }\n\n\n  function __concat(\n    string[6] _strings\n  )\n  internal\n  pure\n  returns (string)\n  {\n    uint len = 0;\n    uint i;\n    for (i = 0; i < _strings.length; i++) {\n      len = len + bytes(_strings[i]).length;\n    }\n    string memory str = new string(len);\n    bytes memory bstr = bytes(str);\n    uint k = 0;\n    uint j;\n    bytes memory b;\n    for (i = 0; i < _strings.length; i++) {\n      b = bytes(_strings[i]);\n      for (j = 0; j < b.length; j++) bstr[k++] = b[j];\n    }\n    return string(bstr);\n  }\n\n}\n",
  "sourcePath": "/Users/sullof/Projects/tweedentity-dapp/store/contracts/OwnershipClaimer.sol",
  "compiler": {
    "name": "solc",
    "version": "0.4.19+commit.c4cbbb05.Emscripten.clang"
  },
  "schemaVersion": "2.0.0",
  "updatedAt": "2018-06-29T03:01:16.923Z"
}