{
  "contractName": "StoreManager",
  "abi": [
    {
      "constant": true,
      "inputs": [],
      "name": "notUpgradableInStore",
      "outputs": [
        {
          "name": "",
          "type": "uint256"
        }
      ],
      "payable": false,
      "stateMutability": "view",
      "type": "function"
    },
    {
      "constant": true,
      "inputs": [],
      "name": "totalStores",
      "outputs": [
        {
          "name": "",
          "type": "uint256"
        }
      ],
      "payable": false,
      "stateMutability": "view",
      "type": "function"
    },
    {
      "constant": true,
      "inputs": [],
      "name": "addressNotUpgradable",
      "outputs": [
        {
          "name": "",
          "type": "uint256"
        }
      ],
      "payable": false,
      "stateMutability": "view",
      "type": "function"
    },
    {
      "constant": false,
      "inputs": [],
      "name": "unpause",
      "outputs": [],
      "payable": false,
      "stateMutability": "nonpayable",
      "type": "function"
    },
    {
      "constant": true,
      "inputs": [
        {
          "name": "",
          "type": "address"
        }
      ],
      "name": "customerService",
      "outputs": [
        {
          "name": "",
          "type": "bool"
        }
      ],
      "payable": false,
      "stateMutability": "view",
      "type": "function"
    },
    {
      "constant": true,
      "inputs": [],
      "name": "minimumTimeBeforeUpdate",
      "outputs": [
        {
          "name": "",
          "type": "uint256"
        }
      ],
      "payable": false,
      "stateMutability": "view",
      "type": "function"
    },
    {
      "constant": true,
      "inputs": [],
      "name": "fromVersion",
      "outputs": [
        {
          "name": "",
          "type": "string"
        }
      ],
      "payable": false,
      "stateMutability": "view",
      "type": "function"
    },
    {
      "constant": true,
      "inputs": [],
      "name": "paused",
      "outputs": [
        {
          "name": "",
          "type": "bool"
        }
      ],
      "payable": false,
      "stateMutability": "view",
      "type": "function"
    },
    {
      "constant": false,
      "inputs": [],
      "name": "renounceOwnership",
      "outputs": [],
      "payable": false,
      "stateMutability": "nonpayable",
      "type": "function"
    },
    {
      "constant": false,
      "inputs": [],
      "name": "pause",
      "outputs": [],
      "payable": false,
      "stateMutability": "nonpayable",
      "type": "function"
    },
    {
      "constant": true,
      "inputs": [],
      "name": "owner",
      "outputs": [
        {
          "name": "",
          "type": "address"
        }
      ],
      "payable": false,
      "stateMutability": "view",
      "type": "function"
    },
    {
      "constant": false,
      "inputs": [],
      "name": "reclaimEther",
      "outputs": [],
      "payable": false,
      "stateMutability": "nonpayable",
      "type": "function"
    },
    {
      "constant": true,
      "inputs": [
        {
          "name": "",
          "type": "uint256"
        }
      ],
      "name": "appNicknames32",
      "outputs": [
        {
          "name": "",
          "type": "bytes32"
        }
      ],
      "payable": false,
      "stateMutability": "view",
      "type": "function"
    },
    {
      "constant": true,
      "inputs": [],
      "name": "claimer",
      "outputs": [
        {
          "name": "",
          "type": "address"
        }
      ],
      "payable": false,
      "stateMutability": "view",
      "type": "function"
    },
    {
      "constant": true,
      "inputs": [],
      "name": "newClaimer",
      "outputs": [
        {
          "name": "",
          "type": "address"
        }
      ],
      "payable": false,
      "stateMutability": "view",
      "type": "function"
    },
    {
      "constant": false,
      "inputs": [
        {
          "name": "_newOwner",
          "type": "address"
        }
      ],
      "name": "transferOwnership",
      "outputs": [],
      "payable": false,
      "stateMutability": "nonpayable",
      "type": "function"
    },
    {
      "constant": true,
      "inputs": [],
      "name": "upgradable",
      "outputs": [
        {
          "name": "",
          "type": "uint256"
        }
      ],
      "payable": false,
      "stateMutability": "view",
      "type": "function"
    },
    {
      "constant": true,
      "inputs": [
        {
          "name": "",
          "type": "uint256"
        }
      ],
      "name": "appNicknames",
      "outputs": [
        {
          "name": "",
          "type": "string"
        }
      ],
      "payable": false,
      "stateMutability": "view",
      "type": "function"
    },
    {
      "payable": false,
      "stateMutability": "nonpayable",
      "type": "fallback"
    },
    {
      "anonymous": false,
      "inputs": [
        {
          "indexed": false,
          "name": "appNickname",
          "type": "string"
        },
        {
          "indexed": true,
          "name": "addr",
          "type": "address"
        }
      ],
      "name": "StoreSet",
      "type": "event"
    },
    {
      "anonymous": false,
      "inputs": [
        {
          "indexed": true,
          "name": "claimer",
          "type": "address"
        },
        {
          "indexed": false,
          "name": "isNew",
          "type": "bool"
        }
      ],
      "name": "ClaimerSet",
      "type": "event"
    },
    {
      "anonymous": false,
      "inputs": [
        {
          "indexed": false,
          "name": "appNickname",
          "type": "string"
        },
        {
          "indexed": true,
          "name": "store",
          "type": "address"
        },
        {
          "indexed": false,
          "name": "active",
          "type": "bool"
        }
      ],
      "name": "StoreActive",
      "type": "event"
    },
    {
      "anonymous": false,
      "inputs": [
        {
          "indexed": true,
          "name": "oldClaimer",
          "type": "address"
        },
        {
          "indexed": true,
          "name": "newClaimer",
          "type": "address"
        }
      ],
      "name": "ClaimerSwitch",
      "type": "event"
    },
    {
      "anonymous": false,
      "inputs": [
        {
          "indexed": true,
          "name": "addr",
          "type": "address"
        }
      ],
      "name": "CustomerServiceSet",
      "type": "event"
    },
    {
      "anonymous": false,
      "inputs": [
        {
          "indexed": false,
          "name": "appNickname",
          "type": "string"
        },
        {
          "indexed": true,
          "name": "addr",
          "type": "address"
        },
        {
          "indexed": false,
          "name": "uid",
          "type": "string"
        }
      ],
      "name": "IdentityNotUpgradable",
      "type": "event"
    },
    {
      "anonymous": false,
      "inputs": [
        {
          "indexed": false,
          "name": "_newMinimumTime",
          "type": "uint256"
        }
      ],
      "name": "MinimumTimeBeforeUpdateChanged",
      "type": "event"
    },
    {
      "anonymous": false,
      "inputs": [],
      "name": "Pause",
      "type": "event"
    },
    {
      "anonymous": false,
      "inputs": [],
      "name": "Unpause",
      "type": "event"
    },
    {
      "anonymous": false,
      "inputs": [
        {
          "indexed": true,
          "name": "previousOwner",
          "type": "address"
        }
      ],
      "name": "OwnershipRenounced",
      "type": "event"
    },
    {
      "anonymous": false,
      "inputs": [
        {
          "indexed": true,
          "name": "previousOwner",
          "type": "address"
        },
        {
          "indexed": true,
          "name": "newOwner",
          "type": "address"
        }
      ],
      "name": "OwnershipTransferred",
      "type": "event"
    },
    {
      "constant": false,
      "inputs": [
        {
          "name": "_appNickname",
          "type": "string"
        },
        {
          "name": "_address",
          "type": "address"
        }
      ],
      "name": "setAStore",
      "outputs": [],
      "payable": false,
      "stateMutability": "nonpayable",
      "type": "function"
    },
    {
      "constant": false,
      "inputs": [
        {
          "name": "_address",
          "type": "address"
        }
      ],
      "name": "setClaimer",
      "outputs": [],
      "payable": false,
      "stateMutability": "nonpayable",
      "type": "function"
    },
    {
      "constant": false,
      "inputs": [
        {
          "name": "_address",
          "type": "address"
        }
      ],
      "name": "setNewClaimer",
      "outputs": [],
      "payable": false,
      "stateMutability": "nonpayable",
      "type": "function"
    },
    {
      "constant": false,
      "inputs": [],
      "name": "switchClaimerAndRemoveOldOne",
      "outputs": [],
      "payable": false,
      "stateMutability": "nonpayable",
      "type": "function"
    },
    {
      "constant": false,
      "inputs": [
        {
          "name": "_address",
          "type": "address"
        },
        {
          "name": "_status",
          "type": "bool"
        }
      ],
      "name": "setCustomerService",
      "outputs": [],
      "payable": false,
      "stateMutability": "nonpayable",
      "type": "function"
    },
    {
      "constant": false,
      "inputs": [
        {
          "name": "_appNickname",
          "type": "string"
        },
        {
          "name": "_active",
          "type": "bool"
        }
      ],
      "name": "activateStore",
      "outputs": [],
      "payable": false,
      "stateMutability": "nonpayable",
      "type": "function"
    },
    {
      "constant": true,
      "inputs": [
        {
          "name": "_appNickname",
          "type": "string"
        }
      ],
      "name": "getAppId",
      "outputs": [
        {
          "name": "",
          "type": "uint256"
        }
      ],
      "payable": false,
      "stateMutability": "view",
      "type": "function"
    },
    {
      "constant": true,
      "inputs": [
        {
          "name": "_appNickname",
          "type": "string"
        }
      ],
      "name": "isStoreSet",
      "outputs": [
        {
          "name": "",
          "type": "bool"
        }
      ],
      "payable": false,
      "stateMutability": "view",
      "type": "function"
    },
    {
      "constant": true,
      "inputs": [
        {
          "name": "_appId",
          "type": "uint256"
        }
      ],
      "name": "isStoreActive",
      "outputs": [
        {
          "name": "",
          "type": "bool"
        }
      ],
      "payable": false,
      "stateMutability": "view",
      "type": "function"
    },
    {
      "constant": true,
      "inputs": [
        {
          "name": "_appId",
          "type": "uint256"
        },
        {
          "name": "_address",
          "type": "address"
        },
        {
          "name": "_uid",
          "type": "string"
        }
      ],
      "name": "getUpgradability",
      "outputs": [
        {
          "name": "",
          "type": "uint256"
        }
      ],
      "payable": false,
      "stateMutability": "view",
      "type": "function"
    },
    {
      "constant": true,
      "inputs": [
        {
          "name": "_appNickname",
          "type": "string"
        }
      ],
      "name": "getStoreAddress",
      "outputs": [
        {
          "name": "",
          "type": "address"
        }
      ],
      "payable": false,
      "stateMutability": "view",
      "type": "function"
    },
    {
      "constant": true,
      "inputs": [
        {
          "name": "_appId",
          "type": "uint256"
        }
      ],
      "name": "getStoreAddressById",
      "outputs": [
        {
          "name": "",
          "type": "address"
        }
      ],
      "payable": false,
      "stateMutability": "view",
      "type": "function"
    },
    {
      "constant": true,
      "inputs": [],
      "name": "getCustomerServiceAddress",
      "outputs": [
        {
          "name": "",
          "type": "address[]"
        }
      ],
      "payable": false,
      "stateMutability": "view",
      "type": "function"
    },
    {
      "constant": false,
      "inputs": [
        {
          "name": "_appId",
          "type": "uint256"
        },
        {
          "name": "_address",
          "type": "address"
        },
        {
          "name": "_uid",
          "type": "string"
        }
      ],
      "name": "setIdentity",
      "outputs": [],
      "payable": false,
      "stateMutability": "nonpayable",
      "type": "function"
    },
    {
      "constant": false,
      "inputs": [
        {
          "name": "_appId",
          "type": "uint256"
        },
        {
          "name": "_address",
          "type": "address"
        }
      ],
      "name": "unsetIdentity",
      "outputs": [],
      "payable": false,
      "stateMutability": "nonpayable",
      "type": "function"
    },
    {
      "constant": false,
      "inputs": [
        {
          "name": "_appId",
          "type": "uint256"
        }
      ],
      "name": "unsetMyIdentity",
      "outputs": [],
      "payable": false,
      "stateMutability": "nonpayable",
      "type": "function"
    },
    {
      "constant": false,
      "inputs": [
        {
          "name": "_newMinimumTime",
          "type": "uint256"
        }
      ],
      "name": "changeMinimumTimeBeforeUpdate",
      "outputs": [],
      "payable": false,
      "stateMutability": "nonpayable",
      "type": "function"
    }
  ],
  "bytecode": "0x6000805460a060020a60ff021916905560c0604052600560808190527f312e302e3000000000000000000000000000000000000000000000000000000060a09081526200005091600191906200008a565b506000600b8190556001600c556002600d55610e10600e558054600160a060020a0319163317905534156200008457600080fd5b6200012f565b828054600181600116156101000203166002900490600052602060002090601f016020900481019282601f10620000cd57805160ff1916838001178555620000fd565b82800160010185558215620000fd579182015b82811115620000fd578251825591602001919060010190620000e0565b506200010b9291506200010f565b5090565b6200012c91905b808211156200010b576000815560010162000116565b90565b611e46806200013f6000396000f30060806040526004361061019d5763ffffffff60e060020a6000350416631343ed0581146101ac57806313754f9a1461021957806315f063f7146102405780631921d11714610255578063340e47f81461027b57806339e31ceb146102d85780633f4ba83a146102ed5780633ff285d9146103025780635148de8d14610323578063543a9ce41461033857806355869af11461039c578063558f285f146104265780635854be3c1461043e5780635b8242081461045f5780635c975abb1461047757806365ef7b951461048c578063715018a6146104c05780638456cb59146104d557806386321f95146104ea5780638cc60a61146104ff5780638da5cb5b1461051757806396d122ea1461052c5780639deb1c5c1461054c5780639f727c2714610572578063ad0b38a214610587578063b2b5be09146105a7578063ba9862de146105d8578063c6199b6d146105f0578063cdfb583214610655578063d379be2314610676578063d92fb5e91461068b578063d9420a86146106a0578063f2fde38b146106d1578063f4d26fec146106f2578063ff89008614610707575b3480156101a957600080fd5b50005b3480156101b857600080fd5b506040805160206004803580820135601f810184900484028501840190955284845261020594369492936024939284019190819084018382808284375094975061071f9650505050505050565b604080519115158252519081900360200190f35b34801561022557600080fd5b5061022e610789565b60408051918252519081900360200190f35b34801561024c57600080fd5b5061022e61078f565b34801561026157600080fd5b50610279600435600160a060020a0360243516610795565b005b34801561028757600080fd5b506040805160206004803580820135601f8101849004840285018401909552848452610279943694929360249392840191908190840183828082843750949750505050913515159250610885915050565b3480156102e457600080fd5b5061022e610a70565b3480156102f957600080fd5b50610279610a76565b34801561030e57600080fd5b50610205600160a060020a0360043516610aec565b34801561032f57600080fd5b5061022e610b01565b34801561034457600080fd5b506040805160206004803580820135601f810184900484028501840190955284845261027994369492936024939284019190819084018382808284375094975050509235600160a060020a03169350610b0792505050565b3480156103a857600080fd5b506103b1610f7a565b6040805160208082528351818301528351919283929083019185019080838360005b838110156103eb5781810151838201526020016103d3565b50505050905090810190601f1680156104185780820380516001836020036101000a031916815260200191505b509250505060405180910390f35b34801561043257600080fd5b50610279600435611007565b34801561044a57600080fd5b50610279600160a060020a03600435166110c4565b34801561046b57600080fd5b5061027960043561115e565b34801561048357600080fd5b506102056111b0565b34801561049857600080fd5b506104a46004356111c0565b60408051600160a060020a039092168252519081900360200190f35b3480156104cc57600080fd5b506102796111de565b3480156104e157600080fd5b5061027961123d565b3480156104f657600080fd5b506102796112b8565b34801561050b57600080fd5b5061020560043561134c565b34801561052357600080fd5b506104a461136b565b34801561053857600080fd5b506104a4600480356024810191013561137a565b34801561055857600080fd5b50610279600160a060020a036004351660243515156113c9565b34801561057e57600080fd5b506102796114fa565b34801561059357600080fd5b5061022e600480356024810191013561154f565b3480156105b357600080fd5b50610279600480359060248035600160a060020a03169160443591820191013561157e565b3480156105e457600080fd5b5061022e600435611899565b3480156105fc57600080fd5b506106056118ab565b60408051602080825283518183015283519192839290830191858101910280838360005b83811015610641578181015183820152602001610629565b505050509050019250505060405180910390f35b34801561066157600080fd5b50610279600160a060020a036004351661190e565b34801561068257600080fd5b506104a4611990565b34801561069757600080fd5b506104a461199f565b3480156106ac57600080fd5b5061022e600480359060248035600160a060020a0316916044359182019101356119ae565b3480156106dd57600080fd5b50610279600160a060020a0360043516611a9e565b3480156106fe57600080fd5b5061022e611abe565b34801561071357600080fd5b506103b1600435611ac4565b60006006826040518082805190602001908083835b602083106107535780518252601f199092019160209182019101610734565b51815160209384036101000a60001901801990921691161790529201948552506040519384900301909220541515949350505050565b600c5481565b60035481565b60008054600160a060020a03163314806107c357503360009081526009602052604090205460ff1615156001145b15156107ce57600080fd5b600083815260046020526040902054839015156107ea57600080fd5b60005460a060020a900460ff161561080157600080fd5b61080a84611b2c565b915081600160a060020a03166328faf217846040518263ffffffff1660e060020a0281526004018082600160a060020a0316600160a060020a03168152602001915050600060405180830381600087803b15801561086757600080fd5b505af115801561087b573d6000803e3d6000fd5b5050505050505050565b60008054600160a060020a0316331461089d57600080fd5b6006836040518082805190602001908083835b602083106108cf5780518252601f1990920191602091820191016108b0565b51815160209384036101000a600019018019909216911617905292019485525060408051948590038201909420546000818152600290925293902060010154929350505082151560a060020a90910460ff161515141561092e57600080fd5b60408051606080820183526000848152600260208181528583208054600160a060020a038082168852600183018054808316868b019081528d15158b8d018181528e8b529888529a51600160a060020a03199586169085161790955593519551929093169481169490941774ff0000000000000000000000000000000000000000191660a060020a911515919091021790819055865180830196909652868652895196860196909652885195909116947fe8c0136ee13ab4d445c28a306e9c668a98b69e6ba5dd67e2056a3d31bc530f0e9489948994919384939184019290870191908190849084905b83811015610a30578181015183820152602001610a18565b50505050905090810190601f168015610a5d5780820380516001836020036101000a031916815260200191505b50935050505060405180910390a2505050565b600d5481565b600054600160a060020a03163314610a8d57600080fd5b60005460a060020a900460ff161515610aa557600080fd5b6000805474ff0000000000000000000000000000000000000000191681556040517f7805862f689e2f13df9f062ff482ad3ad112aca9e0847911ed832e158c525b339190a1565b60096020526000908152604090205460ff1681565b600e5481565b6000805481908190600160a060020a03163314610b2357600080fd5b8451600010610b3157600080fd5b846040516020018082805190602001908083835b60208310610b645780518252601f199092019160209182019101610b45565b6001836020036101000a0380198251168184511680821785525050505050509050019150506040516020818303038152906040526040518082805190602001908083835b60208310610bc75780518252601f199092019160209182019101610ba8565b5181516020939093036101000a600019018019909116921691909117905260405192018290039091209550505050600160a060020a0384161515610c0a57600080fd5b839150826000191682600160a060020a03166344ae2c036040518163ffffffff1660e060020a028152600401602060405180830381600087803b158015610c5057600080fd5b505af1158015610c64573d6000803e3d6000fd5b505050506040513d6020811015610c7a57600080fd5b505114610c8657600080fd5b81600160a060020a031663693dde5c6040518163ffffffff1660e060020a028152600401602060405180830381600087803b158015610cc457600080fd5b505af1158015610cd8573d6000803e3d6000fd5b505050506040513d6020811015610cee57600080fd5b505160008181526004602052604090205490915015610d0c57600080fd5b6000818152600460209081526040808320869055600582529091208651610d3592880190611d82565b50806006866040518082805190602001908083835b60208310610d695780518252601f199092019160209182019101610d4a565b51815160001960209485036101000a0190811690199190911617905292019485525060408051948590038201852095909555606084018552600160a060020a038088168552898116858301818152600187890181815260008b8152600287528a812099518a54908716600160a060020a0319918216178b55935199830180549251151560a060020a0274ff0000000000000000000000000000000000000000199b9097169290941691909117989098169390931790556003805490920190915585518281528b51818401528b5191967f4813228f03db3be044e6ed8c699905d29fd80ef32baeca9b37305133719226b1968d9650919450849390840192908601918190849084905b83811015610e89578181015183820152602001610e71565b50505050905090810190601f168015610eb65780820380516001836020036101000a031916815260200191505b509250505060405180910390a283600160a060020a03167fe8c0136ee13ab4d445c28a306e9c668a98b69e6ba5dd67e2056a3d31bc530f0e866001604051808060200183151515158152602001828103825284818151815260200191508051906020019080838360005b83811015610f38578181015183820152602001610f20565b50505050905090810190601f168015610f655780820380516001836020036101000a031916815260200191505b50935050505060405180910390a25050505050565b60018054604080516020600284861615610100026000190190941693909304601f81018490048402820184019092528181529291830182828015610fff5780601f10610fd457610100808354040283529160200191610fff565b820191906000526020600020905b815481529060010190602001808311610fe257829003601f168201915b505050505081565b6000818152600460205260408120548290151561102357600080fd5b60005460a060020a900460ff161561103a57600080fd5b61104383611b2c565b604080517f28faf2170000000000000000000000000000000000000000000000000000000081523360048201529051919350600160a060020a038416916328faf2179160248082019260009290919082900301818387803b1580156110a757600080fd5b505af11580156110bb573d6000803e3d6000fd5b50505050505050565b600054600160a060020a031633146110db57600080fd5b600160a060020a038116158015906110fd5750600754600160a060020a031615155b151561110857600080fd5b60088054600160a060020a038316600160a060020a03199091168117909155604080516001815290517f5bd1ef1576935324f663f96de434f2cefe4b3357a5194c415e5ce350e3cc4ef49181900360200190a250565b600054600160a060020a0316331461117557600080fd5b600e8190556040805182815290517fd85b6eeaff051e65ddab01300acec9653407ca4f3d7c2d063a4bfe4ff89d5c119181900360200190a150565b60005460a060020a900460ff1681565b600090815260026020526040902060010154600160a060020a031690565b600054600160a060020a031633146111f557600080fd5b60008054604051600160a060020a03909116917ff8df31144d9c2f0f6b59d69b8b98abd5459d07f2742c4df920b25aae33c6482091a260008054600160a060020a0319169055565b600054600160a060020a0316331461125457600080fd5b60005460a060020a900460ff161561126b57600080fd5b6000805474ff0000000000000000000000000000000000000000191660a060020a1781556040517f6985a02210a168e66602d3235cb6db0e70f92b3ba4d376a33c0f3d9434bff6259190a1565b600054600160a060020a031633146112cf57600080fd5b600854600160a060020a031615156112e657600080fd5b600854600754604051600160a060020a0392831692909116907f86e3f05dd675cdb4c2766555dbff882f556118531cc65b926fd114cfe9b5ce0390600090a36008805460078054600160a060020a0319908116600160a060020a03841617909155169055565b60009081526002602052604090206001015460a060020a900460ff1690565b600054600160a060020a031681565b6000600260006006858560405180838380828437919091019485525050604080516020948190038501902054855292840194909452500160002060010154600160a060020a0316949350505050565b600080548190600160a060020a031633146113e357600080fd5b600160a060020a03841615156113f857600080fd5b50600160a060020a0383166000908152600960205260408120805460ff19168415151790555b600a5481101561146d5783600160a060020a0316600a8281548110151561144157fe5b600091825260209091200154600160a060020a03161415611465576001915061146d565b60010161141e565b8115156114c057600a80546001810182556000919091527fc65a7bb8d6351c1cf70c95a316cc6a92839c986682d98bc35f958f4883f9d2a8018054600160a060020a031916600160a060020a0386161790555b604051600160a060020a038516907f6fb38bb24664f1a3b1534f310f9075b0449a6e81118320a1c8388f2eac3fa43290600090a250505050565b600054600160a060020a0316331461151157600080fd5b60008054604051600160a060020a0390911691303180156108fc02929091818181858888f1935050505015801561154c573d6000803e3d6000fd5b50565b600060068383604051808383808284379091019485525050604051928390036020019092205495945050505050565b600754600090600160a060020a03163314806115b95750600854600160a060020a0316158015906115b95750600854600160a060020a031633145b15156115c457600080fd5b600085815260046020526040902054859015156115e057600080fd5b60005460a060020a900460ff16156115f757600080fd5b600160a060020a038516151561160c57600080fd5b61161586611b2c565b6040517f8ec5ff4100000000000000000000000000000000000000000000000000000000815260206004820190815260248201869052919350600160a060020a03841691638ec5ff419187918791819060440184848082843782019150509350505050602060405180830381600087803b15801561169257600080fd5b505af11580156116a6573d6000803e3d6000fd5b505050506040513d60208110156116bc57600080fd5b505115156116c957600080fd5b611704828686868080601f01602080910402602001604051908101604052809392919081815260200183838082843750611b47945050505050565b156117ab57604080517f897cab17000000000000000000000000000000000000000000000000000000008152600160a060020a038781166004830190815260248301938452604483018790529085169263897cab17928992899289926064018484808284378201915050945050505050600060405180830381600087803b15801561178e57600080fd5b505af11580156117a2573d6000803e3d6000fd5b50505050611891565b6000868152600560209081526040918290208251838152815460026000196101006001841615020190911604938101849052600160a060020a038916937f17924f6556e9f48e10f2e61c5112228a6274f52dd5a84e1706191a4c4eccd8b69389928992909182919082019060608301908790801561186a5780601f1061183f5761010080835404028352916020019161186a565b820191906000526020600020905b81548152906001019060200180831161184d57829003601f168201915b50508381038252848152602001858580828437604051920182900397509095505050505050a25b505050505050565b60046020526000908152604090205481565b6060600a80548060200260200160405190810160405280929190818152602001828054801561190357602002820191906000526020600020905b8154600160a060020a031681526001909101906020018083116118e5575b505050505090505b90565b600054600160a060020a0316331461192557600080fd5b600160a060020a038116151561193a57600080fd5b60078054600160a060020a038316600160a060020a03199091168117909155604080516000815290517f5bd1ef1576935324f663f96de434f2cefe4b3357a5194c415e5ce350e3cc4ef49181900360200190a250565b600754600160a060020a031681565b600854600160a060020a031681565b6000806119ba86611b2c565b905080600160a060020a031663686e177b8686866040518463ffffffff1660e060020a0281526004018084600160a060020a0316600160a060020a031681526020018060200182810382528484828181526020019250808284378201915050945050505050602060405180830381600087803b158015611a3957600080fd5b505af1158015611a4d573d6000803e3d6000fd5b505050506040513d6020811015611a6357600080fd5b50511515611a7557600c549150611a95565b611a7f8186611c6d565b1515611a8f57600d549150611a95565b600b5491505b50949350505050565b600054600160a060020a03163314611ab557600080fd5b61154c81611d12565b600b5481565b60056020908152600091825260409182902080548351601f600260001961010060018616150201909316929092049182018490048402810184019094528084529091830182828015610fff5780601f10610fd457610100808354040283529160200191610fff565b600090815260026020526040902054600160a060020a031690565b604080517f686e177b000000000000000000000000000000000000000000000000000000008152600160a060020a0384811660048301908152602483019384528451604484015284516000949288169363686e177b938893889390926064019060208501908083838c5b83811015611bc9578181015183820152602001611bb1565b50505050905090810190601f168015611bf65780820380516001836020036101000a031916815260200191505b509350505050602060405180830381600087803b158015611c1657600080fd5b505af1158015611c2a573d6000803e3d6000fd5b505050506040513d6020811015611c4057600080fd5b50511580611c555750611c538484611c6d565b155b15611c6257506000611c66565b5060015b9392505050565b60008083600160a060020a031663ed186571846040518263ffffffff1660e060020a0281526004018082600160a060020a0316600160a060020a03168152602001915050602060405180830381600087803b158015611ccb57600080fd5b505af1158015611cdf573d6000803e3d6000fd5b505050506040513d6020811015611cf557600080fd5b50519050801580611d0a5750600e5481014210155b949350505050565b600160a060020a0381161515611d2757600080fd5b60008054604051600160a060020a03808516939216917f8be0079c531659141344cd1fd0a4f28419497f9722a3daafe3b4186f6b6457e091a360008054600160a060020a031916600160a060020a0392909216919091179055565b828054600181600116156101000203166002900490600052602060002090601f016020900481019282601f10611dc357805160ff1916838001178555611df0565b82800160010185558215611df0579182015b82811115611df0578251825591602001919060010190611dd5565b50611dfc929150611e00565b5090565b61190b91905b80821115611dfc5760008155600101611e065600a165627a7a7230582046f7ddfe665513d8b122d39e544bb9b78bdf254266a0d67717bc5203d7e79bc80029",
  "source": "pragma solidity ^0.4.18;\n\n\nimport 'openzeppelin-solidity/contracts/lifecycle/Pausable.sol';\nimport 'openzeppelin-solidity/contracts/ownership/HasNoEther.sol';\n\n\ninterface StoreInterface {\n\n  function getAppNickname()\n  external\n  constant returns (bytes32);\n\n\n  function getAppId()\n  external\n  constant returns (uint);\n\n\n  function getAddressLastUpdate(\n    address _address\n  )\n  external\n  constant returns (uint);\n\n\n  function isUpgradable(\n    address _address,\n    string _uid\n  )\n  public\n  constant returns (bool);\n\n\n  function isUid(\n    string _uid\n  )\n  public\n  view\n  returns (bool);\n\n\n  function setIdentity(\n    address _address,\n    string _uid\n  )\n  external;\n\n\n  function unsetIdentity(\n    address _address\n  )\n  external;\n\n}\n\n\n/**\n * @title StoreManager\n * @author Francesco Sullo <francesco@sullo.co>\n * @dev Sets and removes tweedentities in the store,\n * adding more logic to the simple logic of the store\n */\n\n\ncontract StoreManager\nis Pausable, HasNoEther\n{\n\n  string public fromVersion = \"1.0.0\";\n\n  struct Store {\n    StoreInterface store;\n    address addr;\n    bool active;\n  }\n\n  mapping(uint => Store) private __stores;\n  uint public totalStores;\n\n  mapping(uint => bytes32) public appNicknames32;\n  mapping(uint => string) public appNicknames;\n  mapping(string => uint) private __appIds;\n\n  address public claimer;\n  address public newClaimer;\n  mapping(address => bool) public customerService;\n  address[] private __customerServiceAddress;\n\n  uint public upgradable = 0;\n  uint public notUpgradableInStore = 1;\n  uint public addressNotUpgradable = 2;\n\n  uint public minimumTimeBeforeUpdate = 1 hours;\n\n\n\n  // events\n\n\n  event StoreSet(\n    string appNickname,\n    address indexed addr\n  );\n\n\n  event ClaimerSet(\n    address indexed claimer,\n    bool isNew\n  );\n\n\n  event StoreActive(\n    string appNickname,\n    address indexed store,\n    bool active\n  );\n\n\n  event ClaimerSwitch(\n    address indexed oldClaimer,\n    address indexed newClaimer\n  );\n\n\n  event CustomerServiceSet(\n    address indexed addr\n  );\n\n\n  event IdentityNotUpgradable(\n    string appNickname,\n    address indexed addr,\n    string uid\n  );\n\n\n  event MinimumTimeBeforeUpdateChanged(\n    uint _newMinimumTime\n  );\n\n  // config\n\n\n  /**\n   * @dev Sets a store to be used by the manager\n   * @param _appNickname The nickname of the app for which the store's been configured\n   * @param _address The address of the store\n   */\n  function setAStore(\n    string _appNickname,\n    address _address\n  )\n  public\n  onlyOwner\n  {\n    require(bytes(_appNickname).length > 0);\n    bytes32 _appNickname32 = keccak256(abi.encodePacked(_appNickname));\n    require(_address != address(0));\n    StoreInterface _store = StoreInterface(_address);\n    require(_store.getAppNickname() == _appNickname32);\n    uint _appId = _store.getAppId();\n    require(appNicknames32[_appId] == 0x0);\n    appNicknames32[_appId] = _appNickname32;\n    appNicknames[_appId] = _appNickname;\n    __appIds[_appNickname] = _appId;\n\n    __stores[_appId] = Store(\n      _store,\n      _address,\n      true\n    );\n    totalStores++;\n    emit StoreSet(_appNickname, _address);\n    emit StoreActive(_appNickname, _address, true);\n  }\n\n\n  /**\n   * @dev Sets the claimer which will verify the ownership and call to set a tweedentity\n   * @param _address Address of the claimer\n   */\n  function setClaimer(\n    address _address\n  )\n  public\n  onlyOwner\n  {\n    require(_address != address(0));\n    claimer = _address;\n    emit ClaimerSet(_address, false);\n  }\n\n\n  /**\n   * @dev Sets a new claimer during updates\n   * @param _address Address of the new claimer\n   */\n  function setNewClaimer(\n    address _address\n  )\n  public\n  onlyOwner\n  {\n    require(_address != address(0) && claimer != address(0));\n    newClaimer = _address;\n    emit ClaimerSet(_address, true);\n  }\n\n\n  /**\n  * @dev Sets new manager\n  */\n  function switchClaimerAndRemoveOldOne()\n  external\n  onlyOwner\n  {\n    require(newClaimer != address(0));\n    emit ClaimerSwitch(claimer, newClaimer);\n    claimer = newClaimer;\n    newClaimer = address(0);\n  }\n\n\n  /**\n   * @dev Sets a wallet as customer service to perform emergency removal of wrong, abused, squatted tweedentities (due, for example, to hacking of the Twitter account)\n   * @param _address The customer service wallet\n   * @param _status The status (true is set, false is unset)\n   */\n  function setCustomerService(\n    address _address,\n    bool _status\n  )\n  public\n  onlyOwner\n  {\n    require(_address != address(0));\n    customerService[_address] = _status;\n    bool found;\n    for (uint i = 0; i < __customerServiceAddress.length; i++) {\n      if (__customerServiceAddress[i] == _address) {\n        found = true;\n        break;\n      }\n    }\n    if (!found) {\n      __customerServiceAddress.push(_address);\n    }\n    emit CustomerServiceSet(_address);\n  }\n\n\n\n  /**\n   * @dev Unable/disable a store\n   * @param _appNickname The store to be enabled/disabled\n   * @param _active A bool to unable (true) or disable (false)\n   */\n  function activateStore(\n    string _appNickname,\n    bool _active\n  )\n  public\n  onlyOwner\n  {\n    uint _appId = __appIds[_appNickname];\n    require(__stores[_appId].active != _active);\n    __stores[_appId] = Store(\n      __stores[_appId].store,\n      __stores[_appId].addr,\n      _active\n    );\n    emit StoreActive(_appNickname, __stores[_appId].addr, _active);\n  }\n\n\n\n  //modifiers\n\n\n  modifier onlyClaimer() {\n    require(msg.sender == claimer || (newClaimer != address(0) && msg.sender == newClaimer));\n    _;\n  }\n\n\n  modifier onlyCustomerService() {\n    require(msg.sender == owner || customerService[msg.sender] == true);\n    _;\n  }\n\n\n  modifier whenStoreSet(\n    uint _appId\n  ) {\n    require(appNicknames32[_appId] != 0x0);\n    _;\n  }\n\n\n\n  // internal getters\n\n\n  function __getStore(\n    uint _appId\n  )\n  internal\n  constant returns (StoreInterface)\n  {\n    return __stores[_appId].store;\n  }\n\n\n\n  // helpers\n\n\n  function isAddressUpgradable(\n    StoreInterface _store,\n    address _address\n  )\n  internal\n  constant returns (bool)\n  {\n    uint lastUpdate = _store.getAddressLastUpdate(_address);\n    return lastUpdate == 0 || now >= lastUpdate + minimumTimeBeforeUpdate;\n  }\n\n\n  function isUpgradable(\n    StoreInterface _store,\n    address _address,\n    string _uid\n  )\n  internal\n  constant returns (bool)\n  {\n    if (!_store.isUpgradable(_address, _uid) || !isAddressUpgradable(_store, _address)) {\n      return false;\n    }\n    return true;\n  }\n\n\n\n  // getters\n\n\n  /**\n   * @dev Gets the app-id associated to a nickname\n   * @param _appNickname The nickname of a configured app\n   */\n  function getAppId(\n    string _appNickname\n  )\n  external\n  constant returns (uint) {\n    return __appIds[_appNickname];\n  }\n\n\n  /**\n   * @dev Allows other contracts to check if a store is set\n   * @param _appNickname The nickname of a configured app\n   */\n  function isStoreSet(\n    string _appNickname\n  )\n  public\n  constant returns (bool){\n    return __appIds[_appNickname] != 0;\n  }\n\n\n  /**\n   * @dev Allows other contracts to check if a store is active\n   * @param _appId The id of a configured app\n   */\n  function isStoreActive(\n    uint _appId\n  )\n  public\n  constant returns (bool){\n    return __stores[_appId].active;\n  }\n\n\n  /**\n   * @dev Return a numeric code about the upgradability of a couple wallet-uid in a certain app\n   * @param _appId The id of the app\n   * @param _address The address of the wallet\n   * @param _uid The user-id\n   */\n  function getUpgradability(\n    uint _appId,\n    address _address,\n    string _uid\n  )\n  external\n  constant returns (uint)\n  {\n    StoreInterface _store = __getStore(_appId);\n    if (!_store.isUpgradable(_address, _uid)) {\n      return notUpgradableInStore;\n    } else if (!isAddressUpgradable(_store, _address)) {\n      return addressNotUpgradable;\n    } else {\n      return upgradable;\n    }\n  }\n\n\n  /**\n   * @dev Returns the address of a store\n   * @param _appNickname The app nickname\n   */\n  function getStoreAddress(\n    string _appNickname\n  )\n  external\n  constant returns (address) {\n    return __stores[__appIds[_appNickname]].addr;\n  }\n\n\n  /**\n   * @dev Returns the address of a store\n   * @param _appId The app id\n   */\n  function getStoreAddressById(\n    uint _appId\n  )\n  external\n  constant returns (address) {\n    return __stores[_appId].addr;\n  }\n\n\n  /**\n   * @dev Returns the address of any customerService account\n   */\n  function getCustomerServiceAddress()\n  external\n  constant returns (address[]) {\n    return __customerServiceAddress;\n  }\n\n\n\n  // primary methods\n\n\n  /**\n   * @dev Sets a new identity\n   * @param _appId The id of the app\n   * @param _address The address of the wallet\n   * @param _uid The user-id\n   */\n  function setIdentity(\n    uint _appId,\n    address _address,\n    string _uid\n  )\n  external\n  onlyClaimer\n  whenStoreSet(_appId)\n  whenNotPaused\n  {\n    require(_address != address(0));\n\n    StoreInterface _store = __getStore(_appId);\n    require(_store.isUid(_uid));\n\n    if (isUpgradable(_store, _address, _uid)) {\n      _store.setIdentity(_address, _uid);\n    } else {\n      emit IdentityNotUpgradable(appNicknames[_appId], _address, _uid);\n    }\n  }\n\n\n  /**\n   * @dev Unsets an existent identity\n   * @param _appId The id of the app\n   * @param _address The address of the wallet\n   */\n  function unsetIdentity(\n    uint _appId,\n    address _address\n  )\n  external\n  onlyCustomerService\n  whenStoreSet(_appId)\n  whenNotPaused\n  {\n    StoreInterface _store = __getStore(_appId);\n    _store.unsetIdentity(_address);\n  }\n\n\n  /**\n   * @dev Allow the sender to unset its existent identity\n   * @param _appId The id of the app\n   */\n  function unsetMyIdentity(\n    uint _appId\n  )\n  external\n  whenStoreSet(_appId)\n  whenNotPaused\n  {\n    StoreInterface _store = __getStore(_appId);\n    _store.unsetIdentity(msg.sender);\n  }\n\n\n  /**\n   * @dev Update the minimum time before allowing a wallet to update its data\n   * @param _newMinimumTime The new minimum time in seconds\n   */\n  function changeMinimumTimeBeforeUpdate(\n    uint _newMinimumTime\n  )\n  external\n  onlyOwner\n  {\n    minimumTimeBeforeUpdate = _newMinimumTime;\n    emit MinimumTimeBeforeUpdateChanged(_newMinimumTime);\n  }\n\n}\n",
  "sourcePath": "/Users/sullof/Projects/tweedentity-dapp/store/contracts/StoreManager.sol",
  "compiler": {
    "name": "solc",
    "version": "0.4.24+commit.e67f0147.Emscripten.clang"
  },
  "schemaVersion": "2.0.1",
  "updatedAt": "2018-07-02T23:40:22.812Z"
}