{
  "contractName": "StoreManagerCaller",
  "abi": [
    {
      "constant": true,
      "inputs": [],
      "name": "manager",
      "outputs": [
        {
          "name": "",
          "type": "address"
        }
      ],
      "payable": false,
      "stateMutability": "view",
      "type": "function"
    },
    {
      "constant": false,
      "inputs": [
        {
          "name": "_managerAddress",
          "type": "address"
        }
      ],
      "name": "setManager",
      "outputs": [],
      "payable": false,
      "stateMutability": "nonpayable",
      "type": "function"
    },
    {
      "constant": true,
      "inputs": [
        {
          "name": "_id",
          "type": "uint256"
        },
        {
          "name": "_addr",
          "type": "address"
        },
        {
          "name": "_uid",
          "type": "string"
        }
      ],
      "name": "getUpgradability",
      "outputs": [
        {
          "name": "",
          "type": "uint256"
        }
      ],
      "payable": false,
      "stateMutability": "view",
      "type": "function"
    }
  ],
  "bytecode": "0x6060604052341561000f57600080fd5b6102978061001e6000396000f3006060604052600436106100565763ffffffff7c0100000000000000000000000000000000000000000000000000000000600035041663481c6a75811461005b578063d0ebdbe71461008a578063d9420a86146100ab575b600080fd5b341561006657600080fd5b61006e610122565b604051600160a060020a03909116815260200160405180910390f35b341561009557600080fd5b6100a9600160a060020a0360043516610131565b005b34156100b657600080fd5b610110600480359060248035600160a060020a0316919060649060443590810190830135806020601f8201819004810201604051908101604052818152929190602084018383808284375094965061016095505050505050565b60405190815260200160405180910390f35b600054600160a060020a031681565b6000805473ffffffffffffffffffffffffffffffffffffffff1916600160a060020a0392909216919091179055565b60008054600160a060020a031663d9420a8685858585604051602001526040517c010000000000000000000000000000000000000000000000000000000063ffffffff861602815260048101848152600160a060020a0384166024830152606060448301908152909160640183818151815260200191508051906020019080838360005b838110156101fc5780820151838201526020016101e4565b50505050905090810190601f1680156102295780820380516001836020036101000a031916815260200191505b50945050505050602060405180830381600087803b151561024957600080fd5b6102c65a03f1151561025a57600080fd5b5050506040518051959450505050505600a165627a7a723058203fc2f29e91a71a42991466f9a29687d3fc88fc9725a92157488e507955a663700029",
  "source": "pragma solidity ^0.4.18;\n\n\nimport '../StoreManager.sol';\n\n\n// This contract is for testing the StoreManager's methods\n// which are callable from other contracts\n\ncontract StoreManagerCaller {\n\n  StoreManager public manager;\n\n  function setManager(address _managerAddress) public {\n    manager = StoreManager(_managerAddress);\n  }\n\n  // callable methods\n  // Theoretically, there is no need to test them because the\n  // compiler with produce an error when calling any getter that\n  // tries to return not-allowed dynamic data\n\n  function getUpgradability(uint _id, address _addr, string _uid) public constant returns (uint) {\n    return manager.getUpgradability(_id, _addr, _uid);\n  }\n\n}\n",
  "sourcePath": "/Users/sullof/Projects/tweedentity-dapp/store/contracts/helpers/StoreManagerCaller.sol",
  "compiler": {
    "name": "solc",
    "version": "0.4.19+commit.c4cbbb05.Emscripten.clang"
  },
  "schemaVersion": "2.0.0",
  "updatedAt": "2018-06-28T05:08:54.912Z"
}