{
  "contractName": "StoreManager",
  "abi": [
    {
      "constant": true,
      "inputs": [],
      "name": "notUpgradableInStore",
      "outputs": [
        {
          "name": "",
          "type": "uint256"
        }
      ],
      "payable": false,
      "stateMutability": "view",
      "type": "function"
    },
    {
      "constant": true,
      "inputs": [],
      "name": "totalStores",
      "outputs": [
        {
          "name": "",
          "type": "uint256"
        }
      ],
      "payable": false,
      "stateMutability": "view",
      "type": "function"
    },
    {
      "constant": true,
      "inputs": [],
      "name": "addressNotUpgradable",
      "outputs": [
        {
          "name": "",
          "type": "uint256"
        }
      ],
      "payable": false,
      "stateMutability": "view",
      "type": "function"
    },
    {
      "constant": false,
      "inputs": [],
      "name": "unpause",
      "outputs": [],
      "payable": false,
      "stateMutability": "nonpayable",
      "type": "function"
    },
    {
      "constant": true,
      "inputs": [
        {
          "name": "",
          "type": "address"
        }
      ],
      "name": "customerService",
      "outputs": [
        {
          "name": "",
          "type": "bool"
        }
      ],
      "payable": false,
      "stateMutability": "view",
      "type": "function"
    },
    {
      "constant": true,
      "inputs": [],
      "name": "minimumTimeBeforeUpdate",
      "outputs": [
        {
          "name": "",
          "type": "uint256"
        }
      ],
      "payable": false,
      "stateMutability": "view",
      "type": "function"
    },
    {
      "constant": true,
      "inputs": [],
      "name": "fromVersion",
      "outputs": [
        {
          "name": "",
          "type": "string"
        }
      ],
      "payable": false,
      "stateMutability": "view",
      "type": "function"
    },
    {
      "constant": true,
      "inputs": [],
      "name": "paused",
      "outputs": [
        {
          "name": "",
          "type": "bool"
        }
      ],
      "payable": false,
      "stateMutability": "view",
      "type": "function"
    },
    {
      "constant": false,
      "inputs": [],
      "name": "pause",
      "outputs": [],
      "payable": false,
      "stateMutability": "nonpayable",
      "type": "function"
    },
    {
      "constant": true,
      "inputs": [],
      "name": "owner",
      "outputs": [
        {
          "name": "",
          "type": "address"
        }
      ],
      "payable": false,
      "stateMutability": "view",
      "type": "function"
    },
    {
      "constant": false,
      "inputs": [],
      "name": "reclaimEther",
      "outputs": [],
      "payable": false,
      "stateMutability": "nonpayable",
      "type": "function"
    },
    {
      "constant": true,
      "inputs": [
        {
          "name": "",
          "type": "uint256"
        }
      ],
      "name": "appNicknames32",
      "outputs": [
        {
          "name": "",
          "type": "bytes32"
        }
      ],
      "payable": false,
      "stateMutability": "view",
      "type": "function"
    },
    {
      "constant": true,
      "inputs": [],
      "name": "claimer",
      "outputs": [
        {
          "name": "",
          "type": "address"
        }
      ],
      "payable": false,
      "stateMutability": "view",
      "type": "function"
    },
    {
      "constant": true,
      "inputs": [],
      "name": "newClaimer",
      "outputs": [
        {
          "name": "",
          "type": "address"
        }
      ],
      "payable": false,
      "stateMutability": "view",
      "type": "function"
    },
    {
      "constant": false,
      "inputs": [
        {
          "name": "newOwner",
          "type": "address"
        }
      ],
      "name": "transferOwnership",
      "outputs": [],
      "payable": false,
      "stateMutability": "nonpayable",
      "type": "function"
    },
    {
      "constant": true,
      "inputs": [],
      "name": "upgradable",
      "outputs": [
        {
          "name": "",
          "type": "uint256"
        }
      ],
      "payable": false,
      "stateMutability": "view",
      "type": "function"
    },
    {
      "constant": true,
      "inputs": [
        {
          "name": "",
          "type": "uint256"
        }
      ],
      "name": "appNicknames",
      "outputs": [
        {
          "name": "",
          "type": "string"
        }
      ],
      "payable": false,
      "stateMutability": "view",
      "type": "function"
    },
    {
      "payable": false,
      "stateMutability": "nonpayable",
      "type": "fallback"
    },
    {
      "anonymous": false,
      "inputs": [
        {
          "indexed": false,
          "name": "appNickname",
          "type": "string"
        },
        {
          "indexed": true,
          "name": "addr",
          "type": "address"
        }
      ],
      "name": "StoreSet",
      "type": "event"
    },
    {
      "anonymous": false,
      "inputs": [
        {
          "indexed": true,
          "name": "claimer",
          "type": "address"
        },
        {
          "indexed": false,
          "name": "isNew",
          "type": "bool"
        }
      ],
      "name": "ClaimerSet",
      "type": "event"
    },
    {
      "anonymous": false,
      "inputs": [
        {
          "indexed": false,
          "name": "appNickname",
          "type": "string"
        },
        {
          "indexed": true,
          "name": "store",
          "type": "address"
        },
        {
          "indexed": false,
          "name": "active",
          "type": "bool"
        }
      ],
      "name": "StoreActive",
      "type": "event"
    },
    {
      "anonymous": false,
      "inputs": [
        {
          "indexed": true,
          "name": "oldClaimer",
          "type": "address"
        },
        {
          "indexed": true,
          "name": "newClaimer",
          "type": "address"
        }
      ],
      "name": "ClaimerSwitch",
      "type": "event"
    },
    {
      "anonymous": false,
      "inputs": [
        {
          "indexed": true,
          "name": "addr",
          "type": "address"
        }
      ],
      "name": "CustomerServiceSet",
      "type": "event"
    },
    {
      "anonymous": false,
      "inputs": [
        {
          "indexed": false,
          "name": "appNickname",
          "type": "string"
        },
        {
          "indexed": true,
          "name": "addr",
          "type": "address"
        },
        {
          "indexed": false,
          "name": "uid",
          "type": "string"
        }
      ],
      "name": "IdentityNotUpgradable",
      "type": "event"
    },
    {
      "anonymous": false,
      "inputs": [
        {
          "indexed": false,
          "name": "_newMinimumTime",
          "type": "uint256"
        }
      ],
      "name": "MinimumTimeBeforeUpdateChanged",
      "type": "event"
    },
    {
      "anonymous": false,
      "inputs": [],
      "name": "Pause",
      "type": "event"
    },
    {
      "anonymous": false,
      "inputs": [],
      "name": "Unpause",
      "type": "event"
    },
    {
      "anonymous": false,
      "inputs": [
        {
          "indexed": true,
          "name": "previousOwner",
          "type": "address"
        },
        {
          "indexed": true,
          "name": "newOwner",
          "type": "address"
        }
      ],
      "name": "OwnershipTransferred",
      "type": "event"
    },
    {
      "constant": false,
      "inputs": [
        {
          "name": "_appNickname",
          "type": "string"
        },
        {
          "name": "_address",
          "type": "address"
        }
      ],
      "name": "setAStore",
      "outputs": [],
      "payable": false,
      "stateMutability": "nonpayable",
      "type": "function"
    },
    {
      "constant": false,
      "inputs": [
        {
          "name": "_address",
          "type": "address"
        }
      ],
      "name": "setClaimer",
      "outputs": [],
      "payable": false,
      "stateMutability": "nonpayable",
      "type": "function"
    },
    {
      "constant": false,
      "inputs": [
        {
          "name": "_address",
          "type": "address"
        }
      ],
      "name": "setNewClaimer",
      "outputs": [],
      "payable": false,
      "stateMutability": "nonpayable",
      "type": "function"
    },
    {
      "constant": false,
      "inputs": [],
      "name": "switchClaimerAndRemoveOldOne",
      "outputs": [],
      "payable": false,
      "stateMutability": "nonpayable",
      "type": "function"
    },
    {
      "constant": false,
      "inputs": [
        {
          "name": "_address",
          "type": "address"
        },
        {
          "name": "_status",
          "type": "bool"
        }
      ],
      "name": "setCustomerService",
      "outputs": [],
      "payable": false,
      "stateMutability": "nonpayable",
      "type": "function"
    },
    {
      "constant": false,
      "inputs": [
        {
          "name": "_appNickname",
          "type": "string"
        },
        {
          "name": "_active",
          "type": "bool"
        }
      ],
      "name": "activateStore",
      "outputs": [],
      "payable": false,
      "stateMutability": "nonpayable",
      "type": "function"
    },
    {
      "constant": true,
      "inputs": [
        {
          "name": "_appNickname",
          "type": "string"
        }
      ],
      "name": "getAppId",
      "outputs": [
        {
          "name": "",
          "type": "uint256"
        }
      ],
      "payable": false,
      "stateMutability": "view",
      "type": "function"
    },
    {
      "constant": true,
      "inputs": [
        {
          "name": "_appNickname",
          "type": "string"
        }
      ],
      "name": "isStoreSet",
      "outputs": [
        {
          "name": "",
          "type": "bool"
        }
      ],
      "payable": false,
      "stateMutability": "view",
      "type": "function"
    },
    {
      "constant": true,
      "inputs": [
        {
          "name": "_appId",
          "type": "uint256"
        }
      ],
      "name": "isStoreActive",
      "outputs": [
        {
          "name": "",
          "type": "bool"
        }
      ],
      "payable": false,
      "stateMutability": "view",
      "type": "function"
    },
    {
      "constant": true,
      "inputs": [
        {
          "name": "_appId",
          "type": "uint256"
        },
        {
          "name": "_address",
          "type": "address"
        },
        {
          "name": "_uid",
          "type": "string"
        }
      ],
      "name": "getUpgradability",
      "outputs": [
        {
          "name": "",
          "type": "uint256"
        }
      ],
      "payable": false,
      "stateMutability": "view",
      "type": "function"
    },
    {
      "constant": true,
      "inputs": [
        {
          "name": "_appNickname",
          "type": "string"
        }
      ],
      "name": "getStoreAddress",
      "outputs": [
        {
          "name": "",
          "type": "address"
        }
      ],
      "payable": false,
      "stateMutability": "view",
      "type": "function"
    },
    {
      "constant": true,
      "inputs": [
        {
          "name": "_appId",
          "type": "uint256"
        }
      ],
      "name": "getStoreAddressById",
      "outputs": [
        {
          "name": "",
          "type": "address"
        }
      ],
      "payable": false,
      "stateMutability": "view",
      "type": "function"
    },
    {
      "constant": true,
      "inputs": [],
      "name": "getCustomerServiceAddress",
      "outputs": [
        {
          "name": "",
          "type": "address[]"
        }
      ],
      "payable": false,
      "stateMutability": "view",
      "type": "function"
    },
    {
      "constant": false,
      "inputs": [
        {
          "name": "_appId",
          "type": "uint256"
        },
        {
          "name": "_address",
          "type": "address"
        },
        {
          "name": "_uid",
          "type": "string"
        }
      ],
      "name": "setIdentity",
      "outputs": [],
      "payable": false,
      "stateMutability": "nonpayable",
      "type": "function"
    },
    {
      "constant": false,
      "inputs": [
        {
          "name": "_appId",
          "type": "uint256"
        },
        {
          "name": "_address",
          "type": "address"
        }
      ],
      "name": "unsetIdentity",
      "outputs": [],
      "payable": false,
      "stateMutability": "nonpayable",
      "type": "function"
    },
    {
      "constant": false,
      "inputs": [
        {
          "name": "_appId",
          "type": "uint256"
        }
      ],
      "name": "unsetMyIdentity",
      "outputs": [],
      "payable": false,
      "stateMutability": "nonpayable",
      "type": "function"
    },
    {
      "constant": false,
      "inputs": [
        {
          "name": "_newMinimumTime",
          "type": "uint256"
        }
      ],
      "name": "changeMinimumTimeBeforeUpdate",
      "outputs": [],
      "payable": false,
      "stateMutability": "nonpayable",
      "type": "function"
    }
  ],
  "bytecode": "0x606060409081526000805460a060020a60ff02191690558051908101604052600581527f312e302e30000000000000000000000000000000000000000000000000000000602082015260019080516200005d929160200190620000a0565b506000600b8190556001600c556002600d55610e10600e558054600160a060020a03191633600160a060020a031617905534156200009a57600080fd5b62000145565b828054600181600116156101000203166002900490600052602060002090601f016020900481019282601f10620000e357805160ff191683800117855562000113565b8280016001018555821562000113579182015b8281111562000113578251825591602001919060010190620000f6565b506200012192915062000125565b5090565b6200014291905b808211156200012157600081556001016200012c565b90565b611d8080620001556000396000f3006060604052600436106101925763ffffffff60e060020a6000350416631343ed05811461019f57806313754f9a1461020457806315f063f7146102295780631921d1171461023c578063340e47f81461025e57806339e31ceb146102b35780633f4ba83a146102c65780633ff285d9146102d95780635148de8d146102f8578063543a9ce41461030b57806355869af114610367578063558f285f146103f15780635854be3c146104075780635b824208146104265780635c975abb1461043c57806365ef7b951461044f5780638456cb591461048157806386321f95146104945780638cc60a61146104a75780638da5cb5b146104bd57806396d122ea146104d05780639deb1c5c146104ee5780639f727c2714610512578063ad0b38a214610525578063b2b5be0914610543578063ba9862de14610572578063c6199b6d14610588578063cdfb5832146105ee578063d379be231461060d578063d92fb5e914610620578063d9420a8614610633578063f2fde38b14610662578063f4d26fec14610681578063ff89008614610694575b341561019d57600080fd5b005b34156101aa57600080fd5b6101f060046024813581810190830135806020601f820181900481020160405190810160405281815292919060208401838380828437509496506106aa95505050505050565b604051901515815260200160405180910390f35b341561020f57600080fd5b61021761071b565b60405190815260200160405180910390f35b341561023457600080fd5b610217610721565b341561024757600080fd5b61019d600435600160a060020a0360243516610727565b341561026957600080fd5b61019d60046024813581810190830135806020601f820181900481020160405190810160405281815292919060208401838380828437509496505050509135151591506108139050565b34156102be57600080fd5b610217610a4b565b34156102d157600080fd5b61019d610a51565b34156102e457600080fd5b6101f0600160a060020a0360043516610ad0565b341561030357600080fd5b610217610ae5565b341561031657600080fd5b61019d60046024813581810190830135806020601f8201819004810201604051908101604052818152929190602084018383808284375094965050509235600160a060020a03169250610aeb915050565b341561037257600080fd5b61037a610f20565b60405160208082528190810183818151815260200191508051906020019080838360005b838110156103b657808201518382015260200161039e565b50505050905090810190601f1680156103e35780820380516001836020036101000a031916815260200191505b509250505060405180910390f35b34156103fc57600080fd5b61019d600435610fbe565b341561041257600080fd5b61019d600160a060020a0360043516611063565b341561043157600080fd5b61019d600435611102565b341561044757600080fd5b6101f0611158565b341561045a57600080fd5b610465600435611168565b604051600160a060020a03909116815260200160405180910390f35b341561048c57600080fd5b61019d611186565b341561049f57600080fd5b61019d61120a565b34156104b257600080fd5b6101f06004356112a2565b34156104c857600080fd5b6104656112c1565b34156104db57600080fd5b61046560048035602481019101356112d0565b34156104f957600080fd5b61019d600160a060020a03600435166024351515611321565b341561051d57600080fd5b61019d611444565b341561053057600080fd5b6102176004803560248101910135611497565b341561054e57600080fd5b61019d600480359060248035600160a060020a0316916044359182019101356114c7565b341561057d57600080fd5b6102176004356117b2565b341561059357600080fd5b61059b6117c4565b60405160208082528190810183818151815260200191508051906020019060200280838360005b838110156105da5780820151838201526020016105c2565b505050509050019250505060405180910390f35b34156105f957600080fd5b61019d600160a060020a036004351661182d565b341561061857600080fd5b6104656118b4565b341561062b57600080fd5b6104656118c3565b341561063e57600080fd5b610217600480359060248035600160a060020a0316916044359182019101356118d2565b341561066d57600080fd5b61019d600160a060020a03600435166119b1565b341561068c57600080fd5b610217611a3f565b341561069f57600080fd5b61037a600435611a45565b60006006826040518082805190602001908083835b602083106106de5780518252601f1990920191602091820191016106bf565b6001836020036101000a03801982511681845116808217855250505050505090500191505090815260200160405190819003902054151592915050565b600c5481565b60035481565b6000805433600160a060020a03908116911614806107625750600160a060020a03331660009081526009602052604090205460ff1615156001145b151561076d57600080fd5b6000838152600460205260409020548390151561078957600080fd5b60005460a060020a900460ff16156107a057600080fd5b6107a984611ac2565b915081600160a060020a03166328faf2178460405160e060020a63ffffffff8416028152600160a060020a039091166004820152602401600060405180830381600087803b15156107f957600080fd5b6102c65a03f1151561080a57600080fd5b50505050505050565b6000805433600160a060020a0390811691161461082f57600080fd5b6006836040518082805190602001908083835b602083106108615780518252601f199092019160209182019101610842565b6001836020036101000a0380198251168184511680821785525050505050509050019150509081526020016040519081900390205460008181526002602052604090206001015490915060ff60a060020a90910416151582151514156108c657600080fd5b606060405190810160409081526000838152600260208181528383208054600160a060020a039081168752600182015416828701528715159486019490945291859052905281518154600160a060020a031916600160a060020a03919091161781556020820151600182018054600160a060020a031916600160a060020a039290921691909117905560408201516001918201805491151560a060020a0274ff0000000000000000000000000000000000000000199092169190911790556000838152600260205260409081902090910154600160a060020a031691507fe8c0136ee13ab4d445c28a306e9c668a98b69e6ba5dd67e2056a3d31bc530f0e908590859051811515602082015260408082528190810184818151815260200191508051906020019080838360005b83811015610a0b5780820151838201526020016109f3565b50505050905090810190601f168015610a385780820380516001836020036101000a031916815260200191505b50935050505060405180910390a2505050565b600d5481565b60005433600160a060020a03908116911614610a6c57600080fd5b60005460a060020a900460ff161515610a8457600080fd5b6000805474ff0000000000000000000000000000000000000000191690557f7805862f689e2f13df9f062ff482ad3ad112aca9e0847911ed832e158c525b3360405160405180910390a1565b60096020526000908152604090205460ff1681565b600e5481565b600080548190819033600160a060020a03908116911614610b0b57600080fd5b6000855111610b1957600080fd5b846040518082805190602001908083835b60208310610b495780518252601f199092019160209182019101610b2a565b6001836020036101000a03801982511681845116179092525050509190910192506040915050519081900390209250600160a060020a0384161515610b8d57600080fd5b83915082600160a060020a0383166344ae2c036000604051602001526040518163ffffffff1660e060020a028152600401602060405180830381600087803b1515610bd757600080fd5b6102c65a03f11515610be857600080fd5b5050506040518051919091149050610bff57600080fd5b81600160a060020a031663693dde5c6000604051602001526040518163ffffffff1660e060020a028152600401602060405180830381600087803b1515610c4557600080fd5b6102c65a03f11515610c5657600080fd5b5050506040518051600081815260046020526040902054909250159050610c7c57600080fd5b600081815260046020908152604080832086905560059091529020858051610ca8929160200190611c81565b50806006866040518082805190602001908083835b60208310610cdc5780518252601f199092019160209182019101610cbd565b6001836020036101000a0380198251168184511680821785525050505050509050019150509081526020016040519081900390205560606040519081016040908152600160a060020a0380851683528616602080840191909152600182840152600084815260029091522081518154600160a060020a031916600160a060020a03919091161781556020820151600182018054600160a060020a031916600160a060020a039290921691909117905560408201516001918201805491151560a060020a0274ff00000000000000000000000000000000000000001990921691909117905560038054909101905550600160a060020a0384167f4813228f03db3be044e6ed8c699905d29fd80ef32baeca9b37305133719226b18660405160208082528190810183818151815260200191508051906020019080838360005b83811015610e32578082015183820152602001610e1a565b50505050905090810190601f168015610e5f5780820380516001836020036101000a031916815260200191505b509250505060405180910390a283600160a060020a03167fe8c0136ee13ab4d445c28a306e9c668a98b69e6ba5dd67e2056a3d31bc530f0e866001604051811515602082015260408082528190810184818151815260200191508051906020019080838360005b83811015610ede578082015183820152602001610ec6565b50505050905090810190601f168015610f0b5780820380516001836020036101000a031916815260200191505b50935050505060405180910390a25050505050565b60018054600181600116156101000203166002900480601f016020809104026020016040519081016040528092919081815260200182805460018160011615610100020316600290048015610fb65780601f10610f8b57610100808354040283529160200191610fb6565b820191906000526020600020905b815481529060010190602001808311610f9957829003601f168201915b505050505081565b60008181526004602052604081205482901515610fda57600080fd5b60005460a060020a900460ff1615610ff157600080fd5b610ffa83611ac2565b915081600160a060020a03166328faf2173360405160e060020a63ffffffff8416028152600160a060020a039091166004820152602401600060405180830381600087803b151561104a57600080fd5b6102c65a03f1151561105b57600080fd5b505050505050565b60005433600160a060020a0390811691161461107e57600080fd5b600160a060020a038116158015906110a05750600754600160a060020a031615155b15156110ab57600080fd5b60088054600160a060020a031916600160a060020a0383169081179091557f5bd1ef1576935324f663f96de434f2cefe4b3357a5194c415e5ce350e3cc4ef46001604051901515815260200160405180910390a250565b60005433600160a060020a0390811691161461111d57600080fd5b600e8190557fd85b6eeaff051e65ddab01300acec9653407ca4f3d7c2d063a4bfe4ff89d5c118160405190815260200160405180910390a150565b60005460a060020a900460ff1681565b600090815260026020526040902060010154600160a060020a031690565b60005433600160a060020a039081169116146111a157600080fd5b60005460a060020a900460ff16156111b857600080fd5b6000805474ff0000000000000000000000000000000000000000191660a060020a1790557f6985a02210a168e66602d3235cb6db0e70f92b3ba4d376a33c0f3d9434bff62560405160405180910390a1565b60005433600160a060020a0390811691161461122557600080fd5b600854600160a060020a0316151561123c57600080fd5b600854600754600160a060020a0391821691167f86e3f05dd675cdb4c2766555dbff882f556118531cc65b926fd114cfe9b5ce0360405160405180910390a36008805460078054600160a060020a0319908116600160a060020a03841617909155169055565b60009081526002602052604090206001015460a060020a900460ff1690565b600054600160a060020a031681565b6000600260006006858560405180838380828437820191505092505050908152602001604051908190039020548152602081019190915260400160002060010154600160a060020a03169392505050565b60008054819033600160a060020a0390811691161461133f57600080fd5b600160a060020a038416151561135457600080fd5b50600160a060020a0383166000908152600960205260408120805460ff19168415151790555b600a548110156113c95783600160a060020a0316600a8281548110151561139d57fe5b600091825260209091200154600160a060020a031614156113c157600191506113c9565b60010161137a565b81151561140857600a8054600181016113e28382611cff565b5060009182526020909120018054600160a060020a031916600160a060020a0386161790555b83600160a060020a03167f6fb38bb24664f1a3b1534f310f9075b0449a6e81118320a1c8388f2eac3fa43260405160405180910390a250505050565b60005433600160a060020a0390811691161461145f57600080fd5b600054600160a060020a039081169030163180156108fc0290604051600060405180830381858888f19350505050151561149557fe5b565b60006006838360405180838380828437820191505092505050908152602001604051809103902054905092915050565b60075460009033600160a060020a039081169116148061150a5750600854600160a060020a03161580159061150a575060085433600160a060020a039081169116145b151561151557600080fd5b6000858152600460205260409020548590151561153157600080fd5b60005460a060020a900460ff161561154857600080fd5b600160a060020a038516151561155d57600080fd5b61156686611ac2565b915081600160a060020a0316638ec5ff41858560006040516020015260405160e060020a63ffffffff85160281526020600482019081526024820183905290819060440184848082843782019150509350505050602060405180830381600087803b15156115d357600080fd5b6102c65a03f115156115e457600080fd5b5050506040518051905015156115f957600080fd5b611633828686868080601f016020809104026020016040519081016040528181529291906020840183838082843750611add945050505050565b156116c55781600160a060020a031663897cab1786868660405160e060020a63ffffffff8616028152600160a060020a038416600482019081526040602483019081526044830184905290916064018484808284378201915050945050505050600060405180830381600087803b15156116ac57600080fd5b6102c65a03f115156116bd57600080fd5b50505061105b565b84600160a060020a03167f17924f6556e9f48e10f2e61c5112228a6274f52dd5a84e1706191a4c4eccd8b66005600089815260200190815260200160002086866040516040808252845460026000196101006001841615020190911604908201819052819060208201906060830190879080156117835780601f1061175857610100808354040283529160200191611783565b820191906000526020600020905b81548152906001019060200180831161176657829003601f168201915b5050838103825284815260200185858082843782019150509550505050505060405180910390a2505050505050565b60046020526000908152604090205481565b6117cc611d28565b600a80548060200260200160405190810160405280929190818152602001828054801561182257602002820191906000526020600020905b8154600160a060020a03168152600190910190602001808311611804575b505050505090505b90565b60005433600160a060020a0390811691161461184857600080fd5b600160a060020a038116151561185d57600080fd5b60078054600160a060020a031916600160a060020a0383169081179091557f5bd1ef1576935324f663f96de434f2cefe4b3357a5194c415e5ce350e3cc4ef46000604051901515815260200160405180910390a250565b600754600160a060020a031681565b600854600160a060020a031681565b6000806118de86611ac2565b905080600160a060020a031663686e177b86868660006040516020015260405160e060020a63ffffffff8616028152600160a060020a038416600482019081526040602483019081526044830184905290916064018484808284378201915050945050505050602060405180830381600087803b151561195d57600080fd5b6102c65a03f1151561196e57600080fd5b50505060405180519050151561198857600c5491506119a8565b6119928186611bf2565b15156119a257600d5491506119a8565b600b5491505b50949350505050565b60005433600160a060020a039081169116146119cc57600080fd5b600160a060020a03811615156119e157600080fd5b600054600160a060020a0380831691167f8be0079c531659141344cd1fd0a4f28419497f9722a3daafe3b4186f6b6457e060405160405180910390a360008054600160a060020a031916600160a060020a0392909216919091179055565b600b5481565b60056020528060005260406000206000915090508054600181600116156101000203166002900480601f016020809104026020016040519081016040528092919081815260200182805460018160011615610100020316600290048015610fb65780601f10610f8b57610100808354040283529160200191610fb6565b600090815260026020526040902054600160a060020a031690565b600083600160a060020a031663686e177b84846000604051602001526040518363ffffffff1660e060020a0281526004018083600160a060020a0316600160a060020a0316815260200180602001828103825283818151815260200191508051906020019080838360005b83811015611b60578082015183820152602001611b48565b50505050905090810190601f168015611b8d5780820380516001836020036101000a031916815260200191505b509350505050602060405180830381600087803b1515611bac57600080fd5b6102c65a03f11515611bbd57600080fd5b505050604051805190501580611bda5750611bd88484611bf2565b155b15611be757506000611beb565b5060015b9392505050565b60008083600160a060020a031663ed1865718460006040516020015260405160e060020a63ffffffff8416028152600160a060020a039091166004820152602401602060405180830381600087803b1515611c4c57600080fd5b6102c65a03f11515611c5d57600080fd5b5050506040518051915050801580611c795750600e5481014210155b949350505050565b828054600181600116156101000203166002900490600052602060002090601f016020900481019282601f10611cc257805160ff1916838001178555611cef565b82800160010185558215611cef579182015b82811115611cef578251825591602001919060010190611cd4565b50611cfb929150611d3a565b5090565b815481835581811511611d2357600083815260209020611d23918101908301611d3a565b505050565b60206040519081016040526000815290565b61182a91905b80821115611cfb5760008155600101611d405600a165627a7a723058207f0d59f0fadd5ebb2f64ee6e331504c558d272b0a3c8a1d35edd619c51458b0d0029",
  "source": "pragma solidity ^0.4.18;\n\n\nimport 'openzeppelin-solidity/contracts/lifecycle/Pausable.sol';\nimport 'openzeppelin-solidity/contracts/ownership/HasNoEther.sol';\n\n\ninterface StoreInterface {\n\n  function getAppNickname()\n  external\n  constant returns (bytes32);\n\n\n  function getAppId()\n  external\n  constant returns (uint);\n\n\n  function getAddressLastUpdate(\n    address _address\n  )\n  external\n  constant returns (uint);\n\n\n  function isUpgradable(\n    address _address,\n    string _uid\n  )\n  public\n  constant returns (bool);\n\n\n  function isUid(\n    string _uid\n  )\n  public\n  view\n  returns (bool);\n\n\n  function setIdentity(\n    address _address,\n    string _uid\n  )\n  external;\n\n\n  function unsetIdentity(\n    address _address\n  )\n  external;\n\n}\n\n\n/**\n * @title StoreManager\n * @author Francesco Sullo <francesco@sullo.co>\n * @dev Sets and removes tweedentities in the store,\n * adding more logic to the simple logic of the store\n */\n\n\ncontract StoreManager\nis Pausable, HasNoEther\n{\n\n  string public fromVersion = \"1.0.0\";\n\n  struct Store {\n    StoreInterface store;\n    address addr;\n    bool active;\n  }\n\n  mapping(uint => Store) private __stores;\n  uint public totalStores;\n\n  mapping(uint => bytes32) public appNicknames32;\n  mapping(uint => string) public appNicknames;\n  mapping(string => uint) private __appIds;\n\n  address public claimer;\n  address public newClaimer;\n  mapping(address => bool) public customerService;\n  address[] private __customerServiceAddress;\n\n  uint public upgradable = 0;\n  uint public notUpgradableInStore = 1;\n  uint public addressNotUpgradable = 2;\n\n  uint public minimumTimeBeforeUpdate = 1 hours;\n\n\n\n  // events\n\n\n  event StoreSet(\n    string appNickname,\n    address indexed addr\n  );\n\n\n  event ClaimerSet(\n    address indexed claimer,\n    bool isNew\n  );\n\n\n  event StoreActive(\n    string appNickname,\n    address indexed store,\n    bool active\n  );\n\n\n  event ClaimerSwitch(\n    address indexed oldClaimer,\n    address indexed newClaimer\n  );\n\n\n  event CustomerServiceSet(\n    address indexed addr\n  );\n\n\n  event IdentityNotUpgradable(\n    string appNickname,\n    address indexed addr,\n    string uid\n  );\n\n\n  event MinimumTimeBeforeUpdateChanged(\n    uint _newMinimumTime\n  );\n\n  // config\n\n\n  /**\n   * @dev Sets a store to be used by the manager\n   * @param _appNickname The nickname of the app for which the store's been configured\n   * @param _address The address of the store\n   */\n  function setAStore(\n    string _appNickname,\n    address _address\n  )\n  public\n  onlyOwner\n  {\n    require(bytes(_appNickname).length > 0);\n    bytes32 _appNickname32 = keccak256(_appNickname);\n    require(_address != address(0));\n    StoreInterface _store = StoreInterface(_address);\n    require(_store.getAppNickname() == _appNickname32);\n    uint _appId = _store.getAppId();\n    require(appNicknames32[_appId] == 0x0);\n    appNicknames32[_appId] = _appNickname32;\n    appNicknames[_appId] = _appNickname;\n    __appIds[_appNickname] = _appId;\n\n    __stores[_appId] = Store(\n      _store,\n      _address,\n      true\n    );\n    totalStores++;\n    StoreSet(_appNickname, _address);\n    StoreActive(_appNickname, _address, true);\n  }\n\n\n  /**\n   * @dev Sets the claimer which will verify the ownership and call to set a tweedentity\n   * @param _address Address of the claimer\n   */\n  function setClaimer(\n    address _address\n  )\n  public\n  onlyOwner\n  {\n    require(_address != address(0));\n    claimer = _address;\n    ClaimerSet(_address, false);\n  }\n\n\n  /**\n   * @dev Sets a new claimer during updates\n   * @param _address Address of the new claimer\n   */\n  function setNewClaimer(\n    address _address\n  )\n  public\n  onlyOwner\n  {\n    require(_address != address(0) && claimer != address(0));\n    newClaimer = _address;\n    ClaimerSet(_address, true);\n  }\n\n\n  /**\n  * @dev Sets new manager\n  */\n  function switchClaimerAndRemoveOldOne()\n  external\n  onlyOwner\n  {\n    require(newClaimer != address(0));\n    ClaimerSwitch(claimer, newClaimer);\n    claimer = newClaimer;\n    newClaimer = address(0);\n  }\n\n\n  /**\n   * @dev Sets a wallet as customer service to perform emergency removal of wrong, abused, squatted tweedentities (due, for example, to hacking of the Twitter account)\n   * @param _address The customer service wallet\n   * @param _status The status (true is set, false is unset)\n   */\n  function setCustomerService(\n    address _address,\n    bool _status\n  )\n  public\n  onlyOwner\n  {\n    require(_address != address(0));\n    customerService[_address] = _status;\n    bool found;\n    for (uint i = 0; i < __customerServiceAddress.length; i++) {\n      if (__customerServiceAddress[i] == _address) {\n        found = true;\n        break;\n      }\n    }\n    if (!found) {\n      __customerServiceAddress.push(_address);\n    }\n    CustomerServiceSet(_address);\n  }\n\n\n\n  /**\n   * @dev Unable/disable a store\n   * @param _appNickname The store to be enabled/disabled\n   * @param _active A bool to unable (true) or disable (false)\n   */\n  function activateStore(\n    string _appNickname,\n    bool _active\n  )\n  public\n  onlyOwner\n  {\n    uint _appId = __appIds[_appNickname];\n    require(__stores[_appId].active != _active);\n    __stores[_appId] = Store(\n      __stores[_appId].store,\n      __stores[_appId].addr,\n      _active\n    );\n    StoreActive(_appNickname, __stores[_appId].addr, _active);\n  }\n\n\n\n  //modifiers\n\n\n  modifier onlyClaimer() {\n    require(msg.sender == claimer || (newClaimer != address(0) && msg.sender == newClaimer));\n    _;\n  }\n\n\n  modifier onlyCustomerService() {\n    require(msg.sender == owner || customerService[msg.sender] == true);\n    _;\n  }\n\n\n  modifier whenStoreSet(\n    uint _appId\n  ) {\n    require(appNicknames32[_appId] != 0x0);\n    _;\n  }\n\n\n\n  // internal getters\n\n\n  function __getStore(\n    uint _appId\n  )\n  internal\n  constant returns (StoreInterface)\n  {\n    return __stores[_appId].store;\n  }\n\n\n\n  // helpers\n\n\n  function isAddressUpgradable(\n    StoreInterface _store,\n    address _address\n  )\n  internal\n  constant returns (bool)\n  {\n    uint lastUpdate = _store.getAddressLastUpdate(_address);\n    return lastUpdate == 0 || now >= lastUpdate + minimumTimeBeforeUpdate;\n  }\n\n\n  function isUpgradable(\n    StoreInterface _store,\n    address _address,\n    string _uid\n  )\n  internal\n  constant returns (bool)\n  {\n    if (!_store.isUpgradable(_address, _uid) || !isAddressUpgradable(_store, _address)) {\n      return false;\n    }\n    return true;\n  }\n\n\n\n  // getters\n\n\n  /**\n   * @dev Gets the app-id associated to a nickname\n   * @param _appNickname The nickname of a configured app\n   */\n  function getAppId(\n    string _appNickname\n  )\n  external\n  constant returns (uint) {\n    return __appIds[_appNickname];\n  }\n\n\n  /**\n   * @dev Allows other contracts to check if a store is set\n   * @param _appNickname The nickname of a configured app\n   */\n  function isStoreSet(\n    string _appNickname\n  )\n  public\n  constant returns (bool){\n    return __appIds[_appNickname] != 0;\n  }\n\n\n  /**\n   * @dev Allows other contracts to check if a store is active\n   * @param _appId The id of a configured app\n   */\n  function isStoreActive(\n    uint _appId\n  )\n  public\n  constant returns (bool){\n    return __stores[_appId].active;\n  }\n\n\n  /**\n   * @dev Return a numeric code about the upgradability of a couple wallet-uid in a certain app\n   * @param _appId The id of the app\n   * @param _address The address of the wallet\n   * @param _uid The user-id\n   */\n  function getUpgradability(\n    uint _appId,\n    address _address,\n    string _uid\n  )\n  external\n  constant returns (uint)\n  {\n    StoreInterface _store = __getStore(_appId);\n    if (!_store.isUpgradable(_address, _uid)) {\n      return notUpgradableInStore;\n    } else if (!isAddressUpgradable(_store, _address)) {\n      return addressNotUpgradable;\n    } else {\n      return upgradable;\n    }\n  }\n\n\n  /**\n   * @dev Returns the address of a store\n   * @param _appNickname The app nickname\n   */\n  function getStoreAddress(\n    string _appNickname\n  )\n  external\n  constant returns (address) {\n    return __stores[__appIds[_appNickname]].addr;\n  }\n\n\n  /**\n   * @dev Returns the address of a store\n   * @param _appId The app id\n   */\n  function getStoreAddressById(\n    uint _appId\n  )\n  external\n  constant returns (address) {\n    return __stores[_appId].addr;\n  }\n\n\n  /**\n   * @dev Returns the address of any customerService account\n   */\n  function getCustomerServiceAddress()\n  external\n  constant returns (address[]) {\n    return __customerServiceAddress;\n  }\n\n\n\n  // primary methods\n\n\n  /**\n   * @dev Sets a new identity\n   * @param _appId The id of the app\n   * @param _address The address of the wallet\n   * @param _uid The user-id\n   */\n  function setIdentity(\n    uint _appId,\n    address _address,\n    string _uid\n  )\n  external\n  onlyClaimer\n  whenStoreSet(_appId)\n  whenNotPaused\n  {\n    require(_address != address(0));\n\n    StoreInterface _store = __getStore(_appId);\n    require(_store.isUid(_uid));\n\n    if (isUpgradable(_store, _address, _uid)) {\n      _store.setIdentity(_address, _uid);\n    } else {\n      IdentityNotUpgradable(appNicknames[_appId], _address, _uid);\n    }\n  }\n\n\n  /**\n   * @dev Unsets an existent identity\n   * @param _appId The id of the app\n   * @param _address The address of the wallet\n   */\n  function unsetIdentity(\n    uint _appId,\n    address _address\n  )\n  external\n  onlyCustomerService\n  whenStoreSet(_appId)\n  whenNotPaused\n  {\n    StoreInterface _store = __getStore(_appId);\n    _store.unsetIdentity(_address);\n  }\n\n\n  /**\n   * @dev Allow the sender to unset its existent identity\n   * @param _appId The id of the app\n   */\n  function unsetMyIdentity(\n    uint _appId\n  )\n  external\n  whenStoreSet(_appId)\n  whenNotPaused\n  {\n    StoreInterface _store = __getStore(_appId);\n    _store.unsetIdentity(msg.sender);\n  }\n\n\n  /**\n   * @dev Update the minimum time before allowing a wallet to update its data\n   * @param _newMinimumTime The new minimum time in seconds\n   */\n  function changeMinimumTimeBeforeUpdate(\n    uint _newMinimumTime\n  )\n  external\n  onlyOwner\n  {\n    minimumTimeBeforeUpdate = _newMinimumTime;\n    MinimumTimeBeforeUpdateChanged(_newMinimumTime);\n  }\n\n}\n",
  "sourcePath": "/Users/sullof/Projects/tweedentity-dapp/store/contracts/StoreManager.sol",
  "compiler": {
    "name": "solc",
    "version": "0.4.19+commit.c4cbbb05.Emscripten.clang"
  },
  "schemaVersion": "2.0.0",
  "updatedAt": "2018-06-28T05:08:54.903Z"
}