{
  "contractName": "TweedentityRegistry",
  "abi": [
    {
      "constant": true,
      "inputs": [],
      "name": "wrongClaimerOrUnsetInManager",
      "outputs": [
        {
          "name": "",
          "type": "uint256"
        }
      ],
      "payable": false,
      "stateMutability": "view",
      "type": "function"
    },
    {
      "constant": true,
      "inputs": [],
      "name": "allSet",
      "outputs": [
        {
          "name": "",
          "type": "uint256"
        }
      ],
      "payable": false,
      "stateMutability": "view",
      "type": "function"
    },
    {
      "constant": true,
      "inputs": [],
      "name": "wrongManagerOrUnsetInClaimer",
      "outputs": [
        {
          "name": "",
          "type": "uint256"
        }
      ],
      "payable": false,
      "stateMutability": "view",
      "type": "function"
    },
    {
      "constant": true,
      "inputs": [],
      "name": "manager",
      "outputs": [
        {
          "name": "",
          "type": "address"
        }
      ],
      "payable": false,
      "stateMutability": "view",
      "type": "function"
    },
    {
      "constant": true,
      "inputs": [],
      "name": "noStoresSet",
      "outputs": [
        {
          "name": "",
          "type": "uint256"
        }
      ],
      "payable": false,
      "stateMutability": "view",
      "type": "function"
    },
    {
      "constant": true,
      "inputs": [],
      "name": "fromVersion",
      "outputs": [
        {
          "name": "",
          "type": "string"
        }
      ],
      "payable": false,
      "stateMutability": "view",
      "type": "function"
    },
    {
      "constant": false,
      "inputs": [],
      "name": "renounceOwnership",
      "outputs": [],
      "payable": false,
      "stateMutability": "nonpayable",
      "type": "function"
    },
    {
      "constant": true,
      "inputs": [],
      "name": "owner",
      "outputs": [
        {
          "name": "",
          "type": "address"
        }
      ],
      "payable": false,
      "stateMutability": "view",
      "type": "function"
    },
    {
      "constant": false,
      "inputs": [],
      "name": "reclaimEther",
      "outputs": [],
      "payable": false,
      "stateMutability": "nonpayable",
      "type": "function"
    },
    {
      "constant": true,
      "inputs": [],
      "name": "managerUnset",
      "outputs": [
        {
          "name": "",
          "type": "uint256"
        }
      ],
      "payable": false,
      "stateMutability": "view",
      "type": "function"
    },
    {
      "constant": true,
      "inputs": [],
      "name": "claimer",
      "outputs": [
        {
          "name": "",
          "type": "address"
        }
      ],
      "payable": false,
      "stateMutability": "view",
      "type": "function"
    },
    {
      "constant": true,
      "inputs": [],
      "name": "managerNotSetInApp",
      "outputs": [
        {
          "name": "",
          "type": "uint256"
        }
      ],
      "payable": false,
      "stateMutability": "view",
      "type": "function"
    },
    {
      "constant": true,
      "inputs": [],
      "name": "claimerUnset",
      "outputs": [
        {
          "name": "",
          "type": "uint256"
        }
      ],
      "payable": false,
      "stateMutability": "view",
      "type": "function"
    },
    {
      "constant": true,
      "inputs": [],
      "name": "noStoreIsActive",
      "outputs": [
        {
          "name": "",
          "type": "uint256"
        }
      ],
      "payable": false,
      "stateMutability": "view",
      "type": "function"
    },
    {
      "constant": false,
      "inputs": [
        {
          "name": "_newOwner",
          "type": "address"
        }
      ],
      "name": "transferOwnership",
      "outputs": [],
      "payable": false,
      "stateMutability": "nonpayable",
      "type": "function"
    },
    {
      "constant": true,
      "inputs": [],
      "name": "managerIsPaused",
      "outputs": [
        {
          "name": "",
          "type": "uint256"
        }
      ],
      "payable": false,
      "stateMutability": "view",
      "type": "function"
    },
    {
      "payable": false,
      "stateMutability": "nonpayable",
      "type": "fallback"
    },
    {
      "anonymous": false,
      "inputs": [
        {
          "indexed": true,
          "name": "key",
          "type": "bytes32"
        },
        {
          "indexed": false,
          "name": "spec",
          "type": "string"
        },
        {
          "indexed": false,
          "name": "addr",
          "type": "address"
        }
      ],
      "name": "ContractRegistered",
      "type": "event"
    },
    {
      "anonymous": false,
      "inputs": [
        {
          "indexed": true,
          "name": "previousOwner",
          "type": "address"
        }
      ],
      "name": "OwnershipRenounced",
      "type": "event"
    },
    {
      "anonymous": false,
      "inputs": [
        {
          "indexed": true,
          "name": "previousOwner",
          "type": "address"
        },
        {
          "indexed": true,
          "name": "newOwner",
          "type": "address"
        }
      ],
      "name": "OwnershipTransferred",
      "type": "event"
    },
    {
      "constant": false,
      "inputs": [
        {
          "name": "_manager",
          "type": "address"
        }
      ],
      "name": "setManager",
      "outputs": [],
      "payable": false,
      "stateMutability": "nonpayable",
      "type": "function"
    },
    {
      "constant": false,
      "inputs": [
        {
          "name": "_claimer",
          "type": "address"
        }
      ],
      "name": "setClaimer",
      "outputs": [],
      "payable": false,
      "stateMutability": "nonpayable",
      "type": "function"
    },
    {
      "constant": false,
      "inputs": [
        {
          "name": "_manager",
          "type": "address"
        },
        {
          "name": "_claimer",
          "type": "address"
        }
      ],
      "name": "setManagerAndClaimer",
      "outputs": [],
      "payable": false,
      "stateMutability": "nonpayable",
      "type": "function"
    },
    {
      "constant": true,
      "inputs": [
        {
          "name": "_appNickname",
          "type": "string"
        }
      ],
      "name": "getStore",
      "outputs": [
        {
          "name": "",
          "type": "address"
        }
      ],
      "payable": false,
      "stateMutability": "view",
      "type": "function"
    },
    {
      "constant": true,
      "inputs": [],
      "name": "isReady",
      "outputs": [
        {
          "name": "",
          "type": "uint256"
        }
      ],
      "payable": false,
      "stateMutability": "view",
      "type": "function"
    }
  ],
  "bytecode": "0x60c0604052600560808190527f312e312e3000000000000000000000000000000000000000000000000000000060a090815261003e9160019190610090565b5060006004819055600a60058190556014600655601e60075560286008556032600955603c90556046600b556103e8600c558054600160a060020a03191633179055341561008b57600080fd5b61012b565b828054600181600116156101000203166002900490600052602060002090601f016020900481019282601f106100d157805160ff19168380011785556100fe565b828001600101855582156100fe579182015b828111156100fe5782518255916020019190600101906100e3565b5061010a92915061010e565b5090565b61012891905b8082111561010a5760008155600101610114565b90565b610e248061013a6000396000f3006080604052600436106101035763ffffffff60e060020a60003504166301c432ce8114610112578063292d98cd146101395780632cdcb1fc1461014e578063481c6a7514610163578063484f4bc01461019457806355869af1146101a9578063715018a6146102335780638da5cb5b1461024a5780638df35abe1461025f5780639f727c2714610286578063a094a0311461029b578063cdfb5832146102b0578063d0ebdbe7146102d1578063d217b149146102f2578063d379be2314610307578063d5dd51271461031c578063e088a96b14610331578063ed4e65fb14610346578063f2fde38b1461035b578063f77ca2081461037c578063ffc3121514610391575b34801561010f57600080fd5b50005b34801561011e57600080fd5b506101276103ea565b60408051918252519081900360200190f35b34801561014557600080fd5b506101276103f0565b34801561015a57600080fd5b506101276103f6565b34801561016f57600080fd5b506101786103fc565b60408051600160a060020a039092168252519081900360200190f35b3480156101a057600080fd5b5061012761040b565b3480156101b557600080fd5b506101be610411565b6040805160208082528351818301528351919283929083019185019080838360005b838110156101f85781810151838201526020016101e0565b50505050905090810190601f1680156102255780820380516001836020036101000a031916815260200191505b509250505060405180910390f35b34801561023f57600080fd5b5061024861049e565b005b34801561025657600080fd5b5061017861050a565b34801561026b57600080fd5b50610248600160a060020a0360043581169060243516610519565b34801561029257600080fd5b50610248610546565b3480156102a757600080fd5b5061012761059b565b3480156102bc57600080fd5b50610248600160a060020a0360043516610a9e565b3480156102dd57600080fd5b50610248600160a060020a0360043516610b68565b3480156102fe57600080fd5b50610127610c32565b34801561031357600080fd5b50610178610c38565b34801561032857600080fd5b50610127610c47565b34801561033d57600080fd5b50610127610c4d565b34801561035257600080fd5b50610127610c53565b34801561036757600080fd5b50610248600160a060020a0360043516610c59565b34801561038857600080fd5b50610127610c79565b34801561039d57600080fd5b506040805160206004803580820135601f8101849004840285018401909552848452610178943694929360249392840191908190840183828082843750949750610c7f9650505050505050565b60075481565b60045481565b60085481565b600254600160a060020a031681565b60095481565b60018054604080516020600284861615610100026000190190941693909304601f810184900484028201840190925281815292918301828280156104965780601f1061046b57610100808354040283529160200191610496565b820191906000526020600020905b81548152906001019060200180831161047957829003601f168201915b505050505081565b600054600160a060020a031633146104b557600080fd5b60008054604051600160a060020a03909116917ff8df31144d9c2f0f6b59d69b8b98abd5459d07f2742c4df920b25aae33c6482091a26000805473ffffffffffffffffffffffffffffffffffffffff19169055565b600054600160a060020a031681565b600054600160a060020a0316331461053057600080fd5b61053982610b68565b61054281610a9e565b5050565b600054600160a060020a0316331461055d57600080fd5b60008054604051600160a060020a0390911691303180156108fc02929091818181858888f19350505050158015610598573d6000803e3d6000fd5b50565b600254600090819081908190819081908190600160a060020a031615156105c6576005549650610a95565b600354600160a060020a031615156105e2576006549650610a95565b600254600354604080517fd379be230000000000000000000000000000000000000000000000000000000081529051600160a060020a0393841699509290911696508691889163d379be239160048083019260209291908290030181600087803b15801561064f57600080fd5b505af1158015610663573d6000803e3d6000fd5b505050506040513d602081101561067957600080fd5b5051600160a060020a031614610693576007549650610a95565b600254604080517f481c6a750000000000000000000000000000000000000000000000000000000081529051600160a060020a039283169288169163481c6a759160048083019260209291908290030181600087803b1580156106f557600080fd5b505af1158015610709573d6000803e3d6000fd5b505050506040513d602081101561071f57600080fd5b5051600160a060020a031614610739576008549650610a95565b85600160a060020a03166315f063f76040518163ffffffff1660e060020a028152600401602060405180830381600087803b15801561077757600080fd5b505af115801561078b573d6000803e3d6000fd5b505050506040513d60208110156107a157600080fd5b505193508315156107b6576009549650610a95565b600191505b838211610a005785600160a060020a03166365ef7b95836040518263ffffffff1660e060020a02815260040180828152602001915050602060405180830381600087803b15801561080b57600080fd5b505af115801561081f573d6000803e3d6000fd5b505050506040513d602081101561083557600080fd5b5051604080517f8cc60a61000000000000000000000000000000000000000000000000000000008152600481018590529051919250600160a060020a03881691638cc60a61916024808201926020929091908290030181600087803b15801561089d57600080fd5b505af11580156108b1573d6000803e3d6000fd5b505050506040513d60208110156108c757600080fd5b5051156108d357600192505b85600160a060020a0316638cc60a61836040518263ffffffff1660e060020a02815260040180828152602001915050602060405180830381600087803b15801561091c57600080fd5b505af1158015610930573d6000803e3d6000fd5b505050506040513d602081101561094657600080fd5b5051156109f557600254604080517f481c6a750000000000000000000000000000000000000000000000000000000081529051600160a060020a039283169284169163481c6a759160048083019260209291908290030181600087803b1580156109af57600080fd5b505af11580156109c3573d6000803e3d6000fd5b505050506040513d60208110156109d957600080fd5b5051600160a060020a0316146109f55781600c54019650610a95565b6001909101906107bb565b821515610a1157600a549650610a95565b85600160a060020a0316635c975abb6040518163ffffffff1660e060020a028152600401602060405180830381600087803b158015610a4f57600080fd5b505af1158015610a63573d6000803e3d6000fd5b505050506040513d6020811015610a7957600080fd5b5051151560011415610a8f57600b549650610a95565b60045496505b50505050505090565b600054600160a060020a03163314610ab557600080fd5b600160a060020a0381161515610aca57600080fd5b60038054600160a060020a03831673ffffffffffffffffffffffffffffffffffffffff199091168117909155604080517f636c61696d65720000000000000000000000000000000000000000000000000081528151908190036007018120602082019390935281815260008183015290517f4b83fc921eb87ab895fdb62b46f6fda5c80090eee7907fd2e50481b669142b3c9181900360800190a250565b600054600160a060020a03163314610b7f57600080fd5b600160a060020a0381161515610b9457600080fd5b60028054600160a060020a03831673ffffffffffffffffffffffffffffffffffffffff199091168117909155604080517f6d616e616765720000000000000000000000000000000000000000000000000081528151908190036007018120602082019390935281815260008183015290517f4b83fc921eb87ab895fdb62b46f6fda5c80090eee7907fd2e50481b669142b3c9181900360800190a250565b60055481565b600354600160a060020a031681565b600c5481565b60065481565b600a5481565b600054600160a060020a03163314610c7057600080fd5b61059881610d7b565b600b5481565b6002546040517f96d122ea000000000000000000000000000000000000000000000000000000008152602060048201818152845160248401528451600094600160a060020a03169384936396d122ea93889390928392604490910191908501908083838c5b83811015610cfc578181015183820152602001610ce4565b50505050905090810190601f168015610d295780820380516001836020036101000a031916815260200191505b5092505050602060405180830381600087803b158015610d4857600080fd5b505af1158015610d5c573d6000803e3d6000fd5b505050506040513d6020811015610d7257600080fd5b50519392505050565b600160a060020a0381161515610d9057600080fd5b60008054604051600160a060020a03808516939216917f8be0079c531659141344cd1fd0a4f28419497f9722a3daafe3b4186f6b6457e091a36000805473ffffffffffffffffffffffffffffffffffffffff1916600160a060020a03929092169190911790555600a165627a7a723058207142f1c14922980e88d165d8889ccbb0cca3659986fb9e55fbc76669a0d69e9d0029",
  "source": "pragma solidity ^0.4.23;\n\n\nimport 'openzeppelin-solidity/contracts/ownership/HasNoEther.sol';\n\n\ncontract ManagerInterface {\n\n  function paused()\n  public\n  constant returns (bool);\n\n\n  function claimer()\n  public\n  constant returns (address);\n\n  function totalStores()\n  public\n  constant returns (uint);\n\n\n  function getStoreAddress(\n    string _appNickname\n  )\n  external\n  constant returns (address);\n\n\n  function getStoreAddressById(\n    uint _appId\n  )\n  external\n  constant returns (address);\n\n\n  function isStoreActive(\n    uint _appId\n  )\n  public\n  constant returns (bool);\n\n}\n\ncontract ClaimerInterface {\n\n  function manager()\n  public\n  constant returns (address);\n}\n\n\ncontract StoreInterface {\n\n  function appSet()\n  public\n  constant returns (bool);\n\n\n  function manager()\n  public\n  constant returns (address);\n\n}\n\n\n/**\n * @title TweedentityRegistry\n * @author Francesco Sullo <francesco@sullo.co>\n * @dev It store the tweedentities contracts addresses to allows dapp to be updated\n */\n\n\ncontract TweedentityRegistry\nis HasNoEther\n{\n\n  string public fromVersion = \"1.1.0\";\n\n  address public manager;\n  address public claimer;\n\n  event ContractRegistered(\n    bytes32 indexed key,\n    string spec,\n    address addr\n  );\n\n\n  function setManager(\n    address _manager\n  )\n  public\n  onlyOwner\n  {\n    require(_manager != address(0));\n    manager = _manager;\n    emit ContractRegistered(keccak256(\"manager\"), \"\", _manager);\n  }\n\n\n  function setClaimer(\n    address _claimer\n  )\n  public\n  onlyOwner\n  {\n    require(_claimer != address(0));\n    claimer = _claimer;\n    emit ContractRegistered(keccak256(\"claimer\"), \"\", _claimer);\n  }\n\n\n  function setManagerAndClaimer(\n    address _manager,\n    address _claimer\n  )\n  external\n  onlyOwner\n  {\n    setManager(_manager);\n    setClaimer(_claimer);\n  }\n\n\n  /**\n   * @dev Gets the store managing the specified app\n   * @param _appNickname The nickname of the app\n   */\n  function getStore(\n    string _appNickname\n  )\n  public\n  constant returns (address)\n  {\n    ManagerInterface theManager = ManagerInterface(manager);\n    return theManager.getStoreAddress(_appNickname);\n  }\n\n\n  // error codes\n\n  uint public allSet = 0;\n  uint public managerUnset = 10;\n  uint public claimerUnset = 20;\n  uint public wrongClaimerOrUnsetInManager = 30;\n  uint public wrongManagerOrUnsetInClaimer = 40;\n  uint public noStoresSet = 50;\n  uint public noStoreIsActive = 60;\n  uint public managerIsPaused = 70;\n  uint public managerNotSetInApp = 1000;\n\n  /**\n   * @dev Returns true if the registry looks ready\n   */\n  function isReady()\n  external\n  constant returns (uint)\n  {\n    if (manager == address(0)) {\n      return managerUnset;\n    }\n    if (claimer == address(0)) {\n      return claimerUnset;\n    }\n    ManagerInterface theManager = ManagerInterface(manager);\n    ClaimerInterface theClaimer = ClaimerInterface(claimer);\n    if (theManager.claimer() != claimer) {\n      return wrongClaimerOrUnsetInManager;\n    }\n    if (theClaimer.manager() != manager) {\n      return wrongManagerOrUnsetInClaimer;\n    }\n    uint totalStores = theManager.totalStores();\n    if (totalStores == 0) {\n      return noStoresSet;\n    }\n    bool atLeastOneIsActive;\n    for (uint i = 1; i <= totalStores; i++) {\n      StoreInterface theStore = StoreInterface(theManager.getStoreAddressById(i));\n      if (theManager.isStoreActive(i)) {\n        atLeastOneIsActive = true;\n      }\n      if (theManager.isStoreActive(i)) {\n        if (theStore.manager() != manager) {\n          return managerNotSetInApp + i;\n        }\n      }\n    }\n    if (atLeastOneIsActive == false) {\n      return noStoreIsActive;\n    }\n    if (theManager.paused() == true) {\n      return managerIsPaused;\n    }\n    return allSet;\n  }\n\n}\n",
  "sourcePath": "/Users/sullof/Projects/tweedentity-dapp/store/contracts/TweedentityRegistry.sol",
  "compiler": {
    "name": "solc",
    "version": "0.4.24+commit.e67f0147.Emscripten.clang"
  },
  "schemaVersion": "2.0.1",
  "updatedAt": "2018-07-03T00:13:05.234Z"
}