{
  "contractName": "TweedentityManager",
  "abi": [
    {
      "constant": true,
      "inputs": [],
      "name": "notUpgradableInStore",
      "outputs": [
        {
          "name": "",
          "type": "uint256"
        }
      ],
      "payable": false,
      "stateMutability": "view",
      "type": "function"
    },
    {
      "constant": true,
      "inputs": [],
      "name": "addressNotUpgradable",
      "outputs": [
        {
          "name": "",
          "type": "uint256"
        }
      ],
      "payable": false,
      "stateMutability": "view",
      "type": "function"
    },
    {
      "constant": false,
      "inputs": [],
      "name": "unpause",
      "outputs": [],
      "payable": false,
      "stateMutability": "nonpayable",
      "type": "function"
    },
    {
      "constant": true,
      "inputs": [
        {
          "name": "",
          "type": "address"
        }
      ],
      "name": "customerService",
      "outputs": [
        {
          "name": "",
          "type": "bool"
        }
      ],
      "payable": false,
      "stateMutability": "view",
      "type": "function"
    },
    {
      "constant": true,
      "inputs": [],
      "name": "minimumTimeBeforeUpdate",
      "outputs": [
        {
          "name": "",
          "type": "uint256"
        }
      ],
      "payable": false,
      "stateMutability": "view",
      "type": "function"
    },
    {
      "constant": true,
      "inputs": [],
      "name": "version",
      "outputs": [
        {
          "name": "",
          "type": "string"
        }
      ],
      "payable": false,
      "stateMutability": "view",
      "type": "function"
    },
    {
      "constant": true,
      "inputs": [],
      "name": "paused",
      "outputs": [
        {
          "name": "",
          "type": "bool"
        }
      ],
      "payable": false,
      "stateMutability": "view",
      "type": "function"
    },
    {
      "constant": false,
      "inputs": [],
      "name": "pause",
      "outputs": [],
      "payable": false,
      "stateMutability": "nonpayable",
      "type": "function"
    },
    {
      "constant": true,
      "inputs": [],
      "name": "owner",
      "outputs": [
        {
          "name": "",
          "type": "address"
        }
      ],
      "payable": false,
      "stateMutability": "view",
      "type": "function"
    },
    {
      "constant": false,
      "inputs": [],
      "name": "reclaimEther",
      "outputs": [],
      "payable": false,
      "stateMutability": "nonpayable",
      "type": "function"
    },
    {
      "constant": true,
      "inputs": [
        {
          "name": "",
          "type": "uint256"
        }
      ],
      "name": "appNicknames32",
      "outputs": [
        {
          "name": "",
          "type": "bytes32"
        }
      ],
      "payable": false,
      "stateMutability": "view",
      "type": "function"
    },
    {
      "constant": true,
      "inputs": [],
      "name": "claimer",
      "outputs": [
        {
          "name": "",
          "type": "address"
        }
      ],
      "payable": false,
      "stateMutability": "view",
      "type": "function"
    },
    {
      "constant": true,
      "inputs": [],
      "name": "newClaimer",
      "outputs": [
        {
          "name": "",
          "type": "address"
        }
      ],
      "payable": false,
      "stateMutability": "view",
      "type": "function"
    },
    {
      "constant": false,
      "inputs": [
        {
          "name": "newOwner",
          "type": "address"
        }
      ],
      "name": "transferOwnership",
      "outputs": [],
      "payable": false,
      "stateMutability": "nonpayable",
      "type": "function"
    },
    {
      "constant": true,
      "inputs": [],
      "name": "upgradable",
      "outputs": [
        {
          "name": "",
          "type": "uint256"
        }
      ],
      "payable": false,
      "stateMutability": "view",
      "type": "function"
    },
    {
      "constant": true,
      "inputs": [
        {
          "name": "",
          "type": "uint256"
        }
      ],
      "name": "appNicknames",
      "outputs": [
        {
          "name": "",
          "type": "string"
        }
      ],
      "payable": false,
      "stateMutability": "view",
      "type": "function"
    },
    {
      "payable": false,
      "stateMutability": "nonpayable",
      "type": "fallback"
    },
    {
      "anonymous": false,
      "inputs": [
        {
          "indexed": false,
          "name": "appNickname",
          "type": "string"
        },
        {
          "indexed": true,
          "name": "addr",
          "type": "address"
        },
        {
          "indexed": false,
          "name": "uid",
          "type": "string"
        }
      ],
      "name": "IdentityNotUpgradable",
      "type": "event"
    },
    {
      "anonymous": false,
      "inputs": [],
      "name": "Pause",
      "type": "event"
    },
    {
      "anonymous": false,
      "inputs": [],
      "name": "Unpause",
      "type": "event"
    },
    {
      "anonymous": false,
      "inputs": [
        {
          "indexed": true,
          "name": "previousOwner",
          "type": "address"
        },
        {
          "indexed": true,
          "name": "newOwner",
          "type": "address"
        }
      ],
      "name": "OwnershipTransferred",
      "type": "event"
    },
    {
      "constant": false,
      "inputs": [
        {
          "name": "_appNickname",
          "type": "string"
        },
        {
          "name": "_address",
          "type": "address"
        }
      ],
      "name": "setAStore",
      "outputs": [],
      "payable": false,
      "stateMutability": "nonpayable",
      "type": "function"
    },
    {
      "constant": false,
      "inputs": [
        {
          "name": "_address",
          "type": "address"
        }
      ],
      "name": "setClaimer",
      "outputs": [],
      "payable": false,
      "stateMutability": "nonpayable",
      "type": "function"
    },
    {
      "constant": false,
      "inputs": [
        {
          "name": "_address",
          "type": "address"
        }
      ],
      "name": "setNewClaimer",
      "outputs": [],
      "payable": false,
      "stateMutability": "nonpayable",
      "type": "function"
    },
    {
      "constant": false,
      "inputs": [],
      "name": "switchClaimerAndRemoveOldOne",
      "outputs": [],
      "payable": false,
      "stateMutability": "nonpayable",
      "type": "function"
    },
    {
      "constant": false,
      "inputs": [
        {
          "name": "_address",
          "type": "address"
        },
        {
          "name": "_status",
          "type": "bool"
        }
      ],
      "name": "setCustomerService",
      "outputs": [],
      "payable": false,
      "stateMutability": "nonpayable",
      "type": "function"
    },
    {
      "constant": true,
      "inputs": [
        {
          "name": "_appNickname",
          "type": "string"
        }
      ],
      "name": "getAppId",
      "outputs": [
        {
          "name": "",
          "type": "uint256"
        }
      ],
      "payable": false,
      "stateMutability": "view",
      "type": "function"
    },
    {
      "constant": true,
      "inputs": [
        {
          "name": "_appNickname",
          "type": "string"
        }
      ],
      "name": "isStoreSet",
      "outputs": [
        {
          "name": "",
          "type": "bool"
        }
      ],
      "payable": false,
      "stateMutability": "view",
      "type": "function"
    },
    {
      "constant": true,
      "inputs": [
        {
          "name": "_appId",
          "type": "uint256"
        },
        {
          "name": "_address",
          "type": "address"
        },
        {
          "name": "_uid",
          "type": "string"
        }
      ],
      "name": "getUpgradability",
      "outputs": [
        {
          "name": "",
          "type": "uint256"
        }
      ],
      "payable": false,
      "stateMutability": "view",
      "type": "function"
    },
    {
      "constant": true,
      "inputs": [
        {
          "name": "_appNickname",
          "type": "string"
        }
      ],
      "name": "getStoreAddress",
      "outputs": [
        {
          "name": "",
          "type": "address"
        }
      ],
      "payable": false,
      "stateMutability": "view",
      "type": "function"
    },
    {
      "constant": true,
      "inputs": [],
      "name": "getCustomerServiceAddress",
      "outputs": [
        {
          "name": "",
          "type": "address[]"
        }
      ],
      "payable": false,
      "stateMutability": "view",
      "type": "function"
    },
    {
      "constant": false,
      "inputs": [
        {
          "name": "_appId",
          "type": "uint256"
        },
        {
          "name": "_address",
          "type": "address"
        },
        {
          "name": "_uid",
          "type": "string"
        }
      ],
      "name": "setIdentity",
      "outputs": [],
      "payable": false,
      "stateMutability": "nonpayable",
      "type": "function"
    },
    {
      "constant": false,
      "inputs": [
        {
          "name": "_appId",
          "type": "uint256"
        },
        {
          "name": "_address",
          "type": "address"
        }
      ],
      "name": "unsetIdentity",
      "outputs": [],
      "payable": false,
      "stateMutability": "nonpayable",
      "type": "function"
    },
    {
      "constant": false,
      "inputs": [
        {
          "name": "_appId",
          "type": "uint256"
        }
      ],
      "name": "unsetMyIdentity",
      "outputs": [],
      "payable": false,
      "stateMutability": "nonpayable",
      "type": "function"
    },
    {
      "constant": false,
      "inputs": [
        {
          "name": "_newMinimumTime",
          "type": "uint256"
        }
      ],
      "name": "changeMinimumTimeBeforeUpdate",
      "outputs": [],
      "payable": false,
      "stateMutability": "nonpayable",
      "type": "function"
    }
  ],
  "bytecode": "0x606060409081526000805460a060020a60ff02191690558051908101604052600581527f312e352e30000000000000000000000000000000000000000000000000000000602082015260019080516200005d929160200190620000a0565b506000600a8190556001600b556002600c55610e10600d558054600160a060020a03191633600160a060020a031617905534156200009a57600080fd5b62000145565b828054600181600116156101000203166002900490600052602060002090601f016020900481019282601f10620000e357805160ff191683800117855562000113565b8280016001018555821562000113579182015b8281111562000113578251825591602001919060010190620000f6565b506200012192915062000125565b5090565b6200014291905b808211156200012157600081556001016200012c565b90565b61178480620001556000396000f3006060604052600436106101665763ffffffff60e060020a6000350416631343ed05811461017357806313754f9a146101d85780631921d117146101fd57806339e31ceb1461021f5780633f4ba83a146102325780633ff285d9146102455780635148de8d14610264578063543a9ce41461027757806354fd4d50146102d3578063558f285f1461035d5780635854be3c146103735780635b824208146103925780635c975abb146103a85780638456cb59146103bb57806386321f95146103ce5780638da5cb5b146103e157806396d122ea146104105780639deb1c5c1461042e5780639f727c2714610452578063ad0b38a214610465578063b2b5be0914610483578063ba9862de146104b2578063c6199b6d146104c8578063cdfb58321461052e578063d379be231461054d578063d92fb5e914610560578063d9420a8614610573578063f2fde38b146105a2578063f4d26fec146105c1578063ff890086146105d4575b341561017157600080fd5b005b341561017e57600080fd5b6101c460046024813581810190830135806020601f820181900481020160405190810160405281815292919060208401838380828437509496506105ea95505050505050565b604051901515815260200160405180910390f35b34156101e357600080fd5b6101eb61065b565b60405190815260200160405180910390f35b341561020857600080fd5b610171600435600160a060020a0360243516610661565b341561022a57600080fd5b6101eb61074d565b341561023d57600080fd5b610171610753565b341561025057600080fd5b6101c4600160a060020a03600435166107d2565b341561026f57600080fd5b6101eb6107e7565b341561028257600080fd5b61017160046024813581810190830135806020601f8201819004810201604051908101604052818152929190602084018383808284375094965050509235600160a060020a031692506107ed915050565b34156102de57600080fd5b6102e6610a8d565b60405160208082528190810183818151815260200191508051906020019080838360005b8381101561032257808201518382015260200161030a565b50505050905090810190601f16801561034f5780820380516001836020036101000a031916815260200191505b509250505060405180910390f35b341561036857600080fd5b610171600435610b2b565b341561037e57600080fd5b610171600160a060020a0360043516610bd0565b341561039d57600080fd5b610171600435610c3a565b34156103b357600080fd5b6101c4610c5a565b34156103c657600080fd5b610171610c6a565b34156103d957600080fd5b610171610cee565b34156103ec57600080fd5b6103f4610d30565b604051600160a060020a03909116815260200160405180910390f35b341561041b57600080fd5b6103f46004803560248101910135610d3f565b341561043957600080fd5b610171600160a060020a03600435166024351515610d90565b341561045d57600080fd5b610171610e7d565b341561047057600080fd5b6101eb6004803560248101910135610ed0565b341561048e57600080fd5b610171600480359060248035600160a060020a031691604435918201910135610f00565b34156104bd57600080fd5b6101eb6004356111eb565b34156104d357600080fd5b6104db6111fd565b60405160208082528190810183818151815260200191508051906020019060200280838360005b8381101561051a578082015183820152602001610502565b505050509050019250505060405180910390f35b341561053957600080fd5b610171600160a060020a0360043516611266565b341561055857600080fd5b6103f46112b8565b341561056b57600080fd5b6103f46112c7565b341561057e57600080fd5b6101eb600480359060248035600160a060020a0316916044359182019101356112d6565b34156105ad57600080fd5b610171600160a060020a03600435166113b5565b34156105cc57600080fd5b6101eb611443565b34156105df57600080fd5b6102e6600435611449565b60006005826040518082805190602001908083835b6020831061061e5780518252601f1990920191602091820191016105ff565b6001836020036101000a03801982511681845116808217855250505050505090500191505090815260200160405190819003902054151592915050565b600b5481565b6000805433600160a060020a039081169116148061069c5750600160a060020a03331660009081526008602052604090205460ff1615156001145b15156106a757600080fd5b600083815260036020526040902054839015156106c357600080fd5b60005460a060020a900460ff16156106da57600080fd5b6106e3846114c6565b915081600160a060020a03166328faf2178460405160e060020a63ffffffff8416028152600160a060020a039091166004820152602401600060405180830381600087803b151561073357600080fd5b6102c65a03f1151561074457600080fd5b50505050505050565b600c5481565b60005433600160a060020a0390811691161461076e57600080fd5b60005460a060020a900460ff16151561078657600080fd5b6000805474ff0000000000000000000000000000000000000000191690557f7805862f689e2f13df9f062ff482ad3ad112aca9e0847911ed832e158c525b3360405160405180910390a1565b60086020526000908152604090205460ff1681565b600d5481565b600080548190819033600160a060020a0390811691161461080d57600080fd5b600085511161081b57600080fd5b846040518082805190602001908083835b6020831061084b5780518252601f19909201916020918201910161082c565b6001836020036101000a03801982511681845116179092525050509190910192506040915050519081900390209250600160a060020a038416151561088f57600080fd5b83915082600160a060020a0383166344ae2c036000604051602001526040518163ffffffff1660e060020a028152600401602060405180830381600087803b15156108d957600080fd5b6102c65a03f115156108ea57600080fd5b505050604051805191909114905061090157600080fd5b81600160a060020a031663693dde5c6000604051602001526040518163ffffffff1660e060020a028152600401602060405180830381600087803b151561094757600080fd5b6102c65a03f1151561095857600080fd5b505050604051805160008181526003602052604090205490925015905061097e57600080fd5b6000818152600360209081526040808320869055600490915290208580516109aa929160200190611685565b50806005866040518082805190602001908083835b602083106109de5780518252601f1990920191602091820191016109bf565b6001836020036101000a03801982511681845116808217855250505050505090500191505090815260200160405190819003902055604080519081016040908152600160a060020a038616808352602080840191909152600084815260029091522081518154600160a060020a031916600160a060020a039190911617815560208201516001919091018054600160a060020a031916600160a060020a03909216919091179055505050505050565b60018054600181600116156101000203166002900480601f016020809104026020016040519081016040528092919081815260200182805460018160011615610100020316600290048015610b235780601f10610af857610100808354040283529160200191610b23565b820191906000526020600020905b815481529060010190602001808311610b0657829003601f168201915b505050505081565b60008181526003602052604081205482901515610b4757600080fd5b60005460a060020a900460ff1615610b5e57600080fd5b610b67836114c6565b915081600160a060020a03166328faf2173360405160e060020a63ffffffff8416028152600160a060020a039091166004820152602401600060405180830381600087803b1515610bb757600080fd5b6102c65a03f11515610bc857600080fd5b505050505050565b60005433600160a060020a03908116911614610beb57600080fd5b600160a060020a03811615801590610c0d5750600654600160a060020a031615155b1515610c1857600080fd5b60078054600160a060020a031916600160a060020a0392909216919091179055565b60005433600160a060020a03908116911614610c5557600080fd5b600d55565b60005460a060020a900460ff1681565b60005433600160a060020a03908116911614610c8557600080fd5b60005460a060020a900460ff1615610c9c57600080fd5b6000805474ff0000000000000000000000000000000000000000191660a060020a1790557f6985a02210a168e66602d3235cb6db0e70f92b3ba4d376a33c0f3d9434bff62560405160405180910390a1565b60005433600160a060020a03908116911614610d0957600080fd5b6007805460068054600160a060020a0319908116600160a060020a03841617909155169055565b600054600160a060020a031681565b6000600260006005858560405180838380828437820191505092505050908152602001604051908190039020548152602081019190915260400160002060010154600160a060020a03169392505050565b60008054819033600160a060020a03908116911614610dae57600080fd5b600160a060020a0384161515610dc357600080fd5b50600160a060020a0383166000908152600860205260408120805460ff19168415151790555b600954811015610e385783600160a060020a0316600982815481101515610e0c57fe5b600091825260209091200154600160a060020a03161415610e305760019150610e38565b600101610de9565b811515610e77576009805460018101610e518382611703565b5060009182526020909120018054600160a060020a031916600160a060020a0386161790555b50505050565b60005433600160a060020a03908116911614610e9857600080fd5b600054600160a060020a039081169030163180156108fc0290604051600060405180830381858888f193505050501515610ece57fe5b565b60006005838360405180838380828437820191505092505050908152602001604051809103902054905092915050565b60065460009033600160a060020a0390811691161480610f435750600754600160a060020a031615801590610f43575060075433600160a060020a039081169116145b1515610f4e57600080fd5b60008581526003602052604090205485901515610f6a57600080fd5b60005460a060020a900460ff1615610f8157600080fd5b600160a060020a0385161515610f9657600080fd5b610f9f866114c6565b915081600160a060020a0316638ec5ff41858560006040516020015260405160e060020a63ffffffff85160281526020600482019081526024820183905290819060440184848082843782019150509350505050602060405180830381600087803b151561100c57600080fd5b6102c65a03f1151561101d57600080fd5b50505060405180519050151561103257600080fd5b61106c828686868080601f0160208091040260200160405190810160405281815292919060208401838380828437506114e1945050505050565b156110fe5781600160a060020a031663897cab1786868660405160e060020a63ffffffff8616028152600160a060020a038416600482019081526040602483019081526044830184905290916064018484808284378201915050945050505050600060405180830381600087803b15156110e557600080fd5b6102c65a03f115156110f657600080fd5b505050610bc8565b84600160a060020a03167f17924f6556e9f48e10f2e61c5112228a6274f52dd5a84e1706191a4c4eccd8b66004600089815260200190815260200160002086866040516040808252845460026000196101006001841615020190911604908201819052819060208201906060830190879080156111bc5780601f10611191576101008083540402835291602001916111bc565b820191906000526020600020905b81548152906001019060200180831161119f57829003601f168201915b5050838103825284815260200185858082843782019150509550505050505060405180910390a2505050505050565b60036020526000908152604090205481565b61120561172c565b600980548060200260200160405190810160405280929190818152602001828054801561125b57602002820191906000526020600020905b8154600160a060020a0316815260019091019060200180831161123d575b505050505090505b90565b60005433600160a060020a0390811691161461128157600080fd5b600160a060020a038116151561129657600080fd5b60068054600160a060020a031916600160a060020a0392909216919091179055565b600654600160a060020a031681565b600754600160a060020a031681565b6000806112e2866114c6565b905080600160a060020a031663686e177b86868660006040516020015260405160e060020a63ffffffff8616028152600160a060020a038416600482019081526040602483019081526044830184905290916064018484808284378201915050945050505050602060405180830381600087803b151561136157600080fd5b6102c65a03f1151561137257600080fd5b50505060405180519050151561138c57600b5491506113ac565b61139681866115f6565b15156113a657600c5491506113ac565b600a5491505b50949350505050565b60005433600160a060020a039081169116146113d057600080fd5b600160a060020a03811615156113e557600080fd5b600054600160a060020a0380831691167f8be0079c531659141344cd1fd0a4f28419497f9722a3daafe3b4186f6b6457e060405160405180910390a360008054600160a060020a031916600160a060020a0392909216919091179055565b600a5481565b60046020528060005260406000206000915090508054600181600116156101000203166002900480601f016020809104026020016040519081016040528092919081815260200182805460018160011615610100020316600290048015610b235780601f10610af857610100808354040283529160200191610b23565b600090815260026020526040902054600160a060020a031690565b600083600160a060020a031663686e177b84846000604051602001526040518363ffffffff1660e060020a0281526004018083600160a060020a0316600160a060020a0316815260200180602001828103825283818151815260200191508051906020019080838360005b8381101561156457808201518382015260200161154c565b50505050905090810190601f1680156115915780820380516001836020036101000a031916815260200191505b509350505050602060405180830381600087803b15156115b057600080fd5b6102c65a03f115156115c157600080fd5b5050506040518051905015806115de57506115dc84846115f6565b155b156115eb575060006115ef565b5060015b9392505050565b60008083600160a060020a031663ed1865718460006040516020015260405160e060020a63ffffffff8416028152600160a060020a039091166004820152602401602060405180830381600087803b151561165057600080fd5b6102c65a03f1151561166157600080fd5b505050604051805191505080158061167d5750600d5481014210155b949350505050565b828054600181600116156101000203166002900490600052602060002090601f016020900481019282601f106116c657805160ff19168380011785556116f3565b828001600101855582156116f3579182015b828111156116f35782518255916020019190600101906116d8565b506116ff92915061173e565b5090565b8154818355818115116117275760008381526020902061172791810190830161173e565b505050565b60206040519081016040526000815290565b61126391905b808211156116ff57600081556001016117445600a165627a7a723058204c5f02f1e293defe33b21d2f479c7c67fb92c02a4685e9ced52919afdb6a4d790029",
  "source": "pragma solidity ^0.4.18;\n\n\nimport 'openzeppelin-solidity/contracts/lifecycle/Pausable.sol';\nimport 'openzeppelin-solidity/contracts/ownership/HasNoEther.sol';\n\nimport './TweedentityStore.sol';\n\n\n/**\n * @title TweedentityManager\n * @author Francesco Sullo <francesco@sullo.co>\n * @dev Sets and removes tweedentities in the store,\n * adding more logic to the simple logic of the store\n */\n\n\ncontract TweedentityManager\nis Pausable, HasNoEther\n{\n\n  string public version = \"1.5.0\";\n\n  struct Store {\n    TweedentityStore store;\n    address addr;\n  }\n\n  mapping(uint => Store) private __stores;\n\n  mapping(uint => bytes32) public appNicknames32;\n  mapping(uint => string) public appNicknames;\n  mapping(string => uint) private __appIds;\n\n  address public claimer;\n  address public newClaimer;\n  mapping(address => bool) public customerService;\n  address[] private __customerServiceAddress;\n\n  uint public upgradable = 0;\n  uint public notUpgradableInStore = 1;\n  uint public addressNotUpgradable = 2;\n\n  uint public minimumTimeBeforeUpdate = 1 hours;\n\n\n\n  // events\n\n\n  event IdentityNotUpgradable(\n    string appNickname,\n    address indexed addr,\n    string uid\n  );\n\n\n\n  // config\n\n\n  /**\n   * @dev Sets a store to be used by the manager\n   * @param _appNickname The nickname of the app for which the store's been configured\n   * @param _address The address of the store\n   */\n  function setAStore(\n    string _appNickname,\n    address _address\n  )\n  public\n  onlyOwner\n  {\n    require(bytes(_appNickname).length > 0);\n    bytes32 _appNickname32 = keccak256(_appNickname);\n    require(_address != address(0));\n    TweedentityStore _store = TweedentityStore(_address);\n    require(_store.getAppNickname() == _appNickname32);\n    uint _appId = _store.getAppId();\n    require(appNicknames32[_appId] == 0x0);\n    appNicknames32[_appId] = _appNickname32;\n    appNicknames[_appId] = _appNickname;\n    __appIds[_appNickname] = _appId;\n\n    __stores[_appId] = Store(\n      TweedentityStore(_address),\n      _address\n    );\n  }\n\n\n  /**\n   * @dev Sets the claimer which will verify the ownership and call to set a tweedentity\n   * @param _address Address of the claimer\n   */\n  function setClaimer(\n    address _address\n  )\n  public\n  onlyOwner\n  {\n    require(_address != address(0));\n    claimer = _address;\n  }\n\n\n  /**\n   * @dev Sets a new claimer during updates\n   * @param _address Address of the new claimer\n   */\n  function setNewClaimer(\n    address _address\n  )\n  public\n  onlyOwner\n  {\n    require(_address != address(0) && claimer != address(0));\n    newClaimer = _address;\n  }\n\n\n  /**\n  * @dev Sets new manager\n  */\n  function switchClaimerAndRemoveOldOne()\n  external\n  onlyOwner\n  {\n    claimer = newClaimer;\n    newClaimer = address(0);\n  }\n\n\n  /**\n   * @dev Sets a wallet as customer service to perform emergency removal of wrong, abused, squatted tweedentities (due, for example, to hacking of the Twitter account)\n   * @param _address The customer service wallet\n   * @param _status The status (true is set, false is unset)\n   */\n  function setCustomerService(\n    address _address,\n    bool _status\n  )\n  public\n  onlyOwner\n  {\n    require(_address != address(0));\n    customerService[_address] = _status;\n    bool found;\n    for (uint i = 0; i < __customerServiceAddress.length; i++) {\n      if (__customerServiceAddress[i] == _address) {\n        found = true;\n        break;\n      }\n    }\n    if (!found) {\n      __customerServiceAddress.push(_address);\n    }\n  }\n\n\n\n  //modifiers\n\n\n  modifier onlyClaimer() {\n    require(msg.sender == claimer || (newClaimer != address(0) && msg.sender == newClaimer));\n    _;\n  }\n\n\n  modifier onlyCustomerService() {\n    require(msg.sender == owner || customerService[msg.sender] == true);\n    _;\n  }\n\n\n  modifier whenStoreSet(\n    uint _appId\n  ) {\n    require(appNicknames32[_appId] != 0x0);\n    _;\n  }\n\n\n\n  // internal getters\n\n\n  function __getStore(\n    uint _appId\n  )\n  internal\n  constant returns (TweedentityStore)\n  {\n    return __stores[_appId].store;\n  }\n\n\n\n  // helpers\n\n\n  function isAddressUpgradable(\n    TweedentityStore _store,\n    address _address\n  )\n  internal\n  constant returns (bool)\n  {\n    uint lastUpdate = _store.getAddressLastUpdate(_address);\n    return lastUpdate == 0 || now >= lastUpdate + minimumTimeBeforeUpdate;\n  }\n\n\n  function isUpgradable(\n    TweedentityStore _store,\n    address _address,\n    string _uid\n  )\n  internal\n  constant returns (bool)\n  {\n    if (!_store.isUpgradable(_address, _uid) || !isAddressUpgradable(_store, _address)) {\n      return false;\n    }\n    return true;\n  }\n\n\n\n  // getters\n\n\n  /**\n   * @dev Gets the app-id associated to a nickname\n   * @param _appNickname The nickname of a configured app\n   */\n  function getAppId(\n    string _appNickname\n  )\n  external\n  constant returns (uint) {\n    return __appIds[_appNickname];\n  }\n\n\n  /**\n   * @dev Allows other contracts to check if a store is set\n   * @param _appNickname The nickname of a configured app\n   */\n  function isStoreSet(\n    string _appNickname\n  )\n  public\n  constant returns (bool){\n    return __appIds[_appNickname] != 0;\n  }\n\n\n  /**\n   * @dev Return a numeric code about the upgradability of a couple wallet-uid in a certain app\n   * @param _appId The id of the app\n   * @param _address The address of the wallet\n   * @param _uid The user-id\n   */\n  function getUpgradability(\n    uint _appId,\n    address _address,\n    string _uid\n  )\n  external\n  constant returns (uint)\n  {\n    TweedentityStore _store = __getStore(_appId);\n    if (!_store.isUpgradable(_address, _uid)) {\n      return notUpgradableInStore;\n    } else if (!isAddressUpgradable(_store, _address)) {\n      return addressNotUpgradable;\n    } else {\n      return upgradable;\n    }\n  }\n\n\n  /**\n   * @dev Returns the address of a store\n   * @param _appNickname The app nickname\n   */\n  function getStoreAddress(\n    string _appNickname\n  )\n  external\n  constant returns (address) {\n    return __stores[__appIds[_appNickname]].addr;\n  }\n\n\n  /**\n   * @dev Returns the address of any customerService account\n   */\n  function getCustomerServiceAddress()\n  external\n  constant returns (address[]) {\n    return __customerServiceAddress;\n  }\n\n\n\n  // primary methods\n\n\n  /**\n   * @dev Sets a new identity\n   * @param _appId The id of the app\n   * @param _address The address of the wallet\n   * @param _uid The user-id\n   */\n  function setIdentity(\n    uint _appId,\n    address _address,\n    string _uid\n  )\n  external\n  onlyClaimer\n  whenStoreSet(_appId)\n  whenNotPaused\n  {\n    require(_address != address(0));\n\n    TweedentityStore _store = __getStore(_appId);\n    require(_store.isUid(_uid));\n\n    if (isUpgradable(_store, _address, _uid)) {\n      _store.setIdentity(_address, _uid);\n    } else {\n      IdentityNotUpgradable(appNicknames[_appId], _address, _uid);\n    }\n  }\n\n\n  /**\n   * @dev Unsets an existent identity\n   * @param _appId The id of the app\n   * @param _address The address of the wallet\n   */\n  function unsetIdentity(\n    uint _appId,\n    address _address\n  )\n  external\n  onlyCustomerService\n  whenStoreSet(_appId)\n  whenNotPaused\n  {\n    TweedentityStore _store = __getStore(_appId);\n    _store.unsetIdentity(_address);\n  }\n\n\n  /**\n   * @dev Allow the sender to unset its existent identity\n   * @param _appId The id of the app\n   */\n  function unsetMyIdentity(\n    uint _appId\n  )\n  external\n  whenStoreSet(_appId)\n  whenNotPaused\n  {\n    TweedentityStore _store = __getStore(_appId);\n    _store.unsetIdentity(msg.sender);\n  }\n\n\n  /**\n   * @dev Update the minimum time before allowing a wallet to update its data\n   * @param _newMinimumTime The new minimum time in seconds\n   */\n  function changeMinimumTimeBeforeUpdate(\n    uint _newMinimumTime\n  )\n  external\n  onlyOwner\n  {\n    minimumTimeBeforeUpdate = _newMinimumTime;\n  }\n\n}\n",
  "sourcePath": "/Users/sullof/Projects/tweedentity-dapp/store/contracts/TweedentityManager.sol",
  "compiler": {
    "name": "solc",
    "version": "0.4.19+commit.c4cbbb05.Emscripten.clang"
  },
  "schemaVersion": "2.0.0",
  "updatedAt": "2018-06-27T17:31:40.789Z"
}