{
  "contractName": "TweedentityClaimer",
  "abi": [
    {
      "constant": true,
      "inputs": [],
      "name": "manager",
      "outputs": [
        {
          "name": "",
          "type": "address"
        }
      ],
      "payable": false,
      "stateMutability": "view",
      "type": "function"
    },
    {
      "constant": true,
      "inputs": [],
      "name": "version",
      "outputs": [
        {
          "name": "",
          "type": "string"
        }
      ],
      "payable": false,
      "stateMutability": "view",
      "type": "function"
    },
    {
      "constant": true,
      "inputs": [],
      "name": "apiUrl",
      "outputs": [
        {
          "name": "",
          "type": "string"
        }
      ],
      "payable": false,
      "stateMutability": "view",
      "type": "function"
    },
    {
      "constant": true,
      "inputs": [],
      "name": "owner",
      "outputs": [
        {
          "name": "",
          "type": "address"
        }
      ],
      "payable": false,
      "stateMutability": "view",
      "type": "function"
    },
    {
      "constant": false,
      "inputs": [],
      "name": "reclaimEther",
      "outputs": [],
      "payable": false,
      "stateMutability": "nonpayable",
      "type": "function"
    },
    {
      "constant": true,
      "inputs": [],
      "name": "managerAddress",
      "outputs": [
        {
          "name": "",
          "type": "address"
        }
      ],
      "payable": false,
      "stateMutability": "view",
      "type": "function"
    },
    {
      "constant": false,
      "inputs": [
        {
          "name": "newOwner",
          "type": "address"
        }
      ],
      "name": "transferOwnership",
      "outputs": [],
      "payable": false,
      "stateMutability": "nonpayable",
      "type": "function"
    },
    {
      "payable": false,
      "stateMutability": "nonpayable",
      "type": "fallback"
    },
    {
      "anonymous": false,
      "inputs": [
        {
          "indexed": false,
          "name": "oraclizeId",
          "type": "bytes32"
        },
        {
          "indexed": true,
          "name": "addr",
          "type": "address"
        },
        {
          "indexed": false,
          "name": "appNickname",
          "type": "string"
        },
        {
          "indexed": false,
          "name": "postId",
          "type": "string"
        }
      ],
      "name": "VerificationStarted",
      "type": "event"
    },
    {
      "anonymous": false,
      "inputs": [
        {
          "indexed": true,
          "name": "oraclizeId",
          "type": "bytes32"
        }
      ],
      "name": "VerificatioFailed",
      "type": "event"
    },
    {
      "anonymous": false,
      "inputs": [
        {
          "indexed": true,
          "name": "previousOwner",
          "type": "address"
        },
        {
          "indexed": true,
          "name": "newOwner",
          "type": "address"
        }
      ],
      "name": "OwnershipTransferred",
      "type": "event"
    },
    {
      "constant": false,
      "inputs": [
        {
          "name": "_address",
          "type": "address"
        }
      ],
      "name": "setManager",
      "outputs": [],
      "payable": false,
      "stateMutability": "nonpayable",
      "type": "function"
    },
    {
      "constant": false,
      "inputs": [
        {
          "name": "_appNickname",
          "type": "string"
        },
        {
          "name": "_postId",
          "type": "string"
        },
        {
          "name": "_gasPrice",
          "type": "uint256"
        },
        {
          "name": "_gasLimit",
          "type": "uint256"
        }
      ],
      "name": "claimAccountOwnership",
      "outputs": [],
      "payable": true,
      "stateMutability": "payable",
      "type": "function"
    },
    {
      "constant": false,
      "inputs": [
        {
          "name": "_oraclizeID",
          "type": "bytes32"
        },
        {
          "name": "_result",
          "type": "string"
        }
      ],
      "name": "__callback",
      "outputs": [],
      "payable": false,
      "stateMutability": "nonpayable",
      "type": "function"
    },
    {
      "constant": false,
      "inputs": [
        {
          "name": "myid",
          "type": "bytes32"
        },
        {
          "name": "result",
          "type": "string"
        },
        {
          "name": "proof",
          "type": "bytes"
        }
      ],
      "name": "__callback",
      "outputs": [],
      "payable": false,
      "stateMutability": "nonpayable",
      "type": "function"
    }
  ],
  "bytecode": "0x606060405260408051908101604052600581527f312e332e30000000000000000000000000000000000000000000000000000000602082015260069080516200004d929160200190620000c5565b5060408051908101604052601c81527f68747470733a2f2f6170692e7477656564656e746974792e6e65742f000000006020820152600790805162000097929160200190620000c5565b5060058054600160a060020a03191633600160a060020a03161790553415620000bf57600080fd5b6200016a565b828054600181600116156101000203166002900490600052602060002090601f016020900481019282601f106200010857805160ff191683800117855562000138565b8280016001018555821562000138579182015b82811115620001385782518255916020019190600101906200011b565b50620001469291506200014a565b5090565b6200016791905b8082111562000146576000815560010162000151565b90565b6119dd806200017a6000396000f3006060604052600436106100955763ffffffff60e060020a60003504166327dc297e81146100a257806338bbfa50146100f8578063481c6a751461019057806354fd4d50146101bf5780637bbf2300146102495780638367e120146102d85780638da5cb5b146102eb5780639f727c27146102fe578063cf73a1bc14610311578063d0ebdbe714610324578063f2fde38b14610343575b34156100a057600080fd5b005b34156100ad57600080fd5b6100a0600480359060446024803590810190830135806020601f8201819004810201604051908101604052818152929190602084018383808284375094965061036295505050505050565b341561010357600080fd5b6100a0600480359060446024803590810190830135806020601f8201819004810201604051908101604052818152929190602084018383808284378201915050505050509190803590602001908201803590602001908080601f0160208091040260200160405190810160405281815292919060208401838380828437509496506104c095505050505050565b341561019b57600080fd5b6101a36104c5565b604051600160a060020a03909116815260200160405180910390f35b34156101ca57600080fd5b6101d26104d4565b60405160208082528190810183818151815260200191508051906020019080838360005b8381101561020e5780820151838201526020016101f6565b50505050905090810190601f16801561023b5780820380516001836020036101000a031916815260200191505b509250505060405180910390f35b6100a060046024813581810190830135806020601f8201819004810201604051908101604052818152929190602084018383808284378201915050505050509190803590602001908201803590602001908080601f0160208091040260200160405190810160405281815292919060208401838380828437509496505084359460200135935061057292505050565b34156102e357600080fd5b6101d2610a4a565b34156102f657600080fd5b6101a3610ab5565b341561030957600080fd5b6100a0610ac4565b341561031c57600080fd5b6101a3610b17565b341561032f57600080fd5b6100a0600160a060020a0360043516610b26565b341561034e57600080fd5b6100a0600160a060020a0360043516610b82565b61036a610c10565b600160a060020a031633600160a060020a031614151561038957600080fd5b60008151111561048e576009546000838152600860205260409081902060018101549054600160a060020a039384169363b2b5be099391169085905160e060020a63ffffffff861602815260048101848152600160a060020a0384166024830152606060448301908152909160640183818151815260200191508051906020019080838360005b83811015610428578082015183820152602001610410565b50505050905090810190601f1680156104555780820380516001836020036101000a031916815260200191505b50945050505050600060405180830381600087803b151561047557600080fd5b6102c65a03f1151561048657600080fd5b5050506104bc565b817fea3ae050e46978d1dfdae72b67e087e0358002dcd98d24be5a1235300652655f60405160405180910390a25b5050565b505050565b600954600160a060020a031681565b60068054600181600116156101000203166002900480601f01602080910402602001604051908101604052809291908181526020018280546001816001161561010002031660029004801561056a5780601f1061053f5761010080835404028352916020019161056a565b820191906000526020600020905b81548152906001019060200180831161054d57829003601f168201915b505050505081565b61057a6118da565b60095460009086908290600160a060020a031663ad0b38a28383604051602001526040518263ffffffff1660e060020a0281526004018080602001828103825283818151815260200191508051906020019080838360005b838110156105ea5780820151838201526020016105d2565b50505050905090810190601f1680156106175780820380516001836020036101000a031916815260200191505b5092505050602060405180830381600087803b151561063557600080fd5b6102c65a03f1151561064657600080fd5b5050506040518051905011151561065c57600080fd5b600086511161066a57600080fd5b84840234101561067957600080fd5b61068285610db1565b60078054600181600116156101000203166002900480601f0160208091040260200160405190810160405280929190818152602001828054600181600116156101000203166002900480156107185780601f106106ed57610100808354040283529160200191610718565b820191906000526020600020905b8154815290600101906020018083116106fb57829003601f168201915b5087935060009250610728915050565b602002015286836001602002015260408051908101604052600181527f2f000000000000000000000000000000000000000000000000000000000000006020820152836002602002015285836003602002015260408051908101604052600381527f2f30780000000000000000000000000000000000000000000000000000000000602082015260808401526107bd33610f48565b60a084015261080860408051908101604052600381527f55524c000000000000000000000000000000000000000000000000000000000060208201526108028561106c565b8661118b565b915033600160a060020a03167f32fbf8d3f90c050c8364505faa222b4c8b3e6829b596fa4ad20ecd72ec97c063838989604051838152606060208201818152906040830190830185818151815260200191508051906020019080838360005b8381101561087f578082015183820152602001610867565b50505050905090810190601f1680156108ac5780820380516001836020036101000a031916815260200191505b50838103825284818151815260200191508051906020019080838360005b838110156108e25780820151838201526020016108ca565b50505050905090810190601f16801561090f5780820380516001836020036101000a031916815260200191505b509550505050505060405180910390a2604080519081016040908152600160a060020a033381168352600954602084019291169063ad0b38a2908b9060009051602001526040518263ffffffff1660e060020a0281526004018080602001828103825283818151815260200191508051906020019080838360005b838110156109a257808201518382015260200161098a565b50505050905090810190601f1680156109cf5780820380516001836020036101000a031916815260200191505b5092505050602060405180830381600087803b15156109ed57600080fd5b6102c65a03f115156109fe57600080fd5b505050604051805190915250600083815260086020526040902081518154600160a060020a031916600160a060020a039190911617815560208201516001909101555050505050505050565b60078054600181600116156101000203166002900480601f01602080910402602001604051908101604052809291908181526020018280546001816001161561010002031660029004801561056a5780601f1061053f5761010080835404028352916020019161056a565b600554600160a060020a031681565b60055433600160a060020a03908116911614610adf57600080fd5b600554600160a060020a039081169030163180156108fc0290604051600060405180830381858888f193505050501515610b1557fe5b565b600a54600160a060020a031681565b60055433600160a060020a03908116911614610b4157600080fd5b600160a060020a0381161515610b5657600080fd5b600a8054600160a060020a03909216600160a060020a0319928316811790915560098054909216179055565b60055433600160a060020a03908116911614610b9d57600080fd5b600160a060020a0381161515610bb257600080fd5b600554600160a060020a0380831691167f8be0079c531659141344cd1fd0a4f28419497f9722a3daafe3b4186f6b6457e060405160405180910390a360058054600160a060020a031916600160a060020a0392909216919091179055565b60008054600160a060020a03161580610c3b5750600054610c3990600160a060020a0316611511565b155b15610c4c57610c4a6000611515565b505b60008054600160a060020a0316906338cc483190604051602001526040518163ffffffff1660e060020a028152600401602060405180830381600087803b1515610c9557600080fd5b6102c65a03f11515610ca657600080fd5b5050506040518051600154600160a060020a039081169116149050610d495760008054600160a060020a0316906338cc483190604051602001526040518163ffffffff1660e060020a028152600401602060405180830381600087803b1515610d0e57600080fd5b6102c65a03f11515610d1f57600080fd5b505050604051805160018054600160a060020a031916600160a060020a0392909216919091179055505b600154600160a060020a031663c281d19e6000604051602001526040518163ffffffff1660e060020a028152600401602060405180830381600087803b1515610d9157600080fd5b6102c65a03f11515610da257600080fd5b50505060405180519150505b90565b600054600160a060020a03161580610ddb5750600054610dd990600160a060020a0316611511565b155b15610dec57610dea6000611515565b505b60008054600160a060020a0316906338cc483190604051602001526040518163ffffffff1660e060020a028152600401602060405180830381600087803b1515610e3557600080fd5b6102c65a03f11515610e4657600080fd5b5050506040518051600154600160a060020a039081169116149050610ee95760008054600160a060020a0316906338cc483190604051602001526040518163ffffffff1660e060020a028152600401602060405180830381600087803b1515610eae57600080fd5b6102c65a03f11515610ebf57600080fd5b505050604051805160018054600160a060020a031916600160a060020a0392909216919091179055505b600154600160a060020a031663ca6ad1e48260405160e060020a63ffffffff84160281526004810191909152602401600060405180830381600087803b1515610f3157600080fd5b6102c65a03f11515610f4257600080fd5b50505050565b610f50611907565b610f58611907565b6000806000806028604051805910610f6d5750595b818152601f19601f830116810160200160405290509450600093505b6014841015611061578360130360080260020a87600160a060020a0316811515610faf57fe5b0460f860020a02925060108360f860020a900460ff16811515610fce57fe5b0460f860020a0291508160f860020a90046010028360f860020a90040360f860020a029050610ffc82611527565b85856002028151811061100b57fe5b906020010190600160f860020a031916908160001a90535061102c81611527565b85856002026001018151811061103e57fe5b906020010190600160f860020a031916908160001a905350600190930192610f89565b509295945050505050565b611074611907565b60008061107f611907565b611087611907565b600080611092611907565b60009650600095505b60068610156110c5578886600681106110b057fe5b6020020151519096019560019095019461109b565b866040518059106110d35750595b818152601f19601f83011681016020016040529050945084935060009250600095505b600686101561117e5788866006811061110b57fe5b60200201519050600091505b80518210156111735780828151811061112c57fe5b016020015160f860020a900460f860020a0284848060010195508151811061115057fe5b906020010190600160f860020a031916908160001a905350600190910190611117565b6001909501946110f6565b5091979650505050505050565b600080548190600160a060020a031615806111b857506000546111b690600160a060020a0316611511565b155b156111c9576111c76000611515565b505b60008054600160a060020a0316906338cc483190604051602001526040518163ffffffff1660e060020a028152600401602060405180830381600087803b151561121257600080fd5b6102c65a03f1151561122357600080fd5b5050506040518051600154600160a060020a0390811691161490506112c65760008054600160a060020a0316906338cc483190604051602001526040518163ffffffff1660e060020a028152600401602060405180830381600087803b151561128b57600080fd5b6102c65a03f1151561129c57600080fd5b505050604051805160018054600160a060020a031916600160a060020a0392909216919091179055505b600154600160a060020a0316632ef3accc86856000604051602001526040518363ffffffff1660e060020a0281526004018080602001838152602001828103825284818151815260200191508051906020019080838360005b8381101561133757808201518382015260200161131f565b50505050905090810190601f1680156113645780820380516001836020036101000a031916815260200191505b509350505050602060405180830381600087803b151561138357600080fd5b6102c65a03f1151561139457600080fd5b5050506040518051915050670de0b6b3a76400003a8402018111156113bc5760009150611509565b600154600160a060020a031663c51be90f82600088888883604051602001526040518663ffffffff1660e060020a028152600401808581526020018060200180602001848152602001838103835286818151815260200191508051906020019080838360005b8381101561143a578082015183820152602001611422565b50505050905090810190601f1680156114675780820380516001836020036101000a031916815260200191505b50838103825285818151815260200191508051906020019080838360005b8381101561149d578082015183820152602001611485565b50505050905090810190601f1680156114ca5780820380516001836020036101000a031916815260200191505b5096505050505050506020604051808303818588803b15156114eb57600080fd5b6125ee5a03f115156114fc57600080fd5b5050505060405180519250505b509392505050565b3b90565b600061151f6115a3565b90505b919050565b60007f0a000000000000000000000000000000000000000000000000000000000000007fff000000000000000000000000000000000000000000000000000000000000008316101561158b578160f860020a900460300160f860020a029050611522565b8160f860020a900460570160f860020a029050611522565b6000806115c3731d3b2638a7cc9f2cb3d298a3da7a90b67e5506ed611511565b11156116335760008054600160a060020a031916731d3b2638a7cc9f2cb3d298a3da7a90b67e5506ed17905561162b60408051908101604052600b81527f6574685f6d61696e6e657400000000000000000000000000000000000000000060208201526118c7565b506001610dae565b600061165273c03a2615d5efaf5f49f60b7bb6583eaec212fdf1611511565b11156116ba5760008054600160a060020a03191673c03a2615d5efaf5f49f60b7bb6583eaec212fdf117905561162b60408051908101604052600c81527f6574685f726f707374656e33000000000000000000000000000000000000000060208201526118c7565b60006116d973b7a07bcf2ba2f2703b24c0691b5278999c59ac7e611511565b11156117415760008054600160a060020a03191673b7a07bcf2ba2f2703b24c0691b5278999c59ac7e17905561162b60408051908101604052600981527f6574685f6b6f76616e000000000000000000000000000000000000000000000060208201526118c7565b600061176073146500cfd35b22e4a392fe0adc06de1a1368ed48611511565b11156117c85760008054600160a060020a03191673146500cfd35b22e4a392fe0adc06de1a1368ed4817905561162b60408051908101604052600b81527f6574685f72696e6b65627900000000000000000000000000000000000000000060208201526118c7565b60006117e7736f485c8bf6fc43ea212e93bbf8ce046c7f1cb475611511565b111561181b575060008054600160a060020a031916736f485c8bf6fc43ea212e93bbf8ce046c7f1cb4751790556001610dae565b600061183a7320e12a1f859b3feae5fb2a0a32c18f5a65555bbf611511565b111561186e575060008054600160a060020a0319167320e12a1f859b3feae5fb2a0a32c18f5a65555bbf1790556001610dae565b600061188d7351efaf4c8b3c9afbd5ab9f4bbc82784ab6ef8faa611511565b11156118c1575060008054600160a060020a0319167351efaf4c8b3c9afbd5ab9f4bbc82784ab6ef8faa1790556001610dae565b50600090565b60028180516104bc929160200190611919565b60c06040519081016040526006815b6118f1611907565b8152602001906001900390816118e95790505090565b60206040519081016040526000815290565b828054600181600116156101000203166002900490600052602060002090601f016020900481019282601f1061195a57805160ff1916838001178555611987565b82800160010185558215611987579182015b8281111561198757825182559160200191906001019061196c565b50611993929150611997565b5090565b610dae91905b80821115611993576000815560010161199d5600a165627a7a7230582013c7a7c9c36f00d6b91e4135dffb5177ef9ac4c62cddaf1b331145b8b2ab41810029",
  "source": "pragma solidity ^0.4.18;\n\n\nimport '../../ethereum-api/oraclizeAPI_0.5.sol';\nimport 'openzeppelin-solidity/contracts/ownership/HasNoEther.sol';\n\nimport './TweedentityManager.sol';\n\n\n\n/**\n * @title TweedentityClaimer\n * @author Francesco Sullo <francesco@sullo.co>\n * @dev It allow user to self claim ownership of a supported web app account\n */\n\n\n\ncontract TweedentityClaimer\nis usingOraclize, HasNoEther\n{\n\n  string public version = \"1.3.0\";\n\n  string public apiUrl = \"https://api.tweedentity.net/\";\n\n  struct TempData {\n    address sender;\n    uint appId;\n  }\n\n  mapping(bytes32 => TempData) internal __tempData;\n\n  TweedentityManager public manager;\n  address public managerAddress;\n\n\n\n  //events\n\n\n  event VerificationStarted(\n    bytes32 oraclizeId,\n    address indexed addr,\n    string appNickname,\n    string postId\n  );\n\n  event VerificatioFailed(\n    bytes32 indexed oraclizeId\n  );\n\n\n\n  // modifiers\n\n\n  modifier whenAppSet(\n    string _appNickname\n  ) {\n    require(manager.getAppId(_appNickname) > 0);\n    _;\n  }\n\n\n\n  // config\n\n\n  function setManager(\n    address _address\n  )\n  public\n  onlyOwner\n  {\n    require(_address != address(0));\n    managerAddress = _address;\n    manager = TweedentityManager(_address);\n  }\n\n\n\n  // primary methods\n\n\n  /**\n   * @dev Allow a wallet to claim ownership of an account\n   * @param _appNickname Identifies the web app for the account\n   * @param _postId Id id of the post contains the signature\n   * @param _gasPrice The gas price for Oraclize\n   * @param _gasLimit The gas limit for Oraclize\n   */\n  function claimAccountOwnership(\n    string _appNickname,\n    string _postId,\n    uint _gasPrice,\n    uint _gasLimit\n  )\n  public\n  whenAppSet(_appNickname)\n  payable\n  {\n    require(bytes(_postId).length > 0);\n    require(msg.value >= _gasPrice * _gasLimit);\n\n    oraclize_setCustomGasPrice(_gasPrice);\n\n    string[6] memory str;\n    str[0] = apiUrl;\n    str[1] = _appNickname;\n    str[2] = \"/\";\n    str[3] = _postId;\n    str[4] = \"/0x\";\n    str[5] = __addressToString(msg.sender);\n\n    bytes32 oraclizeID = oraclize_query(\n      \"URL\",\n      __concat(str),\n      _gasLimit\n    );\n    VerificationStarted(oraclizeID, msg.sender, _appNickname, _postId);\n    __tempData[oraclizeID] = TempData(msg.sender, manager.getAppId(_appNickname));\n  }\n\n\n  /**\n   * @dev Receive the call from Oraclize\n   * @param _oraclizeID The oraclize id\n   * @param _result The text resulting from requesting the url\n   */\n  function __callback(\n    bytes32 _oraclizeID,\n    string _result\n  )\n  public\n  {\n    require(msg.sender == oraclize_cbAddress());\n    if (bytes(_result).length > 0) {\n      manager.setIdentity(__tempData[_oraclizeID].appId, __tempData[_oraclizeID].sender, _result);\n    } else {\n      VerificatioFailed(_oraclizeID);\n    }\n  }\n\n\n\n  // private methods\n\n\n  function __addressToString(\n    address _address\n  )\n  internal\n  pure\n  returns (string)\n  {\n    bytes memory s = new bytes(40);\n    for (uint i = 0; i < 20; i++) {\n      byte b = byte(uint8(uint(_address) / (2 ** (8 * (19 - i)))));\n      byte hi = byte(uint8(b) / 16);\n      byte lo = byte(uint8(b) - 16 * uint8(hi));\n      s[2 * i] = __char(hi);\n      s[2 * i + 1] = __char(lo);\n    }\n    return string(s);\n  }\n\n\n  function __char(\n    byte b\n  )\n  internal\n  pure\n  returns (byte c)\n  {\n    if (b < 10) return byte(uint8(b) + 0x30);\n    else return byte(uint8(b) + 0x57);\n  }\n\n\n  function __concat(\n    string[6] _strings\n  )\n  internal\n  pure\n  returns (string)\n  {\n    uint len = 0;\n    uint i;\n    for (i = 0; i < _strings.length; i++) {\n      len = len + bytes(_strings[i]).length;\n    }\n    string memory str = new string(len);\n    bytes memory bstr = bytes(str);\n    uint k = 0;\n    uint j;\n    bytes memory b;\n    for (i = 0; i < _strings.length; i++) {\n      b = bytes(_strings[i]);\n      for (j = 0; j < b.length; j++) bstr[k++] = b[j];\n    }\n    return string(bstr);\n  }\n\n}\n",
  "sourcePath": "/Users/sullof/Projects/tweedentity-dapp/store/contracts/TweedentityClaimer.sol",
  "compiler": {
    "name": "solc",
    "version": "0.4.19+commit.c4cbbb05.Emscripten.clang"
  },
  "schemaVersion": "2.0.0",
  "updatedAt": "2018-06-27T18:49:26.069Z"
}