{
  "contractName": "TweedentityRegistry",
  "abi": [
    {
      "constant": true,
      "inputs": [],
      "name": "wrongClaimerOrUnsetInManager",
      "outputs": [
        {
          "name": "",
          "type": "uint256"
        }
      ],
      "payable": false,
      "stateMutability": "view",
      "type": "function"
    },
    {
      "constant": true,
      "inputs": [],
      "name": "allSet",
      "outputs": [
        {
          "name": "",
          "type": "uint256"
        }
      ],
      "payable": false,
      "stateMutability": "view",
      "type": "function"
    },
    {
      "constant": true,
      "inputs": [],
      "name": "wrongManagerOrUnsetInClaimer",
      "outputs": [
        {
          "name": "",
          "type": "uint256"
        }
      ],
      "payable": false,
      "stateMutability": "view",
      "type": "function"
    },
    {
      "constant": true,
      "inputs": [],
      "name": "manager",
      "outputs": [
        {
          "name": "",
          "type": "address"
        }
      ],
      "payable": false,
      "stateMutability": "view",
      "type": "function"
    },
    {
      "constant": true,
      "inputs": [],
      "name": "noStoresSet",
      "outputs": [
        {
          "name": "",
          "type": "uint256"
        }
      ],
      "payable": false,
      "stateMutability": "view",
      "type": "function"
    },
    {
      "constant": true,
      "inputs": [],
      "name": "fromVersion",
      "outputs": [
        {
          "name": "",
          "type": "string"
        }
      ],
      "payable": false,
      "stateMutability": "view",
      "type": "function"
    },
    {
      "constant": true,
      "inputs": [],
      "name": "owner",
      "outputs": [
        {
          "name": "",
          "type": "address"
        }
      ],
      "payable": false,
      "stateMutability": "view",
      "type": "function"
    },
    {
      "constant": false,
      "inputs": [],
      "name": "reclaimEther",
      "outputs": [],
      "payable": false,
      "stateMutability": "nonpayable",
      "type": "function"
    },
    {
      "constant": true,
      "inputs": [],
      "name": "managerUnset",
      "outputs": [
        {
          "name": "",
          "type": "uint256"
        }
      ],
      "payable": false,
      "stateMutability": "view",
      "type": "function"
    },
    {
      "constant": true,
      "inputs": [],
      "name": "claimer",
      "outputs": [
        {
          "name": "",
          "type": "address"
        }
      ],
      "payable": false,
      "stateMutability": "view",
      "type": "function"
    },
    {
      "constant": true,
      "inputs": [],
      "name": "managerNotSetInApp",
      "outputs": [
        {
          "name": "",
          "type": "uint256"
        }
      ],
      "payable": false,
      "stateMutability": "view",
      "type": "function"
    },
    {
      "constant": true,
      "inputs": [],
      "name": "claimerUnset",
      "outputs": [
        {
          "name": "",
          "type": "uint256"
        }
      ],
      "payable": false,
      "stateMutability": "view",
      "type": "function"
    },
    {
      "constant": true,
      "inputs": [],
      "name": "noStoreIsActive",
      "outputs": [
        {
          "name": "",
          "type": "uint256"
        }
      ],
      "payable": false,
      "stateMutability": "view",
      "type": "function"
    },
    {
      "constant": false,
      "inputs": [
        {
          "name": "newOwner",
          "type": "address"
        }
      ],
      "name": "transferOwnership",
      "outputs": [],
      "payable": false,
      "stateMutability": "nonpayable",
      "type": "function"
    },
    {
      "constant": true,
      "inputs": [],
      "name": "managerIsPaused",
      "outputs": [
        {
          "name": "",
          "type": "uint256"
        }
      ],
      "payable": false,
      "stateMutability": "view",
      "type": "function"
    },
    {
      "payable": false,
      "stateMutability": "nonpayable",
      "type": "fallback"
    },
    {
      "anonymous": false,
      "inputs": [
        {
          "indexed": true,
          "name": "key",
          "type": "bytes32"
        },
        {
          "indexed": false,
          "name": "spec",
          "type": "string"
        },
        {
          "indexed": false,
          "name": "addr",
          "type": "address"
        }
      ],
      "name": "ContractRegistered",
      "type": "event"
    },
    {
      "anonymous": false,
      "inputs": [
        {
          "indexed": true,
          "name": "previousOwner",
          "type": "address"
        },
        {
          "indexed": true,
          "name": "newOwner",
          "type": "address"
        }
      ],
      "name": "OwnershipTransferred",
      "type": "event"
    },
    {
      "constant": false,
      "inputs": [
        {
          "name": "_manager",
          "type": "address"
        }
      ],
      "name": "setManager",
      "outputs": [],
      "payable": false,
      "stateMutability": "nonpayable",
      "type": "function"
    },
    {
      "constant": false,
      "inputs": [
        {
          "name": "_claimer",
          "type": "address"
        }
      ],
      "name": "setClaimer",
      "outputs": [],
      "payable": false,
      "stateMutability": "nonpayable",
      "type": "function"
    },
    {
      "constant": false,
      "inputs": [
        {
          "name": "_manager",
          "type": "address"
        },
        {
          "name": "_claimer",
          "type": "address"
        }
      ],
      "name": "setManagerAndClaimer",
      "outputs": [],
      "payable": false,
      "stateMutability": "nonpayable",
      "type": "function"
    },
    {
      "constant": true,
      "inputs": [
        {
          "name": "_appNickname",
          "type": "string"
        }
      ],
      "name": "getStore",
      "outputs": [
        {
          "name": "",
          "type": "address"
        }
      ],
      "payable": false,
      "stateMutability": "view",
      "type": "function"
    },
    {
      "constant": true,
      "inputs": [],
      "name": "isReady",
      "outputs": [
        {
          "name": "",
          "type": "uint256"
        }
      ],
      "payable": false,
      "stateMutability": "view",
      "type": "function"
    }
  ],
  "bytecode": "0x606060405260408051908101604052600581527f312e302e300000000000000000000000000000000000000000000000000000006020820152600190805161004b9291602001906100a6565b5060006004819055600a60058190556014600655601e60075560286008556032600955603c90556046600b556103e8600c558054600160a060020a03191633600160a060020a031617905534156100a157600080fd5b610141565b828054600181600116156101000203166002900490600052602060002090601f016020900481019282601f106100e757805160ff1916838001178555610114565b82800160010185558215610114579182015b828111156101145782518255916020019190600101906100f9565b50610120929150610124565b5090565b61013e91905b80821115610120576000815560010161012a565b90565b610cb4806101506000396000f3006060604052600436106100f85763ffffffff60e060020a60003504166301c432ce8114610105578063292d98cd1461012a5780632cdcb1fc1461013d578063481c6a7514610150578063484f4bc01461017f57806355869af1146101925780638da5cb5b1461021c5780638df35abe1461022f5780639f727c2714610254578063a094a03114610267578063cdfb58321461027a578063d0ebdbe714610299578063d217b149146102b8578063d379be23146102cb578063d5dd5127146102de578063e088a96b146102f1578063ed4e65fb14610304578063f2fde38b14610317578063f77ca20814610336578063ffc3121514610349575b341561010357600080fd5b005b341561011057600080fd5b61011861039a565b60405190815260200160405180910390f35b341561013557600080fd5b6101186103a0565b341561014857600080fd5b6101186103a6565b341561015b57600080fd5b6101636103ac565b604051600160a060020a03909116815260200160405180910390f35b341561018a57600080fd5b6101186103bb565b341561019d57600080fd5b6101a56103c1565b60405160208082528190810183818151815260200191508051906020019080838360005b838110156101e15780820151838201526020016101c9565b50505050905090810190601f16801561020e5780820380516001836020036101000a031916815260200191505b509250505060405180910390f35b341561022757600080fd5b61016361045f565b341561023a57600080fd5b610103600160a060020a036004358116906024351661046e565b341561025f57600080fd5b61010361049f565b341561027257600080fd5b6101186104f2565b341561028557600080fd5b610103600160a060020a0360043516610935565b34156102a457600080fd5b610103600160a060020a0360043516610a0e565b34156102c357600080fd5b610118610ae7565b34156102d657600080fd5b610163610aed565b34156102e957600080fd5b610118610afc565b34156102fc57600080fd5b610118610b02565b341561030f57600080fd5b610118610b08565b341561032257600080fd5b610103600160a060020a0360043516610b0e565b341561034157600080fd5b610118610ba9565b341561035457600080fd5b61016360046024813581810190830135806020601f82018190048102016040519081016040528181529291906020840183838082843750949650610baf95505050505050565b60075481565b60045481565b60085481565b600254600160a060020a031681565b60095481565b60018054600181600116156101000203166002900480601f0160208091040260200160405190810160405280929190818152602001828054600181600116156101000203166002900480156104575780601f1061042c57610100808354040283529160200191610457565b820191906000526020600020905b81548152906001019060200180831161043a57829003601f168201915b505050505081565b600054600160a060020a031681565b60005433600160a060020a0390811691161461048957600080fd5b61049282610a0e565b61049b81610935565b5050565b60005433600160a060020a039081169116146104ba57600080fd5b600054600160a060020a039081169030163180156108fc0290604051600060405180830381858888f1935050505015156104f057fe5b565b600254600090819081908190819081908190600160a060020a0316151561051d57600554965061092c565b600354600160a060020a0316151561053957600654965061092c565b600254600354600160a060020a039182169750169450848663d379be236000604051602001526040518163ffffffff1660e060020a028152600401602060405180830381600087803b151561058d57600080fd5b6102c65a03f1151561059e57600080fd5b50505060405180519050600160a060020a03161415156105c257600754965061092c565b600254600160a060020a0390811690861663481c6a756000604051602001526040518163ffffffff1660e060020a028152600401602060405180830381600087803b151561060f57600080fd5b6102c65a03f1151561062057600080fd5b50505060405180519050600160a060020a031614151561064457600854965061092c565b85600160a060020a03166315f063f76000604051602001526040518163ffffffff1660e060020a028152600401602060405180830381600087803b151561068a57600080fd5b6102c65a03f1151561069b57600080fd5b50505060405180519450508315156106b757600954965061092c565b600191505b8382116108a05785600160a060020a03166365ef7b958360006040516020015260405160e060020a63ffffffff84160281526004810191909152602401602060405180830381600087803b151561071257600080fd5b6102c65a03f1151561072357600080fd5b5050506040518051915050600160a060020a038616638cc60a618360006040516020015260405160e060020a63ffffffff84160281526004810191909152602401602060405180830381600087803b151561077d57600080fd5b6102c65a03f1151561078e57600080fd5b50505060405180519050156107a257600192505b85600160a060020a0316638cc60a618360006040516020015260405160e060020a63ffffffff84160281526004810191909152602401602060405180830381600087803b15156107f157600080fd5b6102c65a03f1151561080257600080fd5b505050604051805190501561089557600254600160a060020a0390811690821663481c6a756000604051602001526040518163ffffffff1660e060020a028152600401602060405180830381600087803b151561085e57600080fd5b6102c65a03f1151561086f57600080fd5b50505060405180519050600160a060020a03161415156108955781600c5401965061092c565b6001909101906106bc565b8215156108b157600a54965061092c565b85600160a060020a0316635c975abb6000604051602001526040518163ffffffff1660e060020a028152600401602060405180830381600087803b15156108f757600080fd5b6102c65a03f1151561090857600080fd5b5050506040518051151560011415905061092657600b54965061092c565b60045496505b50505050505090565b60005433600160a060020a0390811691161461095057600080fd5b600160a060020a038116151561096557600080fd5b6003805473ffffffffffffffffffffffffffffffffffffffff1916600160a060020a0383161790556040517f636c61696d65720000000000000000000000000000000000000000000000000081526007016040519081900390207f4b83fc921eb87ab895fdb62b46f6fda5c80090eee7907fd2e50481b669142b3c82604051600160a060020a03909116602082015260408082526000818301526080909101905180910390a250565b60005433600160a060020a03908116911614610a2957600080fd5b600160a060020a0381161515610a3e57600080fd5b6002805473ffffffffffffffffffffffffffffffffffffffff1916600160a060020a0383161790556040517f6d616e616765720000000000000000000000000000000000000000000000000081526007016040519081900390207f4b83fc921eb87ab895fdb62b46f6fda5c80090eee7907fd2e50481b669142b3c82604051600160a060020a03909116602082015260408082526000818301526080909101905180910390a250565b60055481565b600354600160a060020a031681565b600c5481565b60065481565b600a5481565b60005433600160a060020a03908116911614610b2957600080fd5b600160a060020a0381161515610b3e57600080fd5b600054600160a060020a0380831691167f8be0079c531659141344cd1fd0a4f28419497f9722a3daafe3b4186f6b6457e060405160405180910390a36000805473ffffffffffffffffffffffffffffffffffffffff1916600160a060020a0392909216919091179055565b600b5481565b600254600090600160a060020a0316806396d122ea8484604051602001526040518263ffffffff1660e060020a0281526004018080602001828103825283818151815260200191508051906020019080838360005b83811015610c1c578082015183820152602001610c04565b50505050905090810190601f168015610c495780820380516001836020036101000a031916815260200191505b5092505050602060405180830381600087803b1515610c6757600080fd5b6102c65a03f11515610c7857600080fd5b50505060405180519493505050505600a165627a7a7230582098232f48a8c1105891f3f75533c71d10d4ca97c083fa6eea4614f2a08236ab2d0029",
  "source": "pragma solidity ^0.4.18;\n\n\nimport 'openzeppelin-solidity/contracts/ownership/HasNoEther.sol';\n\n\ninterface ManagerInterface {\n\n  function paused()\n  public\n  constant returns (bool);\n\n\n  function claimer()\n  public\n  constant returns (address);\n\n  function totalStores()\n  public\n  constant returns (uint);\n\n\n  function getStoreAddress(\n    string _appNickname\n  )\n  external\n  constant returns (address);\n\n\n  function getStoreAddressById(\n    uint _appId\n  )\n  external\n  constant returns (address);\n\n\n  function isStoreActive(\n    uint _appId\n  )\n  public\n  constant returns (bool);\n\n}\n\ninterface ClaimerInterface {\n\n  function manager()\n  public\n  constant returns (address);\n}\n\n\ninterface StoreInterface {\n\n  function appSet()\n  public\n  constant returns (bool);\n\n\n  function manager()\n  public\n  constant returns (address);\n\n}\n\n\n/**\n * @title TweedentityRegistry\n * @author Francesco Sullo <francesco@sullo.co>\n * @dev It store the tweedentities contracts addresses to allows dapp to be updated\n */\n\n\ncontract TweedentityRegistry\nis HasNoEther\n{\n\n  string public fromVersion = \"1.0.0\";\n\n  address public manager;\n  address public claimer;\n\n  event ContractRegistered(\n    bytes32 indexed key,\n    string spec,\n    address addr\n  );\n\n\n  function setManager(\n    address _manager\n  )\n  public\n  onlyOwner\n  {\n    require(_manager != address(0));\n    manager = _manager;\n    ContractRegistered(keccak256(\"manager\"), \"\", _manager);\n  }\n\n\n  function setClaimer(\n    address _claimer\n  )\n  public\n  onlyOwner\n  {\n    require(_claimer != address(0));\n    claimer = _claimer;\n    ContractRegistered(keccak256(\"claimer\"), \"\", _claimer);\n  }\n\n\n  function setManagerAndClaimer(\n    address _manager,\n    address _claimer\n  )\n  external\n  onlyOwner\n  {\n    setManager(_manager);\n    setClaimer(_claimer);\n  }\n\n\n  /**\n   * @dev Gets the store managing the specified app\n   * @param _appNickname The nickname of the app\n   */\n  function getStore(\n    string _appNickname\n  )\n  public\n  constant returns (address)\n  {\n    ManagerInterface theManager = ManagerInterface(manager);\n    return theManager.getStoreAddress(_appNickname);\n  }\n\n\n  // error codes\n\n  uint public allSet = 0;\n  uint public managerUnset = 10;\n  uint public claimerUnset = 20;\n  uint public wrongClaimerOrUnsetInManager = 30;\n  uint public wrongManagerOrUnsetInClaimer = 40;\n  uint public noStoresSet = 50;\n  uint public noStoreIsActive = 60;\n  uint public managerIsPaused = 70;\n  uint public managerNotSetInApp = 1000;\n\n  /**\n   * @dev Returns true if the registry looks ready\n   */\n  function isReady()\n  external\n  constant returns (uint)\n  {\n    if (manager == address(0)) {\n      return managerUnset;\n    }\n    if (claimer == address(0)) {\n      return claimerUnset;\n    }\n    ManagerInterface theManager = ManagerInterface(manager);\n    ClaimerInterface theClaimer = ClaimerInterface(claimer);\n    if (theManager.claimer() != claimer) {\n      return wrongClaimerOrUnsetInManager;\n    }\n    if (theClaimer.manager() != manager) {\n      return wrongManagerOrUnsetInClaimer;\n    }\n    uint totalStores = theManager.totalStores();\n    if (totalStores == 0) {\n      return noStoresSet;\n    }\n    bool atLeastOneIsActive;\n    for (uint i = 1; i <= totalStores; i++) {\n      StoreInterface theStore = StoreInterface(theManager.getStoreAddressById(i));\n      if (theManager.isStoreActive(i)) {\n        atLeastOneIsActive = true;\n      }\n      if (theManager.isStoreActive(i)) {\n        if (theStore.manager() != manager) {\n          return managerNotSetInApp + i;\n        }\n      }\n    }\n    if (atLeastOneIsActive == false) {\n      return noStoreIsActive;\n    }\n    if (theManager.paused() == true) {\n      return managerIsPaused;\n    }\n    return allSet;\n  }\n\n}\n",
  "sourcePath": "/Users/sullof/Projects/tweedentity-dapp/store/contracts/TweedentityRegistry.sol",
  "compiler": {
    "name": "solc",
    "version": "0.4.19+commit.c4cbbb05.Emscripten.clang"
  },
  "schemaVersion": "2.0.0",
  "updatedAt": "2018-06-28T05:18:25.872Z"
}