{
  "contractName": "TweedentityStore",
  "abi": [
    {
      "constant": true,
      "inputs": [],
      "name": "newManager",
      "outputs": [
        {
          "name": "",
          "type": "address"
        }
      ],
      "payable": false,
      "stateMutability": "view",
      "type": "function"
    },
    {
      "constant": true,
      "inputs": [],
      "name": "manager",
      "outputs": [
        {
          "name": "",
          "type": "address"
        }
      ],
      "payable": false,
      "stateMutability": "view",
      "type": "function"
    },
    {
      "constant": true,
      "inputs": [],
      "name": "version",
      "outputs": [
        {
          "name": "",
          "type": "string"
        }
      ],
      "payable": false,
      "stateMutability": "view",
      "type": "function"
    },
    {
      "constant": true,
      "inputs": [],
      "name": "appSet",
      "outputs": [
        {
          "name": "",
          "type": "bool"
        }
      ],
      "payable": false,
      "stateMutability": "view",
      "type": "function"
    },
    {
      "constant": true,
      "inputs": [],
      "name": "appId",
      "outputs": [
        {
          "name": "",
          "type": "uint256"
        }
      ],
      "payable": false,
      "stateMutability": "view",
      "type": "function"
    },
    {
      "constant": true,
      "inputs": [],
      "name": "owner",
      "outputs": [
        {
          "name": "",
          "type": "address"
        }
      ],
      "payable": false,
      "stateMutability": "view",
      "type": "function"
    },
    {
      "constant": false,
      "inputs": [],
      "name": "reclaimEther",
      "outputs": [],
      "payable": false,
      "stateMutability": "nonpayable",
      "type": "function"
    },
    {
      "constant": true,
      "inputs": [],
      "name": "appNickname",
      "outputs": [
        {
          "name": "",
          "type": "string"
        }
      ],
      "payable": false,
      "stateMutability": "view",
      "type": "function"
    },
    {
      "constant": true,
      "inputs": [],
      "name": "checker",
      "outputs": [
        {
          "name": "",
          "type": "address"
        }
      ],
      "payable": false,
      "stateMutability": "view",
      "type": "function"
    },
    {
      "constant": true,
      "inputs": [],
      "name": "identities",
      "outputs": [
        {
          "name": "",
          "type": "uint256"
        }
      ],
      "payable": false,
      "stateMutability": "view",
      "type": "function"
    },
    {
      "constant": false,
      "inputs": [
        {
          "name": "newOwner",
          "type": "address"
        }
      ],
      "name": "transferOwnership",
      "outputs": [],
      "payable": false,
      "stateMutability": "nonpayable",
      "type": "function"
    },
    {
      "payable": false,
      "stateMutability": "nonpayable",
      "type": "fallback"
    },
    {
      "anonymous": false,
      "inputs": [
        {
          "indexed": true,
          "name": "addr",
          "type": "address"
        },
        {
          "indexed": false,
          "name": "uid",
          "type": "string"
        }
      ],
      "name": "IdentitySet",
      "type": "event"
    },
    {
      "anonymous": false,
      "inputs": [
        {
          "indexed": true,
          "name": "addr",
          "type": "address"
        },
        {
          "indexed": false,
          "name": "uid",
          "type": "string"
        }
      ],
      "name": "IdentityUnset",
      "type": "event"
    },
    {
      "anonymous": false,
      "inputs": [
        {
          "indexed": true,
          "name": "previousOwner",
          "type": "address"
        },
        {
          "indexed": true,
          "name": "newOwner",
          "type": "address"
        }
      ],
      "name": "OwnershipTransferred",
      "type": "event"
    },
    {
      "constant": false,
      "inputs": [
        {
          "name": "_address",
          "type": "address"
        }
      ],
      "name": "setNewChecker",
      "outputs": [],
      "payable": false,
      "stateMutability": "nonpayable",
      "type": "function"
    },
    {
      "constant": false,
      "inputs": [
        {
          "name": "_address",
          "type": "address"
        }
      ],
      "name": "setManager",
      "outputs": [],
      "payable": false,
      "stateMutability": "nonpayable",
      "type": "function"
    },
    {
      "constant": false,
      "inputs": [
        {
          "name": "_address",
          "type": "address"
        }
      ],
      "name": "setNewManager",
      "outputs": [],
      "payable": false,
      "stateMutability": "nonpayable",
      "type": "function"
    },
    {
      "constant": false,
      "inputs": [],
      "name": "switchManagerAndRemoveOldOne",
      "outputs": [],
      "payable": false,
      "stateMutability": "nonpayable",
      "type": "function"
    },
    {
      "constant": false,
      "inputs": [
        {
          "name": "_appNickname",
          "type": "string"
        },
        {
          "name": "_appId",
          "type": "uint256"
        },
        {
          "name": "_checker",
          "type": "address"
        }
      ],
      "name": "setApp",
      "outputs": [],
      "payable": false,
      "stateMutability": "nonpayable",
      "type": "function"
    },
    {
      "constant": true,
      "inputs": [
        {
          "name": "_address",
          "type": "address"
        },
        {
          "name": "_uid",
          "type": "string"
        }
      ],
      "name": "isUpgradable",
      "outputs": [
        {
          "name": "",
          "type": "bool"
        }
      ],
      "payable": false,
      "stateMutability": "view",
      "type": "function"
    },
    {
      "constant": false,
      "inputs": [
        {
          "name": "_address",
          "type": "address"
        },
        {
          "name": "_uid",
          "type": "string"
        }
      ],
      "name": "setIdentity",
      "outputs": [],
      "payable": false,
      "stateMutability": "nonpayable",
      "type": "function"
    },
    {
      "constant": false,
      "inputs": [
        {
          "name": "_address",
          "type": "address"
        }
      ],
      "name": "unsetIdentity",
      "outputs": [],
      "payable": false,
      "stateMutability": "nonpayable",
      "type": "function"
    },
    {
      "constant": true,
      "inputs": [],
      "name": "getAppNickname",
      "outputs": [
        {
          "name": "",
          "type": "bytes32"
        }
      ],
      "payable": false,
      "stateMutability": "view",
      "type": "function"
    },
    {
      "constant": true,
      "inputs": [],
      "name": "getAppId",
      "outputs": [
        {
          "name": "",
          "type": "uint256"
        }
      ],
      "payable": false,
      "stateMutability": "view",
      "type": "function"
    },
    {
      "constant": true,
      "inputs": [
        {
          "name": "_address",
          "type": "address"
        }
      ],
      "name": "getUid",
      "outputs": [
        {
          "name": "",
          "type": "string"
        }
      ],
      "payable": false,
      "stateMutability": "view",
      "type": "function"
    },
    {
      "constant": true,
      "inputs": [
        {
          "name": "_uid",
          "type": "string"
        }
      ],
      "name": "getAddress",
      "outputs": [
        {
          "name": "",
          "type": "address"
        }
      ],
      "payable": false,
      "stateMutability": "view",
      "type": "function"
    },
    {
      "constant": true,
      "inputs": [
        {
          "name": "_address",
          "type": "address"
        }
      ],
      "name": "getAddressLastUpdate",
      "outputs": [
        {
          "name": "",
          "type": "uint256"
        }
      ],
      "payable": false,
      "stateMutability": "view",
      "type": "function"
    },
    {
      "constant": true,
      "inputs": [
        {
          "name": "_uid",
          "type": "string"
        }
      ],
      "name": "getUidLastUpdate",
      "outputs": [
        {
          "name": "",
          "type": "uint256"
        }
      ],
      "payable": false,
      "stateMutability": "view",
      "type": "function"
    },
    {
      "constant": true,
      "inputs": [
        {
          "name": "_uid",
          "type": "string"
        }
      ],
      "name": "isUid",
      "outputs": [
        {
          "name": "",
          "type": "bool"
        }
      ],
      "payable": false,
      "stateMutability": "view",
      "type": "function"
    }
  ],
  "bytecode": "0x606060405260408051908101604052600581527f312e352e30000000000000000000000000000000000000000000000000000000602082015260019080516200004d9291602001906200007b565b5060008054600160a060020a03191633600160a060020a031617905534156200007557600080fd5b62000120565b828054600181600116156101000203166002900490600052602060002090601f016020900481019282601f10620000be57805160ff1916838001178555620000ee565b82800160010185558215620000ee579182015b82811115620000ee578251825591602001919060010190620000d1565b50620000fc92915062000100565b5090565b6200011d91905b80821115620000fc576000815560010162000107565b90565b61164780620001306000396000f3006060604052600436106101535763ffffffff7c01000000000000000000000000000000000000000000000000000000006000350416631c3b1e5d811461016057806328faf2171461017f578063429060291461019e57806344ae2c03146101cd578063481c6a75146101f25780634ef8086a14610205578063502fe2511461021857806354fd4d5014610236578063686e177b146102c0578063693dde5c1461033357806369bdd5dd1461034657806380afdea814610359578063897cab171461036c5780638da5cb5b146103975780638ec5ff41146103aa5780639f727c27146103fb578063bf40fac11461040e578063bf749b6a1461042c578063bff5fb641461044b578063cf5303cf1461045e578063d0ebdbe714610471578063d30f945a14610490578063de9f4248146104af578063ded5bd14146104c2578063ed186571146104f0578063f2fde38b1461050f575b341561015e57600080fd5b005b341561016b57600080fd5b61015e600160a060020a036004351661052e565b341561018a57600080fd5b61015e600160a060020a0360043516610580565b34156101a957600080fd5b6101b161091f565b604051600160a060020a03909116815260200160405180910390f35b34156101d857600080fd5b6101e061092e565b60405190815260200160405180910390f35b34156101fd57600080fd5b6101b16109b2565b341561021057600080fd5b61015e6109c1565b341561022357600080fd5b6101e06004803560248101910135610a03565b341561024157600080fd5b610249610a37565b60405160208082528190810183818151815260200191508051906020019080838360005b8381101561028557808201518382015260200161026d565b50505050905090810190601f1680156102b25780820380516001836020036101000a031916815260200191505b509250505060405180910390f35b34156102cb57600080fd5b61031f60048035600160a060020a03169060446024803590810190830135806020601f82018190048102016040519081016040528181529291906020840183838082843750949650610ad595505050505050565b604051901515815260200160405180910390f35b341561033e57600080fd5b6101e0610c20565b341561035157600080fd5b61031f610c3b565b341561036457600080fd5b6101e0610c44565b341561037757600080fd5b61015e60048035600160a060020a03169060248035908101910135610c4a565b34156103a257600080fd5b6101b1611022565b34156103b557600080fd5b61031f60046024813581810190830135806020601f8201819004810201604051908101604052818152929190602084018383808284375094965061103195505050505050565b341561040657600080fd5b61015e611121565b341561041957600080fd5b6101b16004803560248101910135611174565b341561043757600080fd5b610249600160a060020a03600435166111ad565b341561045657600080fd5b61024961127d565b341561046957600080fd5b6101b16112e8565b341561047c57600080fd5b61015e600160a060020a03600435166112f7565b341561049b57600080fd5b61015e600160a060020a0360043516611349565b34156104ba57600080fd5b6101e06113b3565b34156104cd57600080fd5b61015e602460048035828101929101359035600160a060020a03604435166113b9565b34156104fb57600080fd5b6101e0600160a060020a0360043516611457565b341561051a57600080fd5b61015e600160a060020a0360043516611475565b60005433600160a060020a0390811691161461054957600080fd5b600160a060020a038116151561055e57600080fd5b60078054600160a060020a031916600160a060020a0392909216919091179055565b610588611503565b60055433600160a060020a03908116911614806105c85750600654600160a060020a0316158015906105c8575060065433600160a060020a039081169116145b15156105d357600080fd5b600a5460ff1615156105e457600080fd5b600160a060020a03821615156105f957600080fd5b600160a060020a038216600090815260096020526040812054600260001961010060018416150201909116041161062f57600080fd5b6009600083600160a060020a0316600160a060020a031681526020019081526020016000206000018054600181600116156101000203166002900480601f0160208091040260200160405190810160405280929190818152602001828054600181600116156101000203166002900480156106eb5780601f106106c0576101008083540402835291602001916106eb565b820191906000526020600020905b8154815290600101906020018083116106ce57829003601f168201915b505050505090506040805190810160405280602060405190810160409081526000808352918352600160a060020a0386168083526009602081815292842060018101549584019590955292525281518190805161074c929160200190611515565b5060208201516001909101555060408051908101604052806000600160a060020a031681526020016008836040518082805190602001908083835b602083106107a65780518252601f199092019160209182019101610787565b6001836020036101000a0380198251168184511680821785525050505050509050019150509081526020016040518091039020600101548152506008826040518082805190602001908083835b602083106108125780518252601f1990920191602091820191016107f3565b6001836020036101000a03801982511681845116808217855250505050505090500191505090815260200160405190819003902081518154600160a060020a031916600160a060020a039190911617815560208201516001909101555060048054600019019055600160a060020a0382167fbcf27d646501987f37d06dde232c521019931de1dc82a429d07e6a5f8b13c4528260405160208082528190810183818151815260200191508051906020019080838360005b838110156108e15780820151838201526020016108c9565b50505050905090810190601f16801561090e5780820380516001836020036101000a031916815260200191505b509250505060405180910390a25050565b600654600160a060020a031681565b600a5460009060ff16151561094257600080fd5b6003604051808280546001816001161561010002031660029004801561099f5780601f1061097d57610100808354040283529182019161099f565b820191906000526020600020905b81548152906001019060200180831161098b575b5050915050604051809103902090505b90565b600554600160a060020a031681565b60005433600160a060020a039081169116146109dc57600080fd5b6006805460058054600160a060020a0319908116600160a060020a03841617909155169055565b6000600883836040518083838082843782019150509250505090815260200160405180910390206001015490505b92915050565b60018054600181600116156101000203166002900480601f016020809104026020016040519081016040528092919081815260200182805460018160011615610100020316600290048015610acd5780601f10610aa257610100808354040283529160200191610acd565b820191906000526020600020905b815481529060010190602001808311610ab057829003601f168201915b505050505081565b6000806008836040518082805190602001908083835b60208310610b0a5780518252601f199092019160209182019101610aeb565b6001836020036101000a03801982511681845116808217855250505050505090500191505090815260200160405190819003902054600160a060020a031614610c1757816040518082805190602001908083835b60208310610b7d5780518252601f199092019160209182019101610b5e565b6001836020036101000a0380198251168184511617909252505050919091019250604091505051908190039020610bb3846111ad565b6040518082805190602001908083835b60208310610be25780518252601f199092019160209182019101610bc3565b6001836020036101000a0380198251168184511617909252505050919091019250604091505051908190039020149050610a31565b50600192915050565b600a5460009060ff161515610c3457600080fd5b5060025490565b600a5460ff1681565b60025481565b60055433600160a060020a0390811691161480610c8a5750600654600160a060020a031615801590610c8a575060065433600160a060020a039081169116145b1515610c9557600080fd5b600a5460ff161515610ca657600080fd5b600160a060020a0383161515610cbb57600080fd5b610cf382828080601f016020809104026020016040519081016040528181529291906020840183838082843750611031945050505050565b1515610cfe57600080fd5b610d378383838080601f016020809104026020016040519081016040528181529291906020840183838082843750610ad5945050505050565b1515610d4257600080fd5b600160a060020a038316600090815260096020526040812054600260001961010060018416150201909116041115610ed3576040805190810160409081526000808352600160a060020a038616815260096020908152908290209083019160089190518082805460018160011615610100020316600290048015610dfd5780601f10610ddb576101008083540402835291820191610dfd565b820191906000526020600020905b815481529060010190602001808311610de9575b50509283525050602001604051908190039020600101549052600160a060020a03841660009081526009602052604090819020600891518082805460018160011615610100020316600290048015610e8c5780601f10610e6a576101008083540402835291820191610e8c565b820191906000526020600020905b815481529060010190602001808311610e78575b5050928352505060200160405190819003902081518154600160a060020a031916600160a060020a0391909116178155602082015160019091015550600480546000190190555b604080519081016040528083838080601f016020809104026020016040519081016040528181529291906020840183838082843750505092845250504260209283015250600160a060020a0385166000908152600990915260409020815181908051610f43929160200190611515565b50602082015160019091015550604080519081016040528084600160a060020a0316815260200142815250600883836040518083838082843782019150509250505090815260200160405190819003902081518154600160a060020a031916600160a060020a0391909116178155602082015160019182015560048054909101905550600160a060020a0383167f94e5d971bd7bf5b224803c026e42d9c1e3f7082f7f82a118fd306d8a8496350c83836040516020808252810182905280604081018484808284378201915050935050505060405180910390a2505050565b600054600160a060020a031681565b600754600090600160a060020a0316638ec5ff418383604051602001526040518263ffffffff167c01000000000000000000000000000000000000000000000000000000000281526004018080602001828103825283818151815260200191508051906020019080838360005b838110156110b657808201518382015260200161109e565b50505050905090810190601f1680156110e35780820380516001836020036101000a031916815260200191505b5092505050602060405180830381600087803b151561110157600080fd5b6102c65a03f1151561111257600080fd5b50505060405180519392505050565b60005433600160a060020a0390811691161461113c57600080fd5b600054600160a060020a039081169030163180156108fc0290604051600060405180830381858888f19350505050151561117257fe5b565b6000600883836040518083838082843782019150509250505090815260200160405190819003902054600160a060020a03169392505050565b6111b5611503565b6009600083600160a060020a0316600160a060020a031681526020019081526020016000206000018054600181600116156101000203166002900480601f0160208091040260200160405190810160405280929190818152602001828054600181600116156101000203166002900480156112715780601f1061124657610100808354040283529160200191611271565b820191906000526020600020905b81548152906001019060200180831161125457829003601f168201915b50505050509050919050565b60038054600181600116156101000203166002900480601f016020809104026020016040519081016040528092919081815260200182805460018160011615610100020316600290048015610acd5780601f10610aa257610100808354040283529160200191610acd565b600754600160a060020a031681565b60005433600160a060020a0390811691161461131257600080fd5b600160a060020a038116151561132757600080fd5b60058054600160a060020a031916600160a060020a0392909216919091179055565b60005433600160a060020a0390811691161461136457600080fd5b600160a060020a038116158015906113865750600554600160a060020a031615155b151561139157600080fd5b60068054600160a060020a031916600160a060020a0392909216919091179055565b60045481565b60005433600160a060020a039081169116146113d457600080fd5b600a5460ff16156113e457600080fd5b600082116113f157600080fd5b600160a060020a038116151561140657600080fd5b6000831161141357600080fd5b600282905561142460038585611593565b5060078054600160a060020a031916600160a060020a03929092169190911790555050600a805460ff1916600117905550565b600160a060020a031660009081526009602052604090206001015490565b60005433600160a060020a0390811691161461149057600080fd5b600160a060020a03811615156114a557600080fd5b600054600160a060020a0380831691167f8be0079c531659141344cd1fd0a4f28419497f9722a3daafe3b4186f6b6457e060405160405180910390a360008054600160a060020a031916600160a060020a0392909216919091179055565b60206040519081016040526000815290565b828054600181600116156101000203166002900490600052602060002090601f016020900481019282601f1061155657805160ff1916838001178555611583565b82800160010185558215611583579182015b82811115611583578251825591602001919060010190611568565b5061158f929150611601565b5090565b828054600181600116156101000203166002900490600052602060002090601f016020900481019282601f106115d45782800160ff19823516178555611583565b82800160010185558215611583579182015b828111156115835782358255916020019190600101906115e6565b6109af91905b8082111561158f57600081556001016116075600a165627a7a7230582027aeb896c20fdee864987058776c60f4901b9942953c5b79fb0442e1410b8b730029",
  "source": "pragma solidity ^0.4.18;\n\n\nimport 'openzeppelin-solidity/contracts/ownership/HasNoEther.sol';\n\n\ninterface UidChecker {\n  function isUid(string _uid) public pure returns (bool);\n}\n\n\n/**\n * @title TweedentityStore\n * @author Francesco Sullo <francesco@sullo.co>\n * @dev It store the tweedentities related to the app\n */\n\n\n\ncontract TweedentityStore\nis HasNoEther\n{\n\n  string public version = \"1.5.0\";\n\n  uint public appId;\n  string public appNickname;\n\n  uint public identities;\n\n  address public manager;\n  address public newManager;\n\n  UidChecker public checker;\n\n  struct Uid {\n    string lastUid;\n    uint lastUpdate;\n  }\n\n  struct Address {\n    address lastAddress;\n    uint lastUpdate;\n  }\n\n  mapping(string => Address) internal __addressByUid;\n  mapping(address => Uid) internal __uidByAddress;\n\n  bool public appSet;\n\n\n\n  // events\n\n\n  event IdentitySet(\n    address indexed addr,\n    string uid\n  );\n\n\n  event IdentityUnset(\n    address indexed addr,\n    string uid\n  );\n\n\n\n  // modifiers\n\n\n  modifier onlyManager() {\n    require(msg.sender == manager || (newManager != address(0) && msg.sender == newManager));\n    _;\n  }\n\n\n  modifier whenAppSet() {\n    require(appSet);\n    _;\n  }\n\n\n\n  // config\n\n\n  /**\n  * @dev Updates the checker for the store\n  * @param _address Checker's address\n  */\n  function setNewChecker(\n    address _address\n  )\n  external\n  onlyOwner\n  {\n    require(_address != address(0));\n    checker = UidChecker(_address);\n  }\n\n\n  /**\n  * @dev Sets the manager\n  * @param _address Manager's address\n  */\n  function setManager(\n    address _address\n  )\n  external\n  onlyOwner\n  {\n    require(_address != address(0));\n    manager = _address;\n  }\n\n\n  /**\n  * @dev Sets new manager\n  * @param _address New manager's address\n  */\n  function setNewManager(\n    address _address\n  )\n  external\n  onlyOwner\n  {\n    require(_address != address(0) && manager != address(0));\n    newManager = _address;\n  }\n\n\n  /**\n  * @dev Sets new manager\n  */\n  function switchManagerAndRemoveOldOne()\n  external\n  onlyOwner\n  {\n    manager = newManager;\n    newManager = address(0);\n  }\n\n\n  /**\n  * @dev Sets the app\n  * @param _appNickname Nickname (e.g. twitter)\n  * @param _appId ID (e.g. 1)\n  */\n  function setApp(\n    string _appNickname,\n    uint _appId,\n    address _checker\n  )\n  external\n  onlyOwner\n  {\n    require(!appSet);\n    require(_appId > 0);\n    require(_checker != address(0));\n    require(bytes(_appNickname).length > 0);\n    appId = _appId;\n    appNickname = _appNickname;\n    checker = UidChecker(_checker);\n    appSet = true;\n  }\n\n\n\n  // helpers\n\n\n  /**\n   * @dev Checks if a tweedentity is upgradable\n   * @param _address The address\n   * @param _uid The user-id\n   */\n  function isUpgradable(\n    address _address,\n    string _uid\n  )\n  public\n  constant returns (bool)\n  {\n    if (__addressByUid[_uid].lastAddress != address(0)) {\n      return keccak256(getUid(_address)) == keccak256(_uid);\n    }\n    return true;\n  }\n\n\n\n  // primary methods\n\n\n  /**\n   * @dev Sets a tweedentity\n   * @param _address The address of the wallet\n   * @param _uid The user-id of the owner user account\n   */\n  function setIdentity(\n    address _address,\n    string _uid\n  )\n  external\n  onlyManager\n  whenAppSet\n  {\n    require(_address != address(0));\n    require(isUid(_uid));\n    require(isUpgradable(_address, _uid));\n\n    if (bytes(__uidByAddress[_address].lastUid).length > 0) {\n      // if _address is associated with an oldUid,\n      // this removes the association between _address and oldUid\n      __addressByUid[__uidByAddress[_address].lastUid] = Address(address(0), __addressByUid[__uidByAddress[_address].lastUid].lastUpdate);\n      identities--;\n    }\n\n    __uidByAddress[_address] = Uid(_uid, now);\n    __addressByUid[_uid] = Address(_address, now);\n    identities++;\n    IdentitySet(_address, _uid);\n  }\n\n\n  /**\n   * @dev Unset a tweedentity\n   * @param _address The address of the wallet\n   */\n  function unsetIdentity(\n    address _address\n  )\n  external\n  onlyManager\n  whenAppSet\n  {\n    require(_address != address(0));\n    require(bytes(__uidByAddress[_address].lastUid).length > 0);\n\n    string memory uid = __uidByAddress[_address].lastUid;\n    __uidByAddress[_address] = Uid('', __uidByAddress[_address].lastUpdate);\n    __addressByUid[uid] = Address(address(0), __addressByUid[uid].lastUpdate);\n    identities--;\n    IdentityUnset(_address, uid);\n  }\n\n\n\n  // getters\n\n\n  /**\n   * @dev Returns the keccak256 of the app nickname\n   */\n  function getAppNickname()\n  external\n  whenAppSet\n  constant returns (bytes32) {\n    return keccak256(appNickname);\n  }\n\n\n  /**\n   * @dev Returns the appId\n   */\n  function getAppId()\n  external\n  whenAppSet\n  constant returns (uint) {\n    return appId;\n  }\n\n\n  /**\n   * @dev Returns the user-id associated to a wallet\n   * @param _address The address of the wallet\n   */\n  function getUid(\n    address _address\n  )\n  public\n  constant returns (string)\n  {\n    return __uidByAddress[_address].lastUid;\n  }\n\n\n  /**\n   * @dev Returns the address associated to a user-id\n   * @param _uid The user-id\n   */\n  function getAddress(\n    string _uid\n  )\n  external\n  constant returns (address)\n  {\n    return __addressByUid[_uid].lastAddress;\n  }\n\n\n  /**\n   * @dev Returns the timestamp of last update by address\n   * @param _address The address of the wallet\n   */\n  function getAddressLastUpdate(\n    address _address\n  )\n  external\n  constant returns (uint)\n  {\n    return __uidByAddress[_address].lastUpdate;\n  }\n\n\n  /**\n * @dev Returns the timestamp of last update by user-id\n * @param _uid The user-id\n */\n  function getUidLastUpdate(\n    string _uid\n  )\n  external\n  constant returns (uint)\n  {\n    return __addressByUid[_uid].lastUpdate;\n  }\n\n\n\n  // utils\n\n\n  function isUid(\n    string _uid\n  )\n  public\n  view\n  returns (bool)\n  {\n    return checker.isUid(_uid);\n  }\n\n}\n",
  "sourcePath": "/Users/sullof/Projects/tweedentity-dapp/store/contracts/TweedentityStore.sol",
  "compiler": {
    "name": "solc",
    "version": "0.4.19+commit.c4cbbb05.Emscripten.clang"
  },
  "schemaVersion": "2.0.0",
  "updatedAt": "2018-06-27T18:49:26.074Z"
}