{
  "contractName": "TweedentityRegistry",
  "abi": [
    {
      "constant": true,
      "inputs": [],
      "name": "totalStores",
      "outputs": [
        {
          "name": "",
          "type": "uint256"
        }
      ],
      "payable": false,
      "stateMutability": "view",
      "type": "function"
    },
    {
      "constant": true,
      "inputs": [],
      "name": "manager",
      "outputs": [
        {
          "name": "",
          "type": "address"
        }
      ],
      "payable": false,
      "stateMutability": "view",
      "type": "function"
    },
    {
      "constant": true,
      "inputs": [],
      "name": "version",
      "outputs": [
        {
          "name": "",
          "type": "string"
        }
      ],
      "payable": false,
      "stateMutability": "view",
      "type": "function"
    },
    {
      "constant": true,
      "inputs": [],
      "name": "owner",
      "outputs": [
        {
          "name": "",
          "type": "address"
        }
      ],
      "payable": false,
      "stateMutability": "view",
      "type": "function"
    },
    {
      "constant": false,
      "inputs": [],
      "name": "reclaimEther",
      "outputs": [],
      "payable": false,
      "stateMutability": "nonpayable",
      "type": "function"
    },
    {
      "constant": true,
      "inputs": [],
      "name": "claimer",
      "outputs": [
        {
          "name": "",
          "type": "address"
        }
      ],
      "payable": false,
      "stateMutability": "view",
      "type": "function"
    },
    {
      "constant": false,
      "inputs": [
        {
          "name": "newOwner",
          "type": "address"
        }
      ],
      "name": "transferOwnership",
      "outputs": [],
      "payable": false,
      "stateMutability": "nonpayable",
      "type": "function"
    },
    {
      "payable": false,
      "stateMutability": "nonpayable",
      "type": "fallback"
    },
    {
      "anonymous": false,
      "inputs": [
        {
          "indexed": true,
          "name": "key",
          "type": "bytes32"
        },
        {
          "indexed": false,
          "name": "spec",
          "type": "string"
        },
        {
          "indexed": false,
          "name": "addr",
          "type": "address"
        }
      ],
      "name": "ContractRegistered",
      "type": "event"
    },
    {
      "anonymous": false,
      "inputs": [
        {
          "indexed": true,
          "name": "previousOwner",
          "type": "address"
        },
        {
          "indexed": true,
          "name": "newOwner",
          "type": "address"
        }
      ],
      "name": "OwnershipTransferred",
      "type": "event"
    },
    {
      "constant": false,
      "inputs": [
        {
          "name": "_manager",
          "type": "address"
        }
      ],
      "name": "setManager",
      "outputs": [],
      "payable": false,
      "stateMutability": "nonpayable",
      "type": "function"
    },
    {
      "constant": false,
      "inputs": [
        {
          "name": "_claimer",
          "type": "address"
        }
      ],
      "name": "setClaimer",
      "outputs": [],
      "payable": false,
      "stateMutability": "nonpayable",
      "type": "function"
    },
    {
      "constant": false,
      "inputs": [
        {
          "name": "_manager",
          "type": "address"
        },
        {
          "name": "_claimer",
          "type": "address"
        }
      ],
      "name": "setManagerAndClaimer",
      "outputs": [],
      "payable": false,
      "stateMutability": "nonpayable",
      "type": "function"
    },
    {
      "constant": false,
      "inputs": [
        {
          "name": "_appNickname",
          "type": "string"
        },
        {
          "name": "_store",
          "type": "address"
        }
      ],
      "name": "setAStore",
      "outputs": [],
      "payable": false,
      "stateMutability": "nonpayable",
      "type": "function"
    },
    {
      "constant": true,
      "inputs": [
        {
          "name": "_appNickname",
          "type": "string"
        }
      ],
      "name": "getStore",
      "outputs": [
        {
          "name": "",
          "type": "address"
        }
      ],
      "payable": false,
      "stateMutability": "view",
      "type": "function"
    },
    {
      "constant": true,
      "inputs": [],
      "name": "isReady",
      "outputs": [
        {
          "name": "",
          "type": "bool"
        }
      ],
      "payable": false,
      "stateMutability": "view",
      "type": "function"
    }
  ],
  "bytecode": "0x606060405260408051908101604052600581527f312e342e300000000000000000000000000000000000000000000000000000006020820152600190805161004b929160200190610077565b5060008054600160a060020a03191633600160a060020a0316179055341561007257600080fd5b610112565b828054600181600116156101000203166002900490600052602060002090601f016020900481019282601f106100b857805160ff19168380011785556100e5565b828001600101855582156100e5579182015b828111156100e55782518255916020019190600101906100ca565b506100f19291506100f5565b5090565b61010f91905b808211156100f157600081556001016100fb565b90565b610ab7806101216000396000f3006060604052600436106100c45763ffffffff7c010000000000000000000000000000000000000000000000000000000060003504166315f063f781146100d1578063481c6a75146100f6578063543a9ce41461012557806354fd4d50146101515780638da5cb5b146101db5780638df35abe146101ee5780639f727c2714610213578063a094a03114610226578063cdfb58321461024d578063d0ebdbe71461026c578063d379be231461028b578063f2fde38b1461029e578063ffc31215146102bd575b34156100cf57600080fd5b005b34156100dc57600080fd5b6100e461030e565b60405190815260200160405180910390f35b341561010157600080fd5b610109610314565b604051600160a060020a03909116815260200160405180910390f35b341561013057600080fd5b6100cf6024600480358281019291013590600160a060020a03903516610323565b341561015c57600080fd5b610164610487565b60405160208082528190810183818151815260200191508051906020019080838360005b838110156101a0578082015183820152602001610188565b50505050905090810190601f1680156101cd5780820380516001836020036101000a031916815260200191505b509250505060405180910390f35b34156101e657600080fd5b610109610525565b34156101f957600080fd5b6100cf600160a060020a0360043581169060243516610534565b341561021e57600080fd5b6100cf610692565b341561023157600080fd5b6102396106e5565b604051901515815260200160405180910390f35b341561025857600080fd5b6100cf600160a060020a03600435166107b0565b341561027757600080fd5b6100cf600160a060020a0360043516610877565b341561029657600080fd5b61010961093e565b34156102a957600080fd5b6100cf600160a060020a036004351661094d565b34156102c857600080fd5b61010960046024813581810190830135806020601f820181900481020160405190810160405281815292919060208401838380828437509496506109e895505050505050565b60025481565b600454600160a060020a031681565b60005433600160a060020a0390811691161461033e57600080fd5b600160a060020a038116151561035357600080fd5b600061038c8484806020601f820181900481020160405190810160405281815292919060208401838380828437506109e8945050505050565b600160a060020a031614156103a5576002805460010190555b8060036000858560405180838380828437820191505092505050604051908190039020815260208101919091526040908101600020805473ffffffffffffffffffffffffffffffffffffffff1916600160a060020a039390931692909217909155517f73746f72650000000000000000000000000000000000000000000000000000008152600501604051908190039020600080516020610a6c833981519152848484604051600160a060020a0382166020820152604080825281018390528060608101858580828437820191505094505050505060405180910390a2505050565b60018054600181600116156101000203166002900480601f01602080910402602001604051908101604052809291908181526020018280546001816001161561010002031660029004801561051d5780601f106104f25761010080835404028352916020019161051d565b820191906000526020600020905b81548152906001019060200180831161050057829003601f168201915b505050505081565b600054600160a060020a031681565b60005433600160a060020a0390811691161461054f57600080fd5b600160a060020a038216151561056457600080fd5b600160a060020a038116151561057957600080fd5b60048054600160a060020a0380851673ffffffffffffffffffffffffffffffffffffffff199283161790925560058054928416929091169190911790556040517f6d616e61676572000000000000000000000000000000000000000000000000008152600701604051908190039020600080516020610a6c83398151915283604051600160a060020a03909116602082015260408082526000818301526080909101905180910390a26040517f636c61696d6572000000000000000000000000000000000000000000000000008152600701604051908190039020600080516020610a6c83398151915282604051600160a060020a03909116602082015260408082526000818301526080909101905180910390a25050565b60005433600160a060020a039081169116146106ad57600080fd5b600054600160a060020a039081169030163180156108fc0290604051600060405180830381858888f1935050505015156106e357fe5b565b600454600254600091600160a060020a03169082901180156107115750600454600160a060020a031615155b80156107275750600554600160a060020a031615155b80156107aa575080600160a060020a0316635c975abb6000604051602001526040518163ffffffff167c0100000000000000000000000000000000000000000000000000000000028152600401602060405180830381600087803b151561078d57600080fd5b6102c65a03f1151561079e57600080fd5b50505060405180511590505b91505090565b60005433600160a060020a039081169116146107cb57600080fd5b600160a060020a03811615156107e057600080fd5b6005805473ffffffffffffffffffffffffffffffffffffffff1916600160a060020a0383161790556040517f636c61696d6572000000000000000000000000000000000000000000000000008152600701604051908190039020600080516020610a6c83398151915282604051600160a060020a03909116602082015260408082526000818301526080909101905180910390a250565b60005433600160a060020a0390811691161461089257600080fd5b600160a060020a03811615156108a757600080fd5b6004805473ffffffffffffffffffffffffffffffffffffffff1916600160a060020a0383161790556040517f6d616e61676572000000000000000000000000000000000000000000000000008152600701604051908190039020600080516020610a6c83398151915282604051600160a060020a03909116602082015260408082526000818301526080909101905180910390a250565b600554600160a060020a031681565b60005433600160a060020a0390811691161461096857600080fd5b600160a060020a038116151561097d57600080fd5b600054600160a060020a0380831691167f8be0079c531659141344cd1fd0a4f28419497f9722a3daafe3b4186f6b6457e060405160405180910390a36000805473ffffffffffffffffffffffffffffffffffffffff1916600160a060020a0392909216919091179055565b600060036000836040518082805190602001908083835b60208310610a1e5780518252601f1990920191602091820191016109ff565b6001836020036101000a03801982511681845116179092525050509190910192506040915050519081900390208152602081019190915260400160002054600160a060020a03169291505056004b83fc921eb87ab895fdb62b46f6fda5c80090eee7907fd2e50481b669142b3ca165627a7a72305820b1247d93bd0a9a613be2489f6686519ec500332e51f2a5303d4ac43a2349847e0029",
  "source": "pragma solidity ^0.4.18;\n\n\nimport 'openzeppelin-solidity/contracts/ownership/HasNoEther.sol';\n\n\ncontract Pausable {\n\n  bool public paused;\n}\n\n\n/**\n * @title TweedentityRegistry\n * @author Francesco Sullo <francesco@sullo.co>\n * @dev It store the tweedentities contracts addresses to allows dapp to be updated\n */\n\n\ncontract TweedentityRegistry\nis HasNoEther\n{\n\n  string public version = \"1.4.0\";\n\n  uint public totalStores;\n  mapping (bytes32 => address) private stores;\n\n  address public manager;\n  address public claimer;\n\n  event ContractRegistered(\n    bytes32 indexed key,\n    string spec,\n    address addr\n  );\n\n\n  function setManager(\n    address _manager\n  )\n  external\n  onlyOwner\n  {\n    require(_manager != address(0));\n    manager = _manager;\n    ContractRegistered(keccak256(\"manager\"), \"\", _manager);\n  }\n\n\n  function setClaimer(\n    address _claimer\n  )\n  external\n  onlyOwner\n  {\n    require(_claimer != address(0));\n    claimer = _claimer;\n    ContractRegistered(keccak256(\"claimer\"), \"\", _claimer);\n  }\n\n\n  function setManagerAndClaimer(\n    address _manager,\n    address _claimer\n  )\n  external\n  onlyOwner\n  {\n    require(_manager != address(0));\n    require(_claimer != address(0));\n    manager = _manager;\n    claimer = _claimer;\n    ContractRegistered(keccak256(\"manager\"), \"\", _manager);\n    ContractRegistered(keccak256(\"claimer\"), \"\", _claimer);\n  }\n\n\n  function setAStore(\n    string _appNickname,\n    address _store\n  )\n  external\n  onlyOwner\n  {\n    require(_store != address(0));\n    if (getStore(_appNickname) == address(0)) {\n      totalStores++;\n    }\n    stores[keccak256(_appNickname)] = _store;\n    ContractRegistered(keccak256(\"store\"), _appNickname, _store);\n  }\n\n\n  /**\n   * @dev Gets the store managing the specified app\n   * @param _appNickname The nickname of the app\n   */\n  function getStore(\n    string _appNickname\n  )\n  public\n  constant returns(address)\n  {\n    return stores[keccak256(_appNickname)];\n  }\n\n\n  /**\n   * @dev Returns true if the registry looks ready\n   */\n  function isReady()\n  external\n  constant returns(bool)\n  {\n    Pausable pausable = Pausable(manager);\n    return totalStores > 0 && manager != address(0) && claimer != address(0) && pausable.paused() == false;\n  }\n\n}\n",
  "sourcePath": "/Users/sullof/Projects/tweedentity-dapp/store/contracts/TweedentityRegistry.sol",
  "compiler": {
    "name": "solc",
    "version": "0.4.19+commit.c4cbbb05.Emscripten.clang"
  },
  "schemaVersion": "2.0.0",
  "updatedAt": "2018-06-27T17:31:40.793Z"
}