{
  "contractName": "TwitterUidChecker",
  "abi": [
    {
      "constant": true,
      "inputs": [],
      "name": "version",
      "outputs": [
        {
          "name": "",
          "type": "string"
        }
      ],
      "payable": false,
      "stateMutability": "view",
      "type": "function"
    },
    {
      "constant": true,
      "inputs": [
        {
          "name": "_uid",
          "type": "string"
        }
      ],
      "name": "isUid",
      "outputs": [
        {
          "name": "",
          "type": "bool"
        }
      ],
      "payable": false,
      "stateMutability": "pure",
      "type": "function"
    }
  ],
  "bytecode": "0x606060405260408051908101604052600581527f312e352e300000000000000000000000000000000000000000000000000000006020820152600090805161004b92916020019061005c565b50341561005757600080fd5b6100f7565b828054600181600116156101000203166002900490600052602060002090601f016020900481019282601f1061009d57805160ff19168380011785556100ca565b828001600101855582156100ca579182015b828111156100ca5782518255916020019190600101906100af565b506100d69291506100da565b5090565b6100f491905b808211156100d657600081556001016100e0565b90565b610340806101066000396000f30060606040526004361061004b5763ffffffff7c010000000000000000000000000000000000000000000000000000000060003504166354fd4d5081146100505780638ec5ff41146100da575b600080fd5b341561005b57600080fd5b61006361013f565b60405160208082528190810183818151815260200191508051906020019080838360005b8381101561009f578082015183820152602001610087565b50505050905090810190601f1680156100cc5780820380516001836020036101000a031916815260200191505b509250505060405180910390f35b34156100e557600080fd5b61012b60046024813581810190830135806020601f820181900481020160405190810160405281815292919060208401838380828437509496506101dd95505050505050565b604051901515815260200160405180910390f35b60008054600181600116156101000203166002900480601f0160208091040260200160405190810160405280929190818152602001828054600181600116156101000203166002900480156101d55780601f106101aa576101008083540402835291602001916101d5565b820191906000526020600020905b8154815290600101906020018083116101b857829003601f168201915b505050505081565b60006101e7610302565b50816000815115806101fa575060148251115b1561020857600092506102fb565b5060005b81518110156102f6577f300000000000000000000000000000000000000000000000000000000000000082828151811061024257fe5b016020015160f860020a900460f860020a027effffffffffffffffffffffffffffffffffffffffffffffffffffffffffffff191610806102e057507f39000000000000000000000000000000000000000000000000000000000000008282815181106102aa57fe5b016020015160f860020a900460f860020a027effffffffffffffffffffffffffffffffffffffffffffffffffffffffffffff1916115b156102ee57600092506102fb565b60010161020c565b600192505b5050919050565b602060405190810160405260008152905600a165627a7a72305820a7223eb8587f8dd572ead949b96c15ad08540cf87e0bc4ca58f876881815b2300029",
  "source": "pragma solidity ^0.4.18;\n\n\n/**\n * @title TwitterUidChecker\n * @author Francesco Sullo <francesco@sullo.co>\n * @dev Checks if a uid is a Twitter uid\n */\n\n\n\ncontract TwitterUidChecker\n{\n\n  string public version = \"1.5.0\";\n\n  function isUid(\n    string _uid\n  )\n  public\n  pure\n  returns (bool)\n  {\n    bytes memory uid = bytes(_uid);\n    if (uid.length == 0 || uid.length > 20) {\n      return false;\n    } else {\n      for (uint i = 0; i < uid.length; i++) {\n        if (uid[i] < 48 || uid[i] > 57) {\n          return false;\n        }\n      }\n    }\n    return true;\n  }\n\n}\n",
  "sourcePath": "/Users/sullof/Projects/tweedentity-dapp/store/contracts/TwitterUidChecker.sol",
  "compiler": {
    "name": "solc",
    "version": "0.4.19+commit.c4cbbb05.Emscripten.clang"
  },
  "schemaVersion": "2.0.0",
  "updatedAt": "2018-06-27T17:31:40.799Z"
}