{
  "contractName": "UidCheckerForReddit",
  "abi": [
    {
      "constant": true,
      "inputs": [],
      "name": "fromVersion",
      "outputs": [
        {
          "name": "",
          "type": "string"
        }
      ],
      "payable": false,
      "stateMutability": "view",
      "type": "function"
    },
    {
      "constant": true,
      "inputs": [
        {
          "name": "_uid",
          "type": "string"
        }
      ],
      "name": "isUid",
      "outputs": [
        {
          "name": "",
          "type": "bool"
        }
      ],
      "payable": false,
      "stateMutability": "pure",
      "type": "function"
    }
  ],
  "bytecode": "0x606060405260408051908101604052600581527f312e302e300000000000000000000000000000000000000000000000000000006020820152600090805161004b92916020019061005c565b50341561005757600080fd5b6100f7565b828054600181600116156101000203166002900490600052602060002090601f016020900481019282601f1061009d57805160ff19168380011785556100ca565b828001600101855582156100ca579182015b828111156100ca5782518255916020019190600101906100af565b506100d69291506100da565b5090565b6100f491905b808211156100d657600081556001016100e0565b90565b610429806101066000396000f30060606040526004361061004b5763ffffffff7c010000000000000000000000000000000000000000000000000000000060003504166355869af181146100505780638ec5ff41146100da575b600080fd5b341561005b57600080fd5b61006361013f565b60405160208082528190810183818151815260200191508051906020019080838360005b8381101561009f578082015183820152602001610087565b50505050905090810190601f1680156100cc5780820380516001836020036101000a031916815260200191505b509250505060405180910390f35b34156100e557600080fd5b61012b60046024813581810190830135806020601f820181900481020160405190810160405281815292919060208401838380828437509496506101dd95505050505050565b604051901515815260200160405180910390f35b60008054600181600116156101000203166002900480601f0160208091040260200160405190810160405280929190818152602001828054600181600116156101000203166002900480156101d55780601f106101aa576101008083540402835291602001916101d5565b820191906000526020600020905b8154815290600101906020018083116101b857829003601f168201915b505050505081565b60006101e76103eb565b508160006003825110806101fc575060148251115b1561020a57600092506103e4565b5060005b81518110156103df5781818151811061022357fe5b016020015160f860020a900460f860020a02600160f860020a031916602d60f860020a021480610280575081818151811061025a57fe5b016020015160f860020a900460f860020a02600160f860020a031916605f60f860020a02145b8061032457507f30000000000000000000000000000000000000000000000000000000000000008282815181106102b357fe5b016020015160f860020a900460f860020a02600160f860020a0319161015801561032457507f390000000000000000000000000000000000000000000000000000000000000082828151811061030557fe5b016020015160f860020a900460f860020a02600160f860020a03191611155b806103c857507f610000000000000000000000000000000000000000000000000000000000000082828151811061035757fe5b016020015160f860020a900460f860020a02600160f860020a031916101580156103c857507f7a000000000000000000000000000000000000000000000000000000000000008282815181106103a957fe5b016020015160f860020a900460f860020a02600160f860020a03191611155b15156103d757600092506103e4565b60010161020e565b600192505b5050919050565b602060405190810160405260008152905600a165627a7a72305820b7486b82eddde8a5a1115afa906411c261426e6d171ada4648cbd196cca7df490029",
  "source": "pragma solidity ^0.4.18;\n\n\nimport './UidCheckerInterface.sol';\n\n/**\n * @title UidCheckerForReddit\n * @author Francesco Sullo <francesco@sullo.co>\n * @dev Checks if a uid is a Reddit uid\n */\n\n\n\ncontract UidCheckerForReddit\nis UidCheckerInterface\n{\n\n  string public fromVersion = \"1.0.0\";\n\n  function isUid(\n    string _uid\n  )\n  public\n  pure\n  returns (bool)\n  {\n    bytes memory uid = bytes(_uid);\n    if (uid.length < 3 || uid.length > 20) {\n      return false;\n    } else {\n      for (uint i = 0; i < uid.length; i++) {\n        if (!(\n        uid[i] == 45 || uid[i] == 95\n        || (uid[i] >= 48 && uid[i] <= 57)\n        // it requires lowercases, to not risk conflicts\n        // even if Reddit allows lower and upper cases\n        || (uid[i] >= 97 && uid[i] <= 122)\n        )) {\n          return false;\n        }\n      }\n    }\n    return true;\n  }\n\n}\n",
  "sourcePath": "/Users/sullof/Projects/tweedentity-dapp/store/contracts/UidCheckerForReddit.sol",
  "compiler": {
    "name": "solc",
    "version": "0.4.19+commit.c4cbbb05.Emscripten.clang"
  },
  "schemaVersion": "2.0.0",
  "updatedAt": "2018-06-28T05:08:54.911Z"
}